:100000000C9406010C94A2160C94C9160C94F016CC
:100010000C9417170C942E010C942E010C943E177F
:100020000C942E010C942E010C94221F0C94B41DE0
:100030000C942E010C942E010C942E010C942E0184
:100040000C942E010C942E010C942E010C942E0174
:100050000C942E010C942E010C942E010C94651717
:100060000C942E010C942E010C942E010C942E0154
:100070000C942E010C942E010C942E010C942E0144
:100080000C942E010C942E010C942E010C942E0134
:100090000C942E010C942E010C942E010C942E0124
:1000A0000C942E010C942E010C942E0180048404D7
:1000B0004A044D045004540458045B045F04620471
:1000C000650468046B046F04730477047A04991858
:1000D0009C188B188F189518BD18BD18BD18A0183E
:1000E000A418A818AE18B218BD18B8180706050449
:1000F0000100080A0B0C0D090000000200090F00A6
:1001000000030401000C00000000000000000000DB
:1001100000000000000000040802011040804010B0
:10012000204080408008020401804020100201101D
:10013000801020404020040404040403040502024B
:100140000202040302020202060606060606040470
:100150000202020404000000002300260029002CF3
:10016000002F0000000000250028002B002E003189
:100170000000000000240027002A002D00300008A5
:100180000B0002020201000904000001020200004B
:1001900005240010010524010101042402060524A0
:1001A0000600010705810310004009040100020A4E
:1001B000000000070502024000000705830240001E
:1001C0000012010002EF02014041233680000101CC
:1001D00002030112010002000000404123368000AA
:1001E000010102030141726475696E6F204C4C433A
:1001F0000041726475696E6F204C656F6E61726448
:100200006F0004030904CB153D1A4D1611241FBEBF
:10021000CFEFDAE0DEBFCDBF12E0A0E0B1E0EAE46C
:10022000F5E402C005900D92A433B107D9F723E09D
:10023000A4E3B2E001C01D92A231B207E1F712E0DF
:10024000CAE0D2E004C02297FE010E94DF20C6303F
:10025000D107C9F70E945B1A0C9498220C940000F5
:10026000CF93DF93EC0188859985009711F00E9468
:1002700095218D8187FD05C060E0DF91CF910C94C1
:10028000BE18DF91CF910895CF93DF93EC018D815C
:1002900087FD07C061E00E94BE1860E08D810E946A
:1002A000F71881E08883DF91CF910895EF92FF9254
:1002B0000F931F93CF93DF93EC017B018885998582
:1002C000009711F00E9495218701000F111F0E0D5C
:1002D0001F1D1C830B83C8010E94FD2099878887FE
:1002E000009741F0A80160E070E00E948122FA824C
:1002F000E98204C01C821B821A821982DF91CF918D
:100300001F910F91FF90EF900895FC01668360FFAD
:1003100004C081E08287138611C062FF06C081E0BD
:10032000828782E0838714860895128663FF04C063
:1003300082E0838781E003C081E0838782E0848755
:100340000895CF92DF92EF92FF920F931F93CF9376
:10035000DF93CDB7DEB729970FB6F894DEBF0FBE97
:10036000CDBF8C01DC0118968D919C911997892B3A
:1003700009F49BC00E94AF17F801C584D684E784B6
:10038000F0886C197D098E099F096233710581051A
:10039000910580F3F894838194819A838983A08561
:1003A000B1857D01EFEFEE1AFE0A8C918987D801A5
:1003B00016969C91169751960D90BC91A02DF80120
:1003C000838991FF2EC09C91982B98879C91809552
:1003D00089238F838F818E8388E08D8358856F81F9
:1003E00049853D812E8189819A81F7015C9347FD82
:1003F000252F3A952C93262F39F0441F00C000007A
:100400006C93000000C0F2CF38E041916C93000083
:10041000019761F7F801B28BA18B49873D832E8349
:1004200038C09C91982B98879C91809589238F83C5
:100430008F818C8388E08B8358856F8149853B81D0
:100440002C8189819A81F7015C9347FD252F00C09B
:1004500000C02C9300C000C000C000C000C06C935E
:100460000000262F3A9541F0441F000000C000C054
:1004700000C000C000C0E8CF38E0419100C06C93DC
:1004800000C0019709F7F801B28BA18B49873B8324
:100490002C839A83898378940E94AF17D8011D9684
:1004A0006D937D938D939C93509729960FB6F894F6
:1004B000DEBF0FBECDBFDF91CF911F910F91FF9097
:1004C000EF90DF90CF9008951F93CF93DF93EC01CF
:1004D000162F8881882331F08D8187FD03C060E06D
:1004E0000E94BE181D838881882341F061E0812F1E
:1004F0000E94BE1860E0812F0E94F718812F90E0C3
:10050000FC01EA5CFE4FE491F0E0EE0FFF1FED59B5
:10051000FE4F259134913A8B298BFC01E95EFE4F09
:1005200084918B8BDF91CF911F9108950F931F932F
:10053000CF93DF9300D0CDB7DEB78C01FC011082E2
:10054000178211861086158616861786108A2A83CA
:1005500049830E9456014981642FC8010E946402A8
:100560002A81622FC8010F900F90DF91CF911F91C8
:100570000F910C948501CF92DF92EF92FF920F932F
:100580001F93CF93DF93FC018181928168177907D4
:1005900088F5CA01AA27BB27082FC32ED42EE52E23
:1005A000FF241C2DD22FC781CC2361F08C9FC0016A
:1005B0001124092FCC9E600111241D2D2C9F900128
:1005C0001124D32F9B01220F331F260F371F808545
:1005D0009185820F931F2285DC01A20FB11D0C9320
:1005E0002385DC01A20FB11D1C932485FC01E20FC1
:1005F000F11DD083DF91CF911F910F91FF90EF906C
:10060000DF90CF900895962F50E060E070E0592B76
:10061000682BCB01BA0108958EBD00000DB407FE12
:10062000FDCF8EB50895CF93DF93EC0160E088890C
:100630000E94F71880EC0E940C0361E088890E94F8
:10064000F7186AE070E080E090E0DF91CF910C94C1
:10065000D2171F93CF93DF93EC01162F60E08889A8
:100660000E94F71883E00E940C03812F0E940C0364
:1006700080E00E940C03182F61E088890E94F7181F
:10068000812FDF91CF911F910895CF92DF92EF924A
:10069000FF920F931F93CF93DF9300D0CDB7DEB7B8
:1006A0008C01F62EE22E60E0FC01808949835A839A
:1006B0000E94F71883E00E940C038F2D0E940C0308
:1006C0004981C42E5A81D52EF12CFE1459F0F8E040
:1006D000FF1641F080E00E940C03F60181936F0148
:1006E000F394F3CF61E0F80180890F900F90DF91D0
:1006F000CF911F910F91FF90EF90DF90CF900C94CE
:10070000F718EF92FF921F93CF93DF931F92CDB70D
:10071000DEB77C01162F60E0FC01808949830E94CE
:10072000F71882E00E940C03812F0E940C0349817C
:10073000842F0E940C0361E0F70180890F90DF9104
:10074000CF911F91FF90EF900C94F718CF92DF920A
:10075000EF92FF920F931F93CF93DF9300D0CDB70B
:10076000DEB78C01E62EF22E60E0FC018089498321
:100770005A830E94F71882E00E940C038E2D0E947B
:100780000C034981E42EC42E5A81D52E8C2D8E194E
:100790008F1530F4F60181916F010E940C03F6CFA2
:1007A00061E0F80180890F900F90DF91CF911F9148
:1007B0000F91FF90EF90DF90CF900C94F718EF928D
:1007C000FF921F93CF93DF9300D0CDB7DEB77C01AC
:1007D000162F60E0FC0180892A8349830E94F71864
:1007E00085E00E940C03812F0E940C034981842F15
:1007F0000E940C032A81822F0E940C0361E0F70102
:1008000080890F900F90DF91CF911F91FF90EF9013
:100810000C94F7181F93CF93DF93EC0160E0888965
:100820000E94F71880EA0E940C0380E00E940C03EB
:10083000182F61E088890E94F718812FDF91CF91EE
:100840001F9108951F93CF93DF93EC01162F262F4E
:1008500040EE6FE00E94DF036FE0CE010E942903AB
:10086000982F907E81E0911301C080E0DF91CF91BD
:100870001F9108950F931F93CF93DF93EC01462FA1
:1008800050E0FA013197E131F105C0F5EA5AFF4F26
:100890000C94DD2017E80FEF05C017E00AEB02C04B
:1008A00015E801EF4FE033C017E00EEB49E02FC031
:1008B00017E80FEF02C017E80AEF47E028C017E873
:1008C0000FEF0BC017E00EEB08C017E00DEA05C0F4
:1008D00017E80AEF02C016E800EF43E018C017E877
:1008E0000AEF41E014C015E801EF41E410C016E83A
:1008F00000EF02C012E800ED40E009C081E016C040
:1009000017E80FEF4FE303C017E80FEF4FE16AE27C
:10091000CE010E948103402F69E2CE010E94810333
:10092000412F68E2CE010E94810380E0DF91CF91E8
:100930001F910F9108951F93CF93DF93EC0110E364
:1009400040E0612FCE010E94810360E1610F40E031
:10095000CE010E94810360E2610F40E0CE010E945F
:1009600081031F5F1E3361F740E060E6CE010E9405
:10097000810340E060E7CE01DF91CF911F910C949D
:1009800081030F931F93CF93DF93EC01062F0E94F7
:10099000130360E8CE010E942204182F6AE070E081
:1009A00080E090E011110CC00E94D217602FCE01A0
:1009B0000E943A04882339F06AE070E080E090E019
:1009C0000E94D21728C06AE070E080E090E00E94A8
:1009D000D217CE010E949B0443E06BE2CE010E943D
:1009E000810324E044E660E6CE010E94DF0320E0BC
:1009F00040E660E7CE010E94DF0360E0CE010E9486
:100A00002204C82F8823C1F26AE070E080E090E001
:100A10000E94D2171C2F812FDF91CF911F910F9130
:100A200008950F931F93CF93DF9300D000D0CDB7DD
:100A3000DEB74130B1F40C831B83890122273327B1
:100A4000502F5C71402F437078E0579F400D112468
:100A500048604A8355E0169507955A95E1F7098352
:100A60000DC0A80123E0569547952A95E1F74983E3
:100A70000295000F007E0A831C821B8224E0AE01D7
:100A80004F5F5F4F0E94A6030F900F900F900F9043
:100A9000DF91CF911F910F910895EF92FF920F93E5
:100AA0001F93CF93DF9300D000D0CDB7DEB77A018C
:100AB0008901FA011082F9011082118212821382D7
:100AC00024E0AE014F5F5F4F0E9445032A813981C8
:100AD000822F90E045E0959587954A95E1F7F8E0FB
:100AE0003F9F800D911D1124AA2797FDA095BA2F35
:100AF000F80180839183A283B38323FF25C062E042
:100B0000880F991FAA1FBB1F6A95D1F72370820F08
:100B1000911DA11DB11DBA2FA92F982F88272B81B8
:100B2000820F911DA11DB11DBA2FA92F982F8827C3
:100B30002C81820F911DA11DB11D80839183A28301
:100B4000B38381E0F70180830F900F900F900F9097
:100B5000DF91CF911F910F91FF90EF900895FF9239
:100B60000F931F93CF93DF93EC01F62EAC014A5FF6
:100B70005F4F65E06F0D2D810E94A6038E85813049
:100B800019F48D8180648D8364E06F0D4D81CE01F9
:100B90000E94810309811A812B813C8148816F2D3C
:100BA000CE010E941105DF91CF911F910F91FF900F
:100BB00008950F931F93CF93DF93EC01162F9C01A1
:100BC0002F5F3F4FAC010E944D056FEF610FCE01CB
:100BD0000E942903082F64E0610FCE010E942903BF
:100BE000282F8D8303FF03C081E08E8701C01E86FE
:100BF0002F702D83AE014A5F5F4F65E0610FCE011C
:100C0000DF91CF911F910F910C944503615028E023
:100C100048E00C94DF03FF920F931F93CF93DF9371
:100C200000D01F92CDB7DEB78B0120E3298320E4EB
:100C30002A8320E52B83FB011082FE01E40FF11DC6
:100C4000F1806F2D0E942903982F987083FD04C0B6
:100C5000F394F801F08201C092E0892F0F900F9079
:100C60000F90DF91CF911F910F91FF900895CF9337
:100C7000DF93EC01862F688B61E00E94BE1861E073
:100C80008889DF91CF910C94F718CF93DF9300D030
:100C90001F92CDB7DEB76B8389839A830E942308A6
:100CA0006B8189819A810E94C10491E0811101C008
:100CB00090E0892F0F900F900F90DF91CF910895C2
:100CC0008F929F92BF92CF92DF92EF92FF920F93FB
:100CD0001F93CF93DF931F92CDB7DEB74C01B62E93
:100CE000680179016AE070E080E090E049830E9449
:100CF000D21760E8C4010E942204182F498188237A
:100D000029F06AE070E080E090E01AC0B11004C001
:100D10009701860160E206C081E0B81206C0970123
:100D2000860164E2C4010E94110560E0C4010E94D2
:100D30002204182F6AE070E080E090E0112321F097
:100D40000E94D217812F03C00E94D21780E00F901B
:100D5000DF91CF911F910F91FF90EF90DF90CF9097
:100D6000BF909F908F900895AF92BF92CF92DF92E5
:100D7000EF92FF920F931F93CF93DF9300D0CDB7E5
:100D8000DEB75C01562F680179016AE070E080E00F
:100D900090E04A8359830E94D21760E8C5010E94FF
:100DA0002204182F4A815981882329F06AE070E0D3
:100DB00080E090E031C05230B1F040F4552379F03A
:100DC0005130F9F49701860164E018C0543099F06D
:100DD00070F05530B1F49701860168E10FC09701BA
:100DE000860160E00BC09701860168E007C09701AB
:100DF000860160E103C09701860164E1C5010E949C
:100E0000110560E0C5010E942204182F6AE070E01D
:100E100080E090E0112321F00E94D217812F03C0BF
:100E20000E94D21780E00F900F90DF91CF911F9119
:100E30000F91FF90EF90DF90CF90BF90AF9008950B
:100E4000CF92DF92EF920F931F93CF93DF93FC012A
:100E500020834183528363837483093008F008E060
:100E60000583E686D60180E090E010E080179107C8
:100E70003CF42D91EF01C80FD91F2E830196F6CFB8
:100E800080E0DF91CF911F910F91EF90DF90CF9095
:100E90000895CF92DF92EF92FF920F936701E12CBA
:100EA0000E9420070F91FF90EF90DF90CF90089560
:100EB000DF92EF92FF920F931F93CF93DF931F92D6
:100EC000CDB7DEB78C01D62EE12CF12C4D2DBE0115
:100ED0006F5F7F4FC8010E940B069FEFE91AF90A66
:100EE000823029F482E3E816F10481F72BC092E303
:100EF000E916F10439F16981C8010E94AF056981E1
:100F0000C8010E940606E12CF12C8FEFE81AF80ABE
:100F100069816150C8010E942903D82E61E070E008
:100F200080E090E00E94D217D3FE06C092E3E9165B
:100F3000F10459F787E007C082E3E816F104D1F322
:100F400080E001C086E00F90DF91CF911F910F915B
:100F5000FF90EF90DF900895CF92EF92FF920F9362
:100F6000CF93DF93EC010E9449076C2DCE01DF91F6
:100F7000CF910F91FF90EF90CF900C945807CF93A3
:100F8000DF93EC010E940A0480FF07C061E6CE01F6
:100F90000E94D90520E041E008C081FF0CC061E754
:100FA000CE010E94D90520E042E06CE2CE010E9411
:100FB000DF0380E001C084E0DF91CF910895EF92DC
:100FC000FF920F931F93CF93DF9300D0CDB7DEB77F
:100FD0007C018B0149835A830E94BF0749815A8152
:100FE000811118C0D70115969C91F8019083FA01E0
:100FF00020E030E0D70115964C9150E024173507DA
:101000005CF4D701A20FB31F16969C9191932F5FAA
:101010003F4FF0CFF80110820F900F90DF91CF91EA
:101020001F910F91FF90EF9008950E940A04837022
:1010300011F083E0089584E00895FC0161817281DC
:10104000838194810895CF93CFB7F894809134022F
:10105000811127C0E7E4F1E08491E8E2F1E09491A6
:10106000E82FF0E0EE0FFF1FEF58FE4FA591B4916F
:101070008C91892321F461E081E10E94F71861E0FD
:1010800081E10E94BE188CB580618CBD8CB58064F6
:101090008CBD61E08FE00E94BE1861E080E10E949B
:1010A000BE18809134028F5F80933402CFBFCF91FE
:1010B000089581E080935002089580916E0290918E
:1010C0006F02A0917002B09171020697A105B1055F
:1010D00048F4609186027091870280918802909115
:1010E0008902089560918202709183028091840246
:1010F000909185020895813049F460918602709143
:10110000870280918802909189020895823049F483
:101110006091820270918302809184029091850295
:101120000895833049F4609176027091770280913E
:101130007802909179020895843049F460917E029A
:1011400070917F0280918002909181020895853094
:1011500049F460917A0270917B0280917C029091B7
:101160007D02089560917202709173028091740201
:101170009091750208950F931F930091860210912C
:1011800087022091880230918902601771078207D7
:101190009307D1F100918202109183022091840281
:1011A00030918502601771078207930779F10091EA
:1011B00076021091770220917802309179026017BF
:1011C00071078207930721F100917E0210917F023F
:1011D0002091800230918102601771078207930786
:1011E00079F000917A0210917B0220917C0230917B
:1011F0007D02601771078207930721F485E009C01B
:1012000084E007C080E005C081E003C082E001C047
:1012100083E01F910F910895882339F081509091B8
:101220002B01899F802D1124089580E00895882343
:1012300021F0880F880F880F089580912C01089560
:101240005F926F927F928F929F92AF92BF92CF9256
:10125000DF92EF92FF920F931F93CF93DF931F9232
:10126000CDB7DEB74B015C01622E7E2C49830E9414
:10127000BB088093190184E080931A0149814111D0
:1012800001C04AE0611002C06624639410E0C42EDD
:10129000D12CE12CF12C81E0861510F0502E1BC0D2
:1012A000502E5714D8F7209172023091730240915A
:1012B000740250917502652D70E08AE892E00E94F8
:1012C000BB028AE892E00E94A101C701B6010E9418
:1012D000D2175394E6CF571490F4652D70E0A50112
:1012E00094018AE892E00E94BB028AE892E00E94A0
:1012F000A101C701B6010E94D2175394ECCF1F5F22
:101300001611C9CF0F90DF91CF911F910F91FF90D0
:10131000EF90DF90CF90BF90AF909F908F907F9095
:101320006F905F9008959F92AF92BF92CF92DF929D
:10133000EF92FF920F931F93CF93DF936B017C018A
:10134000942EA22E0E94BB088093190181E0809305
:101350001A01911002C02AE0922EB12CC0E0D0E018
:1013600010E0BE016A0D7B1D6017710740F4A701F4
:1013700096018AE892E00E94BB022196F2CF8AE8A9
:1013800092E00E94A101692D70E080E090E0DF9181
:10139000CF911F910F91FF90EF90DF90CF90BF9072
:1013A000AF909F900C94D2170F9386E08093190111
:1013B00085E080931A0160917A0270917B0280919E
:1013C0007C0290917D0200912C0120E044EF0E946C
:1013D000930964E670E080E090E00E94D21760918B
:1013E0008602709187028091880290918902009113
:1013F0002C0120E044EF0E94930964E670E080E055
:1014000090E00E94D21760918202709183028091D5
:1014100084029091850200912C0120E044EF0E940B
:10142000930964E670E080E090E00E94D21760913A
:101430007602709177028091780290917902009102
:101440002C0120E044EF0E94930964E670E080E004
:1014500090E00E94D21760917E0270917F0280918D
:1014600080029091810200912C0120E044EF0E94C3
:10147000930964E670E080E090E00E94D2176091EA
:1014800072027091730280917402909175020091C2
:101490002C0120E044EF0E9493090F9108956F9270
:1014A0007F928F929F92AF92BF92CF92DF92EF92F4
:1014B000FF920F931F93CF93DF931F92CDB7DEB7A9
:1014C0004B015C01142FF02E29830E94BB088093EE
:1014D000190183E080931A012981111101C01EE5D1
:1014E000211101C021E0612C712CC22ED12C6C1471
:1014F0007D04BCF40E2D2F2D412FC501B4010E9497
:1015000093096091720270917302809174029091BC
:1015100075022F2D412F0E9493098FEF681A780AC8
:10152000E6CF0F90DF91CF911F910F91FF90EF9039
:10153000DF90CF90BF90AF909F908F907F906F90F3
:1015400008956F927F928F929F92AF92BF92CF92A7
:10155000DF92EF92FF920F931F93CF93DF931F922F
:10156000CDB7DEB74B015C01142FF02E29830E940A
:10157000BB088093190182E080931A01298111111F
:1015800001C01EE5211101C021E0612C712CC22E89
:10159000D12C0E2D2F2D412FC501B4016C147D04CB
:1015A00094F40E9493096091720270917302809189
:1015B0007402909175022F2D412F0E9493098FEF95
:1015C000681A780AE6CF0E9493090F90DF91CF91B5
:1015D0001F910F91FF90EF90DF90CF90BF90AF9051
:1015E0009F908F907F906F9008958F929F92AF926F
:1015F000BF92EF92FF920F931F93CF93DF9300D090
:10160000CDB7DEB7809148020E947B084B015C0198
:1016100000912C011091490220914B0240914C0203
:10162000E0904A02EE2069F08E2D29834A830E94C1
:101630000C09F82E8E2D0E941709E82E29814A8167
:1016400002C0E02EF12C111102C020E004C01130C4
:1016500039F40E2D2F2DC501B4010E94930928C025
:10166000123031F40F2DC501B4010E94A10A20C02F
:10167000133031F40F2DC501B4010E944F0A18C078
:10168000143031F40F2DC501B4010E94200910C09F
:10169000153071F40F900F90DF91CF911F910F9142
:1016A000FF90EF90BF90AF909F908F900C94D409D3
:1016B0000F900F90DF91CF911F910F91FF90EF90BE
:1016C000BF90AF909F908F9008951F93CF93DF931B
:1016D000182FC82FD0E0FE01EE5EFE4F80810E94E1
:1016E0002D19FE01EF5BFD4F90819817E9F0909165
:1016F0001C01813061F4808321E030E0012E01C0C3
:10170000220F0A94EAF7292B20931C0111C01082A2
:1017100021E030E0012E01C0220F0A94EAF7209563
:10172000292320931C0103C081E0913009F080E05F
:10173000DF91CF911F9108951F93CF93DF93C2E163
:10174000D1E010E08991833619F0812F0E94650B5A
:101750001F5F1630B9F7DF91CF911F910895EF9277
:101760000F9380910A01813019F580910B01882334
:1017700009F489C160917E0270917F02809180029C
:1017800090918102E0902C0100E021E040E00E9475
:10179000200960917202709173028091740290919D
:1017A0007502E0902C0121E040E00E942009C1C0B8
:1017B000823009F468C190910B01833009F046C072
:1017C000992309F460C18091360281110BC06091A8
:1017D0007E0270917F02809180029091810200913F
:1017E0002C0118C020912B01220F6091760270917C
:1017F0007702809178029091790200E240E00E94A5
:10180000930960917E0270917F0280918002909195
:10181000810200E120E040E00E94930910920B0158
:1018200010923E0280916E0290916F02A091700220
:10183000B091710283309105A105B10529F0089797
:10184000A105B10509F01FC161E012C1843041F466
:10185000992309F418C110920B0110923E02C8C0DE
:10186000853009F06BC0992309F40DC180916E0297
:1018700090916F02A0917002B09171028330910536
:10188000A105B10521F00897A105B10551F461E06A
:10189000809110010E94F71861E080910F010E9471
:1018A000F71860917E0270917F0280918002909182
:1018B0008102E0902C0100E021E040E00E9420093C
:1018C000609172027091730280917402909175021E
:1018D000E0902C0121E040E00E9420098091360236
:1018E00081110BC060917E0270917F028091800215
:1018F0009091810200912C0118C020912B01220FA0
:1019000060917602709177028091780290917902CD
:1019100000E240E00E94930960917E0270917F0294
:10192000809180029091810200E120E040E00E94DD
:10193000930910920B0110923E02A5C0863019F453
:10194000911182C0A0C0873091F4992309F49BC003
:10195000609172027091730280917402909175028D
:1019600000912C0120E040E00E9493096DC0883076
:1019700009F056C0992309F486C060917E027091E7
:101980007F028091800290918102E0902C0100E022
:1019900021E040E00E942009609176027091770278
:1019A0008091780290917902E0902C0121E040E052
:1019B0000E942009609172027091730280917402FA
:1019C00090917502E0902C0121E040E00E942009F6
:1019D00060917E0270917F028091800290918102DD
:1019E000E0902C0121E040E00E94200910920B01C0
:1019F00080916E0290916F02A0917002B09171027D
:101A000083309105A105B10521F00897A105B10525
:101A1000D1F561E0809110010E94F71861E02DC0BE
:101A2000992389F16091720270917302809174021E
:101A30009091750200912C0120E040E00E949309F2
:101A4000109240020E949C0B10920B0180916E023A
:101A500090916F02A0917002B09171028330910554
:101A6000A105B10521F00897A105B10561F460E079
:101A7000809110010E94F71860E080910F010F9192
:101A8000EF900C94F7180F91EF900895EF920F9349
:101A900080910A01813071F480910B01882309F44F
:101AA0001BC16091760270917702809178029091CB
:101AB000790261C0823009F40FC190910B0183302B
:101AC00039F5992309F408C160917E0270917F0273
:101AD000809180029091810200912C0120E040E0F1
:101AE0000E94930910920B0180916E0290916F02F7
:101AF000A0917002B091710283309105A105B105EA
:101B000029F00897A105B10509F0E6C061E0D9C048
:101B1000843041F4992309F4DFC010920B01109234
:101B20003E028FC0853009F040C0992309F4D4C02B
:101B300080916E0290916F02A0917002B09171023B
:101B400083309105A105B10521F00897A105B105E4
:101B500051F461E0809110010E94F71861E08091DA
:101B60000F010E94F71860917E0270917F028091B0
:101B7000800290918102E0902C0100E021E040E0A1
:101B80000E94200960917202709173028091740228
:101B900090917502E0902C0121E040E00E94200924
:101BA00010920B0110923E0297C0863019F49111E9
:101BB00074C092C0873091F4992309F48DC060916C
:101BC000720270917302809174029091750200917B
:101BD0002C0120E040E00E9493095FC0883009F0AA
:101BE00048C0992309F478C060917E0270917F0209
:101BF0008091800290918102E0902C0100E021E030
:101C000040E00E94200960917602709177028091F5
:101C1000780290917902E0902C0121E040E00E944E
:101C20002009609172027091730280917402909108
:101C30007502E0902C0121E040E00E942009109202
:101C40000B0180916E0290916F02A0917002B09191
:101C5000710283309105A105B10521F00897A10516
:101C6000B105D1F561E0809110010E94F71861E0A3
:101C70002DC0992389F16091720270917302809155
:101C800074029091750200912C0120E040E00E94C6
:101C90009309109240020E949C0B10920B018091BC
:101CA0006E0290916F02A0917002B0917102833028
:101CB0009105A105B10521F00897A105B10561F4D1
:101CC00060E0809110010E94F71860E080910F01A0
:101CD0000F91EF900C94F7180F91EF900895EF92F9
:101CE0000F9380910A01813019F580910B018823AF
:101CF00009F479C16091860270918702809188020F
:101D000090918902E0902C0100E021E040E00E94E7
:101D10002009609172027091730280917402909117
:101D20007502E0902C0121E040E00E942009BFC034
:101D3000823009F458C190910B01833009F044C0FE
:101D4000992309F450C18091360281110BC0609132
:101D50007E0270917F0280918002909181020091B9
:101D60002C0118C020912B01220F609176027091F6
:101D70007702809178029091790200E240E00E941F
:101D8000930960917E0270917F0280918002909110
:101D9000810200E120E040E00E94930910920B01D3
:101DA00080916E0290916F02A0917002B0917102C9
:101DB00083309105A105B10529F00897A105B1056A
:101DC00009F011C161E004C1843041F4992309F4A0
:101DD0000AC110920B0110923E02BAC0853009F080
:101DE0006BC0992309F4FFC080916E0290916F023D
:101DF000A0917002B091710283309105A105B105E7
:101E000021F00897A105B10551F461E0809110011E
:101E10000E94F71861E080910F010E94F71860910D
:101E20007E0270917F028091800290918102E09009
:101E30002C0100E021E040E00E9420096091720244
:101E4000709173028091740290917502E0902C0160
:101E500021E040E00E9420098091360281110BC0F0
:101E600060917E0270917F02809180029091810248
:101E700000912C0118C020912B01220F6091760255
:101E800070917702809178029091790200E240E0AF
:101E90000E94930960917E0270917F02809180027E
:101EA0009091810200E120E040E00E9493091092AD
:101EB0000B0110923E0297C0863019F4911174C044
:101EC00092C0873091F4992309F48DC06091720219
:101ED00070917302809174029091750200912C01AF
:101EE00020E040E00E9493095FC0883009F048C0BC
:101EF000992309F478C060917E0270917F028091ED
:101F0000800290918102E0902C0100E021E040E00D
:101F10000E94200960917602709177028091780288
:101F200090917902E0902C0121E040E00E9420098C
:101F300060917202709173028091740290917502A7
:101F4000E0902C0121E040E00E94200910920B015A
:101F500080916E0290916F02A0917002B091710217
:101F600083309105A105B10521F00897A105B105C0
:101F7000D1F561E0809110010E94F71861E02DC059
:101F8000992389F1609172027091730280917402B9
:101F90009091750200912C0120E040E00E9493098D
:101FA000109240020E949C0B10920B0180916E02D5
:101FB00090916F02A0917002B091710283309105EF
:101FC000A105B10521F00897A105B10561F460E014
:101FD000809110010E94F71860E080910F010F912D
:101FE000EF900C94F7180F91EF9008958F929F92B5
:101FF000AF92BF92CF92DF92EF92FF920F93CF9367
:10200000DF93C82F6A017B012BE030E040E050E015
:1020100061E070E080E090E00E94E41FC1110E9446
:102020009C0B80906E0290906F02A0907002B09016
:10203000710255E0880C991CAA1CBB1C5A95D1F75B
:102040008C289D28AE28BF2860913B0270E080E07C
:1020500090E00E94D217C5E0D0E032E0C32E48E104
:10206000E42E41E0F42E08E020E0B501A40189E56A
:1020700092E00E94AC07882311F0219771F7DF915D
:10208000CF910F91FF90EF90DF90CF90BF90AF90E6
:102090009F908F900895EF920F9390910A018091F5
:1020A0000B01913029F5882309F487C060918602DD
:1020B000709187028091880290918902E0902C01B2
:1020C00000E021E040E00E94200960917A027091D6
:1020D0007B0280917C0290917D02E0902C0121E0B6
:1020E00040E00E94200910920B0110923E0265C050
:1020F000923019F5882309F460C010920B011092F8
:102100003E028091390290913A02019690933A02F0
:102110008093390280931F018091370280931E01C2
:102120004091200150912101609122017091230181
:1021300080E00F91EF900C94F60F9730E1F4882334
:10214000E1F14091200150912101609122017091B3
:10215000230180E00E94F60F609172027091730279
:10216000809174029091750200912C0120E040E072
:102170000E94930920C0882301F110923A02109224
:102180003902109238021092370210921F011092F9
:102190001E0160917202709173028091740290919D
:1021A000750200912C0120E040E00E9493091092FA
:1021B00040020E949C0B10920B010F91EF9008952A
:1021C000EF920F9390910A0180910B01913029F5C4
:1021D000882309F48AC060918602709187028091F9
:1021E000880290918902E0902C0100E021E040E01B
:1021F0000E942009609176027091770280917802A6
:1022000090917902E0902C0121E040E00E942009A9
:1022100010920B0110923E0268C0923031F5882373
:1022200021F010920B0110923E02809139029091A0
:102230003A028F3F91050CF058C0019690933A02F4
:102240008093390280931F018091370280931E0191
:102250004091200150912101609122017091230150
:1022600080E00F91EF900C94F60F9730E1F4882303
:10227000E1F1409120015091210160912201709182
:10228000230180E00E94F60F609172027091730248
:10229000809174029091750200912C0120E040E041
:1022A0000E94930920C0882301F110923A021092F3
:1022B0003902109238021092370210921F011092C8
:1022C0001E0160917202709173028091740290916C
:1022D000750200912C0120E040E00E9493091092C9
:1022E00040020E949C0B10920B010F91EF900895F9
:1022F000CF92EF92FF920F931F93CF93DF93809132
:102300006E0290916F0224E6289FE001299FD00D74
:10231000112440E052EC61E070E087EA92E00E9414
:10232000371ABE0168517C4F882777FD8095982F1A
:102330000E94D21760E671E087EA92E00E94841A58
:1023400040916E0250916F02609170027091710223
:102350002AE030E087EA92E00E947A1B81E00E9446
:102360005018BC01882777FD8095982F0E94B81FD0
:102370000E945D0860936A0270936B0280936C0206
:1023800090936D020091860210918702209188023D
:1023900030918902601771078207930729F485E15C
:1023A00090E0A0E0B0E004C086E190E0A0E0B0E002
:1023B0008093240190932501A0932601B0932701D7
:1023C00061E0809111010E94BE1861E080911101CD
:1023D0000E94F71880916E0290916F02A091700296
:1023E000B091710283309105A105B10521F00897E4
:1023F000A105B105C9F461E0809110010E94BE18E9
:1024000061E080910F010E94BE1860E08091100190
:102410000E94F71860E080910F010E94F71862E0B7
:1024200080910E010E94BE186AE671E087EA92E090
:102430000E94911A8AE892E00E9444018AE892E0A0
:102440000E94A1010E94D4096091860270918702C6
:10245000809188029091890200912C0120E040E057
:102460000E94930968E771E087EA92E00E94911A5E
:10247000C2E1D1E010E08881833609F453C062E004
:102480000E94BE1868E871E087EA92E00E94841A10
:102490004AE050E0688187EA92E00E94731B6DE891
:1024A00071E087EA92E00E94841A812F0E94650BF6
:1024B000682F70E04AE050E087EA92E00E94461BF5
:1024C000812F0E94650B811112C060918202709170
:1024D0008302809184029091850238E0E32E00E02F
:1024E00020E040E00E94200961E971E011C06091A4
:1024F000760270917702809178029091790228E0BB
:10250000E22E00E020E040E00E94200967E971E04F
:1025100087EA92E00E94911A6AEF70E080E090E012
:102520000E94D21721961F5F163009F0A4CF62EAED
:1025300071E087EA92E00E94911A63EB71E087EA0A
:1025400092E00E94841A68E089E592E00E944506C4
:102550008111BEC0609182027091830280918402D9
:1025600090918502C0E1EC2E00912B0120E040E02B
:102570000E94200964E971E087EA92E00E94911AC2
:1025800042E050E069E578E0809128010E9452160F
:102590000FE110E020E030E040E060E089E592E00B
:1025A0000E9460060FE110E020E030E040E061E0D2
:1025B00089E592E00E94600600916E0210916F0220
:1025C000209170023091710240E060E089E592E074
:1025D0000E94B40600E010E0980140E061E089E567
:1025E00092E00E94B40600916E0210916F02209159
:1025F00070023091710240E062E089E592E00E9451
:10260000B40600E010E0980140E063E089E592E064
:102610000E94B40600912401109125012091260109
:102620003091270140E064E089E592E00E94B40621
:1026300000916E0210916F02209170023091710230
:1026400040E065E089E592E00E94B40620916E02C8
:1026500030916F024091700250917102A8EEB3E088
:102660000E94E3200E94D21740916E0250916F02A7
:102670006091700270917102D5E0440F551F661F82
:10268000771FDA95D1F78091200190912101A091D7
:102690002201B0912301482B592B6A2B7B2B12E08E
:1026A000C12E01E5E02E02E0F02E08E020E089E5F1
:1026B00092E00E94AC0764E670E080E090E00E9447
:1026C000D217809150028823E9F11092500217C06E
:1026D00065EC71E087EA92E00E94911A60917602BF
:1026E000709177028091780290917902B0E1EB2E9F
:1026F00000912B0120E040E00E9420091ECF89E5D7
:1027000092E00E941508833049F447E452E06FE4F8
:1027100072E089E592E00E94DF07F1CF00912B0182
:10272000000F6091820270918302809184029091E7
:102730008502A8E1EA2E20E040E00E9420096FEE29
:1027400071E013C000912B01000F6091760270912F
:1027500077028091780290917902F8E1EF2E20E0E3
:1027600040E00E94200960E072E087EA92E00E9467
:10277000911A60E177E280E090E00E94D2178091A8
:102780002B01082F000F080F6091820270918302C5
:102790008091840290918502E0E2EE2E20E040E0FC
:1027A0000E94200964EF71E080E090E00E94D2175F
:1027B000609172027091730280917402909175021F
:1027C00000912C0120E040E00E949309DF91CF911D
:1027D0001F910F91FF90EF90CF90089589E592E0BF
:1027E0000E941D08F5E09695879577956795FA956F
:1027F000D1F70895EF920F93CF93C82F63EB71E059
:1028000087EA92E00E94841A6C2F89E592E00E9488
:102810004506811121C000912B01000F60918202B9
:10282000709183028091840290918502B8E1EB2E31
:1028300020E040E00E9420094AE050E06C2F87EA47
:1028400092E00E94731B61E971E087EA92E0CF9108
:102850000F91EF900C94911A65EC71E087EA92E089
:102860000E94911A00912B01000F609176027091E5
:1028700077028091780290917902A8E1EA2E20E017
:1028800040E00E942009CF910F91EF900895EF92C0
:102890000F93CF93DF938091470281110BC00E9469
:1028A000EE13AB01BC0181E0DF91CF910F91EF906E
:1028B0000C94F60F813031F4DF91CF910F91EF90AE
:1028C0000C94F50A823051F48091480280930A01F9
:1028D00091E090930B0180931B01D3C0833001F5ED
:1028E00080914802811102C060E003C0813071F420
:1028F00061E0809110010E94F71860E080910F0163
:10290000DF91CF910F91EF900C94F718823009F07E
:10291000B8C061E0809110010E94F71861E0EECF2D
:10292000843009F4AEC0853061F50E94EE13AB012E
:10293000BC012AE030E087EA92E00E94661B61E178
:1029400072E087EA92E00E94841AC7E4D2E082E053
:10295000CF34D80771F069914AE050E087EA92E0FD
:102960000E94731B61E172E087EA92E00E94841A80
:10297000EECF87EA92E0DF91CF910F91EF900C9428
:102980008D1A8630C1F49091480290933D02809157
:10299000490280933C0220914A0220933B029630E8
:1029A00011F40E94FA1380913D02893009F085E00C
:1029B0008093180166C0873009F063C08091480297
:1029C0008130A1F5809340028091490280933F02BB
:1029D0008130A9F400912B01000F60917602709173
:1029E00077028091780290917902D0E2ED2E21E079
:1029F00040E00E94200981E08093360242C082308C
:102A000009F03FC060918602709187028091880230
:102A100090918902C0E1EC2E00912B0121E040E071
:102A20000E94200981E0809335022BC01092400261
:102A300080913602882389F01092360220912B0172
:102A4000220F60917E0270917F02809180029091AE
:102A5000810200E240E00E949309809135028823C0
:102A600081F01092350260917E0270917F02809118
:102A700080029091810200E120912B0140E00E94B0
:102A80009309DF91CF910F91EF900895CF93DF934A
:102A900089E592E00E9415088330A1F447E452E0F2
:102AA0006FE472E089E592E00E94DF0780913702CF
:102AB00090913802019690933802809337020E94D9
:102AC0004714E6CF80913D02883059F480913C0252
:102AD000813019F40E94460D04C0823011F40E9426
:102AE0006F0E80913D02893061F480913C0281300B
:102AF00019F40E944B1007C0823029F40E94E010A4
:102B000002C00E94AF0B80910A01833009F040C0DF
:102B100080916E0290916F02A0917002B09171024B
:102B200083309105A105B10521F00897A105B105F4
:102B300079F5C0910C01D0910D0180910E010E9498
:102B40002D1990930D0180930C01C817D90701F13D
:102B50004AE050E0BC0187EA92E00E944E1B80915F
:102B60000C0190910D01892B99F4C4E0C0931B01D5
:102B70004091200150912101609122017091230127
:102B800080E00E94F60F81E080930B01C0930A0160
:102B9000DF91CF91089560912C0170E023E0409186
:102BA0002D018AE892E00E94960240E060E0809168
:102BB0002A010E9403036093860270938702809328
:102BC00088029093890240E060912A0180E00E948F
:102BD0000303609382027093830280938402909334
:102BE000850240912A0160E080E00E940303609327
:102BF0007E0270937F028093800290938102809185
:102C00002A01482F682F0E94030360937A02709371
:102C10007B0280937C0290937D0280912A0140E0A8
:102C2000682F0E940303609376027093770280936B
:102C300078029093790240E060E080E00E94030314
:102C40006093720270937302809374029093750282
:102C500080E090E00E94882290E0A0E0B0E08093C5
:102C60006E0290936F02A0937002B09371028091F4
:102C7000860290918702A0918802B0918902809388
:102C80006A0290936B02A0936C02B0936D02609104
:102C9000290189E592E00C9437068AE892E00C94C9
:102CA00030010895853008F04CC0E82FF0E0EE0FB9
:102CB000FF1FE25DFE4F718360838230E1F018F404
:102CC000813069F004C0833019F1843071F1809152
:102CD00069008C7F842B80936900E89A0895809125
:102CE0006900440F551F440F551F837F842B809329
:102CF0006900E99A08958091690034E0440F551FF6
:102D00003A95E1F78F7C842B80936900EA9A0895C5
:102D10008091690026E0440F551F2A95E1F78F73D3
:102D2000842B80936900EB9A089580916A0094E067
:102D3000440F551F9A95E1F78F7C842B80936A008E
:102D4000EE9A08951F920F920FB60F9211242F93AF
:102D50003F934F935F936F937F938F939F93AF9323
:102D6000BF93EF93FF93E0912E01F0912F0109950E
:102D7000FF91EF91BF91AF919F918F917F916F9153
:102D80005F914F913F912F910F900FBE0F901F9029
:102D900018951F920F920FB60F9211242F933F9305
:102DA0004F935F936F937F938F939F93AF93BF9353
:102DB000EF93FF93E0913001F09131010995FF917C
:102DC000EF91BF91AF919F918F917F916F915F91A3
:102DD0004F913F912F910F900FBE0F901F9018951C
:102DE0001F920F920FB60F9211242F933F934F9380
:102DF0005F936F937F938F939F93AF93BF93EF9363
:102E0000FF93E0913201F09133010995FF91EF9129
:102E1000BF91AF919F918F917F916F915F914F91F2
:102E20003F912F910F900FBE0F901F9018951F92FA
:102E30000F920FB60F9211242F933F934F935F93EE
:102E40006F937F938F939F93AF93BF93EF93FF9372
:102E5000E0913401F09135010995FF91EF91BF9117
:102E6000AF919F918F917F916F915F914F913F9122
:102E70002F910F900FBE0F901F9018951F920F92D9
:102E80000FB60F9211242F933F934F935F936F933D
:102E90007F938F939F93AF93BF93EF93FF93E091B3
:102EA0003601F09137010995FF91EF91BF91AF91F4
:102EB0009F918F917F916F915F914F913F912F9152
:102EC0000F900FBE0F901F9018951F920F920FB684
:102ED0000F9211242F933F938F939F93AF93BF93A0
:102EE00080919F029091A002A091A102B091A202B4
:102EF00030919E0223E0230F2D3720F40196A11D6F
:102F0000B11D05C026E8230F0296A11DB11D209317
:102F10009E0280939F029093A002A093A102B0937F
:102F2000A2028091A3029091A402A091A502B09167
:102F3000A6020196A11DB11D8093A3029093A40245
:102F4000A093A502B093A602BF91AF919F918F91DC
:102F50003F912F910F900FBE0F901F9018953FB784
:102F6000F8948091A3029091A402A091A502B0913F
:102F7000A60226B5A89B05C02F3F19F00196A11DFA
:102F8000B11D3FBF6627782F892F9A2F620F711DC1
:102F9000811D911D42E0660F771F881F991F4A957A
:102FA000D1F70895CF92DF92EF92FF92CF93DF9304
:102FB0006B017C010E94AF17EB01C114D104E10445
:102FC000F10489F00E9400200E94AF176C1B7D0B5A
:102FD000683E734090F381E0C81AD108E108F10817
:102FE000C851DC4FEACFDF91CF91FF90EF90DF9097
:102FF000CF900895789484B5826084BD84B5816053
:1030000084BD85B5826085BD85B5816085BDEEE6F0
:10301000F0E0808181608083E1E8F0E010828081CF
:1030200082608083808181608083E0E8F0E080813D
:1030300081608083E1E9F0E080818260808380812B
:1030400081608083E0E9F0E0808181608083E1EC51
:10305000F0E08081846080838081826080838081D1
:1030600081608083E3ECF0E0808181608083E0EC2C
:10307000F0E0808182608083E2ECF0E0808181601A
:103080008083EAE7F0E080818460808380818260D1
:1030900080838081816080838081806880830895BF
:1030A000823108F08251E82FF0E0E451FF4FE491C3
:1030B00080917B00E3FB222720F930E095E0220F8E
:1030C000331F9A95E1F78F7D822B80937B00E77009
:1030D0008091380120E4829FC0011124E82BE09305
:1030E0007C0080917A00806480937A0080917A00DD
:1030F00086FDFCCF809178002091790090E0922BA2
:10310000089590E0FC013197EF30F105B0F5E959F1
:10311000FF4F0C94DD20809180008F7703C0809159
:1031200080008F7D80938000089580918000877F4C
:10313000F9CF84B58F7702C084B58F7D84BD0895A3
:10314000809190008F7707C0809190008F7D03C0A1
:1031500080919000877F8093900008958091C000B7
:103160008F7703C08091C0008F7D8093C000089549
:103170008091C200877F8093C2000895CF93DF9330
:1031800090E0FC01E95EFE4F2491FC01EA5CFE4FF9
:103190008491882349F190E0880F991FFC01EF5832
:1031A000FE4FA591B4918D599E4FFC01C591D491CC
:1031B0009FB7611108C0F8948C91209582238C935D
:1031C000888182230AC0623051F4F8948C91322FA6
:1031D000309583238C938881822B888304C0F89454
:1031E0008C91822B8C939FBFDF91CF9108950F9389
:1031F0001F93CF93DF931F92CDB7DEB7282F30E018
:10320000F901E850FF4F8491F901E95EFE4F1491F6
:10321000F901EA5CFE4F04910023C9F0882321F0F4
:1032200069830E9481186981E02FF0E0EE0FFF1F93
:10323000ED59FE4FA591B4919FB7F8948C9161110F
:1032400003C01095812301C0812B8C939FBF0F90E9
:10325000DF91CF911F910F910895CF93DF93282F86
:1032600030E0F901E850FF4F8491F901E95EFE4F2B
:10327000D491F901EA5CFE4FC491CC2391F0811105
:103280000E948118EC2FF0E0EE0FFF1FEB5AFE4F6B
:10329000A591B4912C912D2381E090E021F480E060
:1032A00002C080E090E0DF91CF910895CF93DF934B
:1032B0001F92CDB7DEB76983DC01ED91FC910280EE
:1032C000F381E02D41E050E0BE016F5F7F4F099533
:1032D0000F90DF91CF910895CF93DF93EC018C8510
:1032E0009D8597FF05C082E00E949D1C9D878C876D
:1032F0008C859D85DF91CF91089583E00C94181FF4
:10330000FC018485958597FD06C082E00E94451CDE
:1033100090E00196089582E00E94451C90E0089597
:10332000FC018485958597FD05C02FEF3FEF35871C
:103330002487089582E00C949D1CCF93DF93EC01C9
:1033400080914401882331F083E00E94CE1C18163E
:10335000190634F081E090E09B838A8380E090E05E
:10336000DF91CF910895FC0120812E5F208342E4FC
:1033700050E06FE771E080E80C94691DFC01218149
:103380008081813A59F4213209F05CC047E050E075
:103390006DE371E080E00E94691D67C0813209F031
:1033A00051C0233289F4838190E0982F882732819D
:1033B000832BA0E0B0E08093390190933A01A09371
:1033C0003B01B0933C010FC0203239F467E070E05C
:1033D0008DE391E00E949A1D0AC0223221F482817D
:1033E0008093440104C02D7F203209F03EC08091BB
:1033F0003D0190913E01A0913F01B0914001803B81
:103400009440A105B10501F58091440180FD1CC0E7
:1034100080910008909101089093FF0A8093FE0A22
:1034200087E797E790930108809300082BE088E1F5
:1034300090E00FB6F894A895809360000FBE20939B
:10344000600013C080E0089588E10FB6F89480937F
:103450006000109260000FBEA8958091FE0A9091C6
:10346000FF0A909301088093000881E008952FEFF0
:103470003FEFFC013587248708951092AA0210922D
:10348000A90288EE93E0A0E0B0E08093AB029093B5
:10349000AC02A093AD02B093AE0287E192E09093AC
:1034A000A8028093A7028FEF9FEF9093B4028093BE
:1034B000B302089508950E94FA170E945A1A87EFDE
:1034C00092E00E94A51F0E947811C0E0D0E00E9407
:1034D00046152097E1F30E940000F9CF61157105B0
:1034E00081F0DB010D900020E9F7AD014150510959
:1034F000461B570BDC01ED91FC910280F381E02D1E
:10350000099480E090E008950C946E1ADC01ED912E
:10351000FC910190F081E02D099463E272E00C943B
:103520006E1A0F931F93CF93DF93EC010E946E1AD4
:103530008C01CE010E948D1A800F911FDF91CF91D7
:103540001F910F9108958F929F92AF92BF92CF9249
:10355000DF92EF92FF920F931F93CF93DF93CDB73C
:10356000DEB7A1970FB6F894DEBF0FBECDBF7C01CA
:10357000C42EE52FCB01D22E19A221E02D1510F07B
:103580002AE0D22E8E010F5D1F4F8D2C912CA12C85
:10359000B12C6C2D7E2FA50194010E949C208C2DB6
:1035A000D29E80191124015011098A3014F4805DD3
:1035B00001C0895CF8018083211531054105510561
:1035C00021F0C22EE32FCA01E4CFB801C7010E9447
:1035D0006E1AA1960FB6F894DEBF0FBECDBFDF9175
:1035E000CF911F910F91FF90EF90DF90CF90BF9000
:1035F000AF909F908F900895CF92DF92EF92FF92BD
:103600000F931F93CF93DF93EC016A017B01211588
:10361000310579F4E881F9810190F081E02D642F82
:10362000DF91CF911F910F91FF90EF90DF90CF909E
:1036300009942A303105E9F477FF1AC06DE20E943F
:10364000861A8C0144275527BA014C195D096E0969
:103650007F092AE0CE010E94A31A800F911FDF91FB
:10366000CF911F910F91FF90EF90DF90CF90089531
:103670002AE0B701A601CE01DF91CF911F910F91F2
:10368000FF90EF90DF90CF900C94A31A9A01AB01BA
:10369000662757FD6095762F0C94FC1A0F931F93A5
:1036A000CF93DF93EC019A01AB01662757FD60953C
:1036B000762F0E94FC1A8C01CE010E948D1A800F79
:1036C000911FDF91CF911F910F9108952115310521
:1036D00041F4DC01ED91FC910190F081E02D642F2B
:1036E00009940C94A31A9A01462F50E060E070E010
:1036F0000C94661B0F931F93CF93DF93EC010E94F2
:10370000661B8C01CE010E948D1A800F911FDF91E4
:10371000CF911F910F910895615030F02091F100E9
:10372000FC0120830196F8CF289884E6809300035B
:1037300008954091FB025091FC022091F9023091D2
:10374000FA0242175307B4F49091E8009570E1F340
:103750009091E80092FD19C08093F1008091FB02E6
:103760009091FC0201968F739927892B19F48EEFA3
:103770008093E8008091FB029091FC020196909367
:10378000FC028093FB0281E0089580E00895CF92CF
:10379000DF92EF92FF920F931F93CF93DF931F92CD
:1037A000CDB7DEB7082F162FF42E862F880F8E5F29
:1037B00099830E94991B83E00E94991BE02EC02EE2
:1037C0009981D92E8C2D8E19811798F4F601F7FE68
:1037D00002C0849101C080810E94991B082F80E063
:1037E0000E94991B8023FFEFCF1ADF0A8111EACFD5
:1037F00001C081E00F90DF91CF911F910F91FF9059
:10380000EF90DF90CF9008958091D70081608093F2
:10381000D70080EA8093D80089B5806189BD89B5D9
:10382000826089BD09B400FEFDCF61E070E080E0F8
:1038300090E00E94D2178091D8008F7C80618093A5
:10384000D8008091E000807F8093E0000895CF93BE
:10385000DF931F92CDB7DEB71982CE0101960E9489
:10386000B3190E948820BE016F5F7F4F0E94012024
:1038700089810F90DF91CF9108952FB7FC012083AC
:10388000F89467706093E9000895CF93DF931F92D7
:10389000CDB7DEB7682FCE0101960E943D1C809106
:1038A000F20099819FBF0F90DF91CF910895FF9211
:1038B0000F931F93CF93DF9300D0CDB7DEB7F62ED3
:1038C0008A019091FF02992311F057FF03C08FEFF7
:1038D0009FEF2BC0682FCE0101967A830E943D1C7A
:1038E0008091F20090E0A8017A81801791070CF492
:1038F000AC01EF2DF72FF40E84E6FE1639F0289870
:10390000809300039091F1009193F7CF41155105F9
:1039100021F08091F200882321F089818FBFCA01B4
:1039200004C08BE68093E800F8CF0F900F90DF91F2
:10393000CF911F910F91FF900895CF93DF931F9226
:10394000CDB7DEB741E050E0BE016F5F7F4F0E9410
:10395000571C019719F4898190E002C08FEF9FEF07
:103960000F90DF91CF910895CF93DF931F92CDB742
:10397000DEB7682FCE0101960E943D1C9091E800B1
:10398000892F807295FF04C09091F20080E4891B1A
:1039900099819FBF0F90DF91CF9108956F927F9291
:1039A0008F929F92AF92BF92CF92DF92EF92FF924F
:1039B0000F931F93CF93DF931F92CDB7DEB7782E6F
:1039C0007B01C42EB52E8091FF02882369F0042F5D
:1039D000152F8AEFD82E872D8072982E9AE3A92E64
:1039E000872D8074882E11C08FEF9FEF57C0872DD1
:1039F0000E94B41C682E81110CC0DA94A9F361E016
:103A000070E080E090E00E94D2170115110579F76F
:103A10003BC0282F30E0021713070CF4602E672DEF
:103A2000CE0101960E943D1C8091E80085FF29C0CF
:103A3000262D30E0021B130B992039F06A948FEF8A
:103A40006816B1F01092F100F9CFF701862D77FEDC
:103A500007C0815058F094919093F1003196F9CFBE
:103A6000815020F091919093F100FACFE20EF31E75
:103A70008091E80085FF0FC00115110511F4811038
:103A80000AC089818FBFC1CF5D9884E6809301030E
:103A90008C2D9B2D03C0A092E800F3CF0F90DF91F7
:103AA000CF911F910F91FF90EF90DF90CF90BF903B
:103AB000AF909F908F907F906F9008951092E90043
:103AC0001092FC021092FB029093FA028093F9028A
:103AD0000895CF92DF92FF920F931F93CF93DF93BE
:103AE00000D0CDB7DEB7F82E8A016B0101151105A4
:103AF000B1F0F601F7FE02C0849101C080814983D4
:103B00005A830E94991B01501109FFEFCF1ADF0A57
:103B100049815A818111EACF8FEF9FEF01C0CA011D
:103B20000F900F90DF91CF911F910F91FF90DF9039
:103B3000CF9008951F93CF93DF931F92CDB7DEB739
:103B4000162F2091E80022FFFCCF612F79830E947D
:103B50008C1B8BEF8093E800812F7981972F0F903A
:103B6000DF91CF911F9108951F920F920FB60F9280
:103B70001124DF92EF92FF920F931F932F933F93A5
:103B80004F935F936F937F938F939F93AF93BF9365
:103B9000EF93FF93CF93DF93CDB7DEB76C97DEBF84
:103BA000CDBF1092E9008091E80083FF23C168E057
:103BB000CE0145960E948C1B82EF8093E8003D89E0
:103BC00037FF05C08091E80080FFFCCF03C08EEF77
:103BD0008093E800832F807609F0F0C02E894F890A
:103BE000D88C21110CC0303829F48091FE028093CA
:103BF000F10002C01092F1001092F100F4C0842F85
:103C000090E09D29213049F43111EDC0019709F070
:103C1000EAC08091FE028D7F0AC0233059F4311131
:103C2000E2C0019709F0DFC08091FE0282608093BC
:103C3000FE02D9C0253041F48091E80080FFFCCF1E
:103C400040684093E300CFC0263009F08DC0EB8C74
:103C5000FC8C22E0D2122CC080E090E00E945E1D1D
:103C60000E94271C99E08E010F5F1F4FF801292F3A
:103C700011922A95E9F79983DA8291E09E8390EA7E
:103C800098879AEF99872091FB023091FC02275F79
:103C90003F4F3C832B838D83C7010E945E1D49E00B
:103CA00050E0B80180E00E94691D0E94271C9BC063
:103CB000C7010E945E1D0E948820BE016B5E7F4F7F
:103CC0000E942A20009719F00CF08DC090C081E06E
:103CD000D8120EC08B8D9C8D089719F481E08093CB
:103CE000F8028091F80281112FC063ED71E031C0BC
:103CF000E3E0DE127CC08F89882349F1823029F409
:103D000040E860E181EF91E01CC0813029F440E897
:103D10006BE085EE91E015C0833009F068C00E9429
:103D200088208E010F5F1F4FB8010E944920F801C3
:103D300001900020E9F73197E01BF10B40E06E2F76
:103D4000C8010E94C71B4DC061EC71E002C062E077
:103D500072E06115710509F44AC0FB01449150E01D
:103D600080E80E94691D3FC0273009F440C0283018
:103D700021F481E08093F10036C02930A1F5337041
:103D8000B1F5E6E4F1E081E021E036E390819923AA
:103D900061F08093E9002093EB0091919093EC0007
:103DA0003093ED008F5F873089F78EE78093EA00CC
:103DB0001092EA008F898093FF0215C08B8D9C8D35
:103DC0000E945E1D898D811105C0CE0145960E941D
:103DD000BE1907C00E948820BE016B5E7F4F0E9403
:103DE0006820882321F08EEF8093E80003C081E2F1
:103DF0008093EB006C960FB6F894DEBF0FBECDBF7C
:103E0000DF91CF91FF91EF91BF91AF919F918F91F2
:103E10007F916F915F914F913F912F911F910F91E2
:103E2000FF90EF90DF900F900FBE0F901F901895AE
:103E30008093E9008091F200882319F08AE380934F
:103E4000E80008951F920F920FB60F9211242F933E
:103E50003F934F935F936F937F938F939F93AF9312
:103E6000BF93CF93EF93FF93C091E1008091E10066
:103E7000837F8093E1008093E100C3FF0FC0109225
:103E8000E90081E08093EB001092EC0082E38093E4
:103E9000ED001092FF0288E08093F000C2FF19C08D
:103EA00083E00E94181F80910103882339F08091DC
:103EB0000103815080930103882389F180910003DD
:103EC000882339F080910003815080930003882378
:103ED00041F1C4FF10C08091E2008E7E816080932A
:103EE000E2008091E1008F7E8093E1008091FD02ED
:103EF0008E7E806111C0C0FF16C08091E2008E7E70
:103F000080618093E2008091E1008E7E8093E100E9
:103F10008091FD028E7E81608093FD0204C05D9AD7
:103F2000CDCF289AD6CFFF91EF91CF91BF91AF918E
:103F30009F918F917F916F915F914F913F912F91C1
:103F40000F900FBE0F901F9018951092FF021092C5
:103F5000FE021092FD020E94041CE1EEF0E080815E
:103F60008E7E80838DE08093E200559A209A08959A
:103F7000611571058105910511F00C947822089561
:103F8000CF93DF9300D000D0CDB7DEB79B01AC015B
:103F9000611571058105910569F069833A834B8349
:103FA0005C830E94732229813A814B815C810E944B
:103FB000BE2003C060E070E0CB010F900F900F9027
:103FC0000F90DF91CF910895CF92DF92EF92FF9201
:103FD0006B017C01621773078407950764F4CA01BB
:103FE000B9016C197D098E099F090E94C01F6C0DD3
:103FF0007D1D8E1D9F1DFF90EF90DF90CF90089547
:104000000895EF92FF920F931F93CF93DF937B015D
:10401000FC01C281D38100E010E0209781F0E881AB
:10402000F9810280F381E02DB701CE01099597FD5A
:1040300008C0080F191F0884D985C02DEECFC8010C
:1040400002C08FEF9FEFDF91CF911F910F91FF90F3
:10405000EF9008950F931F93CF93DF938B01FC0193
:10406000C281D381209771F0E881F9810480F581C4
:10407000E02DB801CE010995009731F40884D98567
:10408000C02DF0CF80E090E0DF91CF911F910F9194
:1040900008950F931F93CF93DF938B01FC01C2818F
:1040A000D381209771F0E881F9810680F781E02DB6
:1040B000B801CE010995080F111D0884D985C02DBE
:1040C000F0CFF8011082DF91CF911F910F910895E9
:1040D0000F931F93CF93DF938B01FC01C281D38198
:1040E000209771F0E881F9810190F081E02DB8010D
:1040F000CE010995811106C00884D985C02DF0CF65
:1041000080E001C081E0DF91CF911F910F91089570
:104110008091060381110DC082E08093020384E048
:1041200080930303109205031092040381E08093AF
:10413000060382E093E00895A1E21A2EAA1BBB1B9E
:10414000FD010DC0AA1FBB1FEE1FFF1FA217B30763
:10415000E407F50720F0A21BB30BE40BF50B661F79
:10416000771F881F991F1A9469F76095709580953D
:1041700090959B01AC01BD01CF010895052E97FBE1
:104180001EF400940E94D52057FD07D00E949C2069
:1041900007FC03D04EF40C94D520509540953095F3
:1041A00021953F4F4F4F5F4F0895909580957095A3
:1041B00061957F4F8F4F9F4F0895EE0FFF1F059022
:1041C000F491E02D09940E94EE20A59F900DB49FDC
:1041D000900DA49F800D911D11240895A29FB00100
:1041E000B39FC001A39F700D811D1124911DB29F2B
:1041F000700D811D1124911D0895CF93DF9382309E
:10420000910510F482E090E0E0911003F091110329
:1042100020E030E0A0E0B0E0309739F140815181FA
:1042200048175907B8F04817590771F482819381EC
:10423000109729F013969C938E9312972CC090930D
:1042400011038093100327C02115310531F0421767
:10425000530718F0A901DB0101C0EF019A01BD016C
:10426000DF010280F381E02DD7CF21153105F9F070
:10427000281B390B2430310580F48A819B8161151C
:10428000710521F0FB019383828304C09093110395
:1042900080931003FE01329644C0FE01E20FF31F2B
:1042A0008193919322503109398328833AC0209118
:1042B0000E0330910F03232B41F420910201309122
:1042C000030130930F0320930E03209100013091DE
:1042D00001012115310541F42DB73EB7409104018C
:1042E00050910501241B350BE0910E03F0910F0353
:1042F000E217F307A0F42E1B3F0B2817390778F0BD
:10430000AC014E5F5F4F2417350748F04E0F5F1F1B
:1043100050930F0340930E038193919302C0E0E00A
:10432000F0E0CF01DF91CF910895CF93DF93009715
:1043300009F487C0FC01329713821282C0911003E6
:10434000D0911103209781F420813181280F391FEA
:1043500080910E0390910F038217930779F5F093E4
:104360000F03E0930E036DC0DE0120E030E0AE17D6
:10437000BF0750F412964D915C9113979D01411522
:10438000510509F1DA01F3CFB383A2834081518152
:10439000840F951F8A179B0771F48D919C9111973B
:1043A000840F951F02969183808312968D919C9124
:1043B0001397938382832115310529F4F093110318
:1043C000E09310033EC0D9011396FC93EE9312972D
:1043D0004D915D91A40FB51FEA17FB0779F4808119
:1043E0009181840F951F0296D90111969C938E930B
:1043F0008281938113969C938E931297E0E0F0E074
:104400008A819B81009719F0FE01EC01F9CFCE0162
:10441000029628813981820F931F20910E033091DB
:104420000F032817390769F4309729F41092110304
:104430001092100302C013821282D0930F03C09314
:104440000E03DF91CF9108958F929F92AF92BF920A
:10445000CF92DF92EF92FF92CF93DF93EC016881CE
:1044600079818A819B81611571058105910521F40E
:1044700064E279ED8BE597E02DE133EF41E050E028
:104480000E94BE2049015A019B01AC01A7EAB1E498
:104490000E94E3206B017C01ACEEB4EFA501940116
:1044A0000E949322C60ED71EE81EF91EF7FE06C014
:1044B00081E0C81AD108E10880E8F80AC882D982E8
:1044C000EA82FB82C701B6019F77DF91CF91FF900F
:1044D000EF90DF90CF90BF90AF909F908F90089516
:1044E0000E942422089586E091E00E9424220895EB
:1044F000609306017093070180930801909309016E
:104500000895DC0101C06D9341505040E0F70895DB
:10451000F999FECF92BD81BDF89A992780B508958B
:10452000B7FF0C94E3200E94E320821B930B0895B5
:1045300012E0CAE0D2E004C0FE010E94DF20229611
:0A454000CC30D107C9F7F894FFCF83
:10454A0000001203800001000000080101000406B7
:10455A0005170B0A6363636305000000000000008F
:10456A001F0000001500000004113208200851162F
:10457A00511651165116511601FFFFFFFF00E100B7
:10458A00000000000000C180810000004D6F6E74C1
:10459A006F6E204D6573736167652053656E740095
:1045AA004E6F64652049443A20004E656F70697801
:1045BA00656C2054657374002D2D2D2D2D496E7058
:1045CA007574732D2D2D2D0050696E2300203D200A
:1045DA0000202D204F4B00202D205052455353458B
:1045EA0044002D2D2D2D2D43616E204275732D2DE6
:1045FA002D2D0043414E2D42555320537461727440
:10460A0075703A20004E6F7420476F6F642C2063D8
:10461A006865636B20796F75722070696E232061FB
:10462A006E6420636F6E6E656374696F6E73004D9E
:10463A0065737361676520526563656976656400B1
:10464A004E6F7468696E6720526563656976656442
:10465A00002C000000000056199D19801990196C51
:10466A00197D190D0A006E616E00696E66006F761B
:04467A0066002E00A8
:00000001FF
