:100000000C9405010C9458090C9431090C940A09BC
:100010000C94E3080C942D010C942D010C94BC0855
:100020000C942D010C942D010C94830D0C94F50D62
:100030000C942D010C942D010C942D010C942D0188
:100040000C942D010C942D010C942D010C942D0178
:100050000C942D010C942D010C942D010C9472081C
:100060000C942D010C942D010C942D010C942D0158
:100070000C942D010C942D010C942D010C942D0148
:100080000C942D010C942D010C942D010C942D0138
:100090000C942D010C942D010C942D010C942D0128
:1000A0000C942D010C942D010C942D01A0046C04D2
:1000B000EA047004730476047A047D0481048404E1
:1000C00087048A048D049104950499049C0486068F
:1000D000890678067C068206AA06AA06AA068D0666
:1000E000910695069B069F06AA06A5060706050427
:1000F0000100080A0B0C0D090408020110408040A1
:10010000102040804080080204018040201002013D
:100110001080102040402000000000250028002B07
:10012000002E00310004040404040304050202024A
:100130000204030202020206060606060604040280
:100140000202040400000000240027002A002D0001
:100150003000000000002300260029002C002F00A2
:100160000000000200090F0000030401000C000061
:100170000000000000000000000000000000000877
:100180000B0002020201000904000001020200004B
:1001900005240010010524010101042402060524A0
:1001A0000600010705810310004009040100020A4E
:1001B000000000070502024000000705830240001E
:1001C000000403090441726475696E6F204C4C434E
:1001D0000041726475696E6F204C656F6E61726468
:1001E0006F00120100020000004041233680000130
:1001F0000102030112010002EF0201404123368097
:100200000001010203019D19831A11241FBECFEFC3
:10021000DAE0DEBFCDBF22E0A8E0B2E001C01D926F
:10022000A43EB207E1F712E0A0E0B1E0EEE3F9E3AB
:1002300002C005900D92A830B107D9F711E0C4E0D3
:10024000D1E004C02197FE010E94931AC330D10768
:10025000C9F70E9432100C94921C0C9400001F935A
:10026000CF93DF93182FCAE7D2E060E088890E941D
:100270001B0783E00E947F09812F0E947F0980E095
:100280000E947F09182F61E088890E941B07812F37
:10029000DF91CF911F910895EF92FF920F931F93DB
:1002A000CF93DF931F92CDB7DEB7082F162F8AE7C3
:1002B000E82E82E0F82E60E0F701808949830E94F1
:1002C0001B0785E00E947F09802F0E947F09812FF4
:1002D0000E947F094981842F0E947F0961E0F70114
:1002E00080890F90DF91CF911F910F91FF90EF9038
:1002F0000C941B07CF93C82F482F60EE8FE00E940D
:100300004C018FE00E942F01807E91E08C1301C090
:1003100090E0892FCF9108950F931F93CF93DF9390
:10032000082F162FCAE7D2E060E088890E941B07D9
:1003300082E00E947F09802F0E947F09812F0E9406
:100340007F0961E08889DF91CF911F910F910C9413
:100350001B07CF92DF92FF920F931F93CF93DF93F0
:100360001F92CDB7DEB7F82E162F042F60E08091D4
:100370008A0279830E941B0782E00E947F098F2DE9
:100380000E947F09F12EC12E7981D72E8C2D8F19D5
:10039000801730F4F60181916F010E947F09F6CF3A
:1003A00061E080918A020F90DF91CF911F910F91B0
:1003B000FF90DF90CF900C941B070F931F93CF9368
:1003C000DF9300D000D0CDB7DEB76130B9F42C8315
:1003D0003B838A0122273327602F6C71902F937003
:1003E00048E0649F900D112498609A83980175E00D
:1003F000369527957A95E1F729830DC0B90193E0E9
:10040000769567959A95E1F769832295220F207E6C
:100410002A831C821B8244E0BE016F5F7F4F0E94D3
:10042000A9010F900F900F900F90DF91CF911F9126
:100430000F910895EF92FF920F931F93CF93DF9345
:100440001F92CDB7DEB7182FF62EE42E60E0809114
:100450008A0279830E941B0783E00E947F09812F13
:100460000E947F090F2D7981172FF12CFE1459F06E
:10047000F8E0FF1641F080E00E947F09F8018193C7
:100480008F01F394F3CF61E080918A020F90DF91A6
:10049000CF911F910F91FF90EF900C941B070F933A
:1004A0001F93CF93DF9300D000D0CDB7DEB7182FC6
:1004B00010927A0210927B0210927C0210927D02BE
:1004C00010927E0244E0BE016F5F7F4F0E941A02CD
:1004D0008A819981482F50E065E0559547956A9546
:1004E000E1F728E0929F400D511D1124052E000CCC
:1004F000660B770B40937B0250937C0260937D02E6
:1005000070937E0283FF29C092E0440F551F661F3F
:10051000771F9A95D1F78370480F511D611D711D8A
:10052000762F652F542F44278B81480F511D611D55
:10053000711D762F652F542F44278C81480F511D34
:10054000611D711D40937B0250937C0260937D027C
:1005500070937E0281E080937A028FEF810F0E9478
:100560002F01082F84E0810F0E942F01482F03FFE5
:1005700004C081E08093880202C0109288024F700C
:1005800040937F0260E872E085E0810F0E941A02CA
:100590000F900F900F900F90DF91CF911F910F91BF
:1005A00008950F931F93CF93DF93CDB7DEB72997AD
:1005B0000FB6F894DEBF0FBECDBF8091B30290910D
:1005C000B402892B09F4A0C00E9487070091B802E9
:1005D0001091B9022091BA023091BB02DC01CB012B
:1005E000801B910BA20BB30BC297A105B10560F361
:1005F000F8948091AE029091AF029A838983E09142
:10060000B302F091B402DF01119680818987909145
:10061000B102E091BC02F091BD028091BE0291FF57
:100620002EC09081982B98879081809589238F8305
:100630008F818C8388E08B8358856F8149853B81CE
:100640002C8189819A81508347FD252F3A952083FB
:10065000262F39F0441F00C000006083000000C056
:10066000F2CF38E04D9160830000019761F7F0937D
:10067000BD02E093BC0249873B832C8338C0908144
:10068000982B98879081809589238F838F818E8383
:1006900088E08D8358856F8149853D812E818981D0
:1006A0009A81508347FD252F00C000C0208300C0E1
:1006B00000C000C000C000C060830000262F3A9533
:1006C00041F0441F000000C000C000C000C000C0D6
:1006D000E8CF38E04D9100C0608300C0019709F772
:1006E000F093BD02E093BC0249873D832E839A8339
:1006F000898378940E9487076093B8027093B90247
:100700008093BA029093BB0229960FB6F894DEBF8D
:100710000FBECDBFDF91CF911F910F9108958F92A2
:100720009F92AF92BF92CF92DF92EF92FF924B01D6
:10073000AA24BB24F82DC52ED62EE72EFF24EC2D9F
:10074000342F2091B202222361F0829E40011124B5
:10075000F92DC29E60011124ED2D429FA0011124AC
:10076000352FAC01440F551F840F951F4091B302E4
:100770005091B402840F951F2091B502DC01A20FA5
:10078000B11DFC932091B602DC01A20FB11DEC93C8
:100790002091B702FC01E20FF11D3083FF90EF9032
:1007A000DF90CF90BF90AF909F908F900895BC0145
:1007B000009791F0FC0101900020E9F73197AF011B
:1007C000481B590BE0912A02F0912B020280F38121
:1007D000E02D8AE292E0099480E090E008958F9203
:1007E0009F92AF92BF920F931F93CF93DF93CDB79A
:1007F000DEB7A1970FB6F894DEBF0FBECDBF19A22A
:10080000423008F44AE08E010F5D1F4F842E912C78
:10081000A12CB12CA50194010E94611CE62FB90105
:10082000CA0101501109EA3014F4E05D01C0E95C2D
:10083000D801EC93232B242B252B61F7C8010E94B0
:10084000D703A1960FB6F894DEBF0FBECDBFDF91E0
:10085000CF911F910F91BF90AF909F908F9008956F
:10086000CF93DF930E94D703EC018BE591E00E94C8
:10087000D7038C0F9D1FDF91CF910895CF93DF9306
:10088000C82F60E080918A020E941B0780EC0E94C2
:100890007F0961E080918A020E941B076AE070E094
:1008A00080E090E00E94AC0780E80E947A01D82F97
:1008B0006AE070E080E090E0D11186C00E94AC0751
:1008C0004C2F50E0FA013197E131F10508F078C082
:1008D000EA5AFF4F0C94931AC7E8DFEF6FE133C079
:1008E000C7E0DAEB79C0C5E8D1EF76C0C7E0DEEB50
:1008F00069E029C0C7E8DFEF02C0C7E8DAEF67E0C8
:1009000022C0C7E8DFEF0BC0C7E0DEEB08C0C7E0DE
:10091000DDEA05C0C7E8DAEF02C0C6E8D0EF63E061
:1009200012C0C7E8DAEF61E00EC0C5E8D1EF61E4BC
:100930000AC0C6E8D0EF02C0C2E8D0ED60E003C054
:10094000C7E8DFEF6FE38AE20E948C016D2F89E236
:100950000E948C016C2F88E20E948C016AE070E09A
:1009600080E090E00E94AC07C0E360E08C2F0E9422
:100970008C0160E080E18C0F0E948C0160E080E2DD
:100980008C0F0E948C01CF5FCE3379F760E080E658
:100990000E948C0160E080E70E948C0163E08BE2A2
:1009A0000E948C0144E064E680E60E944C0140E035
:1009B00060E680E70E944C0180E00E947A01D82F17
:1009C0006AE070E080E090E00E94AC078D2FDF913C
:1009D000CF910895C7E8DFEF6FE0B5CF0F931F9376
:1009E000CF93DF9300E010E080E50E942F01982F65
:1009F000987083FD02C0C1E502C0C0E092E00F5FC5
:100A00001F4F923021F40233110571F747C00233B2
:100A1000110509F443C040917F0260E872E085E06F
:100A20008C0F0E94A90180918802813029F4809165
:100A30007F02806480937F0260917F0284E08C0F4C
:100A40000E948C0120917B0230917C0240917D02BA
:100A500050917E0260917A028C2F0E94DD01C1507C
:100A600048E068E08C2F0E944C0100E010E00F5F2E
:100A70001F4F8C2F0E942F01D82F61E070E080E083
:100A800090E00E94AC07D3FF04C00233110579F750
:100A900007C00233110521F080E003C086E001C0E9
:100AA00087E0DF91CF911F910F9108951F93CF930E
:100AB000DF93CAE7D2E060E088890E941B0780EAE2
:100AC0000E947F0980E00E947F09182F61E08889D9
:100AD0000E941B07812FDF91CF911F9108950E94E3
:100AE000560580FF06C081E60E944F0240E061E0AB
:100AF00007C081FF1CC081E70E944F0240E062E016
:100B00008CE20E944C0180917F0280932902A0E830
:100B1000B2E0E1E2F2E090E09F012152324028177A
:100B200039071CF42D912193F7CF80E0089510929E
:100B3000290284E008950F931F93CF93DF9300D091
:100B400000D0CDB7DEB7082F9A01AB016AE070E0A4
:100B500080E090E029833A834B835C830E94AC075A
:100B600080E80E947A01182F29813A814B815C81AB
:100B7000882329F06AE070E080E090E029C002302C
:100B800099F038F4002369F00130C1F460E084E0AA
:100B900013C0043079F058F0053081F460E088E14A
:100BA0000BC060E080E008C060E088E005C060E065
:100BB00080E102C060E084E10E94DD0180E00E94EB
:100BC0007A01182F6AE070E080E090E0112321F0B4
:100BD0000E94AC07812F03C00E94AC0780E00F90F9
:100BE0000F900F900F90DF91CF911F910F9108956B
:100BF000CF93DF93D82F6AE070E080E090E00E940E
:100C0000AC0780E80E947A01C82F882329F06AE0A7
:100C100070E080E090E01DC0D11107C02FE130E00E
:100C200040E050E060E080E208C0D13041F42FE1C4
:100C300030E040E050E060E084E20E94DD0180E0CE
:100C40000E947A01C82F6AE070E080E090E0CC2337
:100C500021F00E94AC078C2F03C00E94AC0780E0FB
:100C6000DF91CF910895CF93DF931F92CDB7DEB779
:100C70006983DC01ED91FC910280F381E02D41E07C
:100C800050E0BE016F5F7F4F09950F90DF91CF91CC
:100C9000089583E08093E9008091F200882319F0A1
:100CA0008AE38093E8000895FC018485958597FD8B
:100CB0000BC09FB7F89482E08093E9008091F20026
:100CC0009FBF90E0019608959FB7F89482E08093CB
:100CD000E9008091F2009FBF90E0089590E0FC0150
:100CE0003197EF30F105B0F5E959FF4F0C94931AA5
:100CF000809180008F7703C0809180008F7D8093EA
:100D00008000089580918000877FF9CF84B58F7728
:100D100002C084B58F7D84BD0895809190008F7747
:100D200007C0809190008F7D03C080919000877FE5
:100D30008093900008958091C0008F7703C08091C8
:100D4000C0008F7D8093C00008958091C200877F8E
:100D50008093C2000895089581E080930802089569
:100D6000CF93DF931F92CDB7DEB7FC0184859585C5
:100D700097FD05C02FEF3FEF358724870BC0CE01CD
:100D800001960E94590D019719F4898190E002C0E3
:100D90008FEF9FEF0F90DF91CF9108950F931F93E7
:100DA000CF93DF931F92CDB7DEB78C01FC01848512
:100DB000958597FF0EC0CE0101960E94590D0197AF
:100DC00019F4298130E002C02FEF3FEFF801358799
:100DD0002487F801848595850F90DF91CF911F912D
:100DE0000F910895CF93DF93282F30E0F901E05A57
:100DF000FE4F8491F901E850FF4FD491F901EB5D6A
:100E0000FE4FC491CC2391F081110E946E06EC2F0D
:100E1000F0E0EE0FFF1FEE5AFE4FA591B491EC915A
:100E2000ED2381E090E021F480E002C080E090E0DA
:100E3000DF91CF9108951F93CF93DF93282F30E058
:100E4000F901E05AFE4F8491F901E850FF4FD49127
:100E5000F901EB5DFE4FC491CC23C9F0162F81112F
:100E60000E946E06EC2FF0E0EE0FFF1FE95EFE4FD2
:100E7000A591B4918FB7F894111105C09C91ED2FF5
:100E8000E095E92302C0EC91ED2BEC938FBFDF914D
:100E9000CF911F910895CF93DF9390E0FC01E8502C
:100EA000FF4F2491FC01EB5DFE4F8491882361F19B
:100EB00090E0880F991FFC01EC5BFE4FC591D49127
:100EC000FC01E95EFE4FA591B491611109C09FB785
:100ED000F8948881209582238883EC912E230BC07F
:100EE000623061F49FB7F8943881822F8095832314
:100EF0008883EC912E2B2C939FBF06C08FB7F8945C
:100F0000E8812E2B28838FBFDF91CF9108953FB7C3
:100F1000F8948091C5029091C602A091C702B09149
:100F2000C80226B5A89B05C02F3F19F00196A11D48
:100F3000B11D3FBFBA2FA92F982F8827820F911D6F
:100F4000A11DB11DBC01CD0142E0660F771F881FB6
:100F5000991F4A95D1F708958F929F92AF92BF92B1
:100F6000CF92DF92EF92FF926B017C010E94870784
:100F70004B015C01C114D104E104F104F1F00E94C1
:100F80008707DC01CB0188199909AA09BB09883EAA
:100F90009340A105B10570F321E0C21AD108E10820
:100FA000F10888EE880E83E0981EA11CB11CC114C4
:100FB000D104E104F10419F7DDCFFF90EF90DF9049
:100FC000CF90BF90AF909F908F9008958F929F92F7
:100FD000AF92BF92CF92DF92EF92FF920F931F9347
:100FE000CF93DF935C016B018A01809125018823F7
:100FF00009F45EC08091CD02882309F459C0809124
:10100000CB0280FF05C08091E00082608093E00009
:10101000E8018AEFF82E93E0E92E2FE3822E3AE3DF
:10102000932E209709F43DC08FB7F894E092E90021
:101030009091E80095FF06C09091F200282D291BA1
:10104000922F01C090E08FBF91110AC0FA94FF2047
:1010500079F161E070E080E090E00E94AC07E1CFC0
:10106000292F30E0C217D3070CF49C2F8FB7F894C8
:10107000E092E9002091E80025FF11C0292F30E01F
:10108000C21BD30BF601915020F041914093F10027
:10109000FACFC20ED31E9091E80095FF13C08FBF08
:1010A000C0CF5D9884E68093CC021016110644F000
:1010B00081E090E0F5019383828380E090E005C0B9
:1010C000C80103C09092E800EACFDF91CF911F9151
:1010D0000F91FF90EF90DF90CF90BF90AF909F90D7
:1010E0008F9008951F920F920FB60F9211242F9395
:1010F0003F938F939F93AF93BF938091C102909141
:10110000C202A091C302B091C4023091C00223E098
:10111000230F2D3720F40196A11DB11D05C026E82F
:10112000230F0296A11DB11D2093C0028093C1021E
:101130009093C202A093C302B093C4028091C502EF
:101140009091C602A091C702B091C8020196A11D5C
:10115000B11D8093C5029093C602A093C702B093BD
:10116000C802BF91AF919F918F913F912F910F90A6
:101170000FBE0F901F9018951F920F920FB60F92EF
:1011800011242F933F934F935F936F937F938F938C
:101190009F93AF93BF93EF93FF93E0910801F0917A
:1011A00009010995FF91EF91BF91AF919F918F91A7
:1011B0007F916F915F914F913F912F910F900FBE53
:1011C0000F901F9018951F920F920FB60F92112437
:1011D0002F933F934F935F936F937F938F939F933F
:1011E000AF93BF93EF93FF93E0910601F091070156
:1011F0000995FF91EF91BF91AF919F918F917F9151
:101200006F915F914F913F912F910F900FBE0F9073
:101210001F9018951F920F920FB60F9211242F93C3
:101220003F934F935F936F937F938F939F93AF936E
:10123000BF93EF93FF93E0910401F09105010995AD
:10124000FF91EF91BF91AF919F918F917F916F919E
:101250005F914F913F912F910F900FBE0F901F9074
:1012600018951F920F920FB60F9211242F933F9350
:101270004F935F936F937F938F939F93AF93BF939E
:10128000EF93FF93E0910201F09103010995FF9123
:10129000EF91BF91AF919F918F917F916F915F91EE
:1012A0004F913F912F910F900FBE0F901F90189567
:1012B0001F920F920FB60F9211242F933F934F93CB
:1012C0005F936F937F938F939F93AF93BF93EF93AE
:1012D000FF93E0910001F09101010995FF91EF91D9
:1012E000BF91AF919F918F917F916F915F914F913E
:1012F0003F912F910F900FBE0F901F9018958EBDAC
:1013000000000DB407FEFDCF8EB50895CF93CFB783
:10131000F8948091BF02811127C0E6E3F1E0849147
:10132000E9E0F1E09491E82FF0E0EE0FFF1FEC5BB5
:10133000FE4FA591B491EC91E92321F461E081E1A4
:101340000E941B0761E081E10E944B078CB5806120
:101350008CBD8CB580648CBD61E08FE00E944B0732
:1013600061E080E10E944B078091BF028F5F809314
:10137000BF02CFBFCF9108951F93CF93DF93182F54
:10138000C82FD0E0FE01E05DFE4F80810E94F20692
:10139000FE01E65FFD4F90819817E1F04091130147
:1013A000813059F4808321E030E001C0220F1A958A
:1013B000EAF7242B2093130111C0108221E030E0C2
:1013C000C90101C0880F1A95EAF78095842380939C
:1013D000130103C081E0913009F080E0DF91CF91EB
:1013E0001F9108950F931F93CF9300E311E0C0E086
:1013F000F80181918F01833619F08C2F0E94BC096E
:10140000CF5FC630A9F7CF911F910F9108958F92AA
:101410009F92AF92BF92CF92DF92EF92FF921F9373
:10142000CF93DF93C82F4A015B010E94191CC111A1
:101430000E94F209C0908F02D0909002E090910239
:10144000F090920285E0CC0CDD1CEE1CFF1C8A950E
:10145000D1F7C828D928EA28FB286091090270E052
:1014600080E090E00E94AC07C5E0D0E018E0109268
:101470007A02C0927B02D0927C02E0927D02F092CE
:101480007E0210937F0210928802EFE0F1E0A0E864
:10149000B2E081918D9381E0E731F807D1F70E94A6
:1014A000EE04882311F0219711F7DF91CF911F915E
:1014B000FF90EF90DF90CF90BF90AF909F908F9074
:1014C00008950F931F930091A7021091A8022091F5
:1014D000A9023091AA026017710782079307B1F140
:1014E0000091A3021091A4022091A5023091A602BE
:1014F000601771078207930759F1009197021091C5
:1015000098022091990230919A0260177107820720
:10151000930701F100919F021091A0022091A10276
:101520003091A2026017710782079307A9F000911A
:101530009B0210919C0220919D0230919E026017A7
:1015400071078207930751F080E009C081E007C06E
:1015500082E005C083E003C084E001C085E01F9104
:101560000F9108958F929F92AF92BF92EF92FF9248
:101570000F931F93CF93DF934B015C01142FC22F66
:101580000E94610A8093100181E080931101111182
:1015900001C01AE0D0E0E02EF12CCE15DF0570F48A
:1015A0008091AC029091AD02C817D90728F4B5011B
:1015B000A401CE010E948F032196EFCF0E94D10299
:1015C000612F70E080E090E0DF91CF911F910F914B
:1015D000FF90EF90BF90AF909F908F900C94AC07CE
:1015E0008F929F92AF92BF92CF92DF92EF92FF9233
:1015F0000F931F93CF93DF934B015C01142FC22FE6
:10160000F02E0E94610A8093100183E08093110103
:10161000111101C01EE5C11101C0C1E0C12CD12CC6
:10162000D0E0CC16DD06BCF40E2D2F2D412FC501C8
:10163000B4010E94B20A6091930270919402809169
:101640009502909196022F2D412F0E94B20A8FEFA2
:10165000C81AD80AE6CFDF91CF911F910F91FF9062
:10166000EF90DF90CF90BF90AF909F908F900895B4
:101670000F93EFE0F1E086E0818385E08283609163
:101680009B0270919C0280919D0290919E0200E2CB
:1016900020E044EF0E94B20A64E670E080E090E04F
:1016A0000E94AC076091A7027091A8028091A902E4
:1016B0009091AA0220E044EF0E94B20A64E670E032
:1016C00080E090E00E94AC076091A3027091A402B8
:1016D0008091A5029091A60220E044EF0E94B20AF8
:1016E00064E670E080E090E00E94AC0760919702B1
:1016F000709198028091990290919A0220E044EFB3
:101700000E94B20A64E670E080E090E00E94AC07BC
:1017100060919F027091A0028091A1029091A2021B
:1017200020E044EF0E94B20A64E670E080E090E0BE
:101730000E94AC076091930270919402809195028F
:101740009091960220E044EF0E94B20A0F91089512
:101750005F926F927F928F929F92AF92BF92CF9241
:10176000DF92EF92FF920F931F93CF93DF931F921D
:10177000CDB7DEB74B015C01522E7E2C49830E940F
:10178000610A8093100184E0809311014981411125
:1017900001C04AE0511002C05524539410E0C42EF9
:1017A000D12CE12CF12C81E08515F0F4602E1AC0CB
:1017B000409193025091940260919502709196022B
:1017C000862D90E02091AC023091AD0282179307F4
:1017D00010F40E948F030E94D102C701B6010E943B
:1017E000AC076394671420F3602E14C0862D90E03C
:1017F0002091AC023091AD028217930720F4B5011D
:10180000A4010E948F030E94D102C701B6010E9469
:10181000AC076394671450F31F5F1511C4CF0F908A
:10182000DF91CF911F910F91FF90EF90DF90CF90BC
:10183000BF90AF909F908F907F906F905F90089532
:101840008091D70281110DC082E08093D30284E0A1
:101850008093D4021092D6021092D50281E0809338
:10186000D70283ED92E008954091D1025091D202C7
:101870002091CF023091D00242175307B4F49091D7
:10188000E8009570E1F39091E80092FD19C0809313
:10189000F1008091D1029091D20201968F73992725
:1018A000892B19F48EEF8093E8008091D1029091FA
:1018B000D20201969093D2028093D10281E00895E2
:1018C00080E00895CF92DF92EF92FF920F931F93E3
:1018D000CF93DF931F92CDB7DEB7182F062FE42EDC
:1018E000862F880F8E5F99830E94340C83E00E94BC
:1018F000340CF12EC12E9981D92E8C2D8F19801781
:1019000098F4F601E7FE02C0849101C080810E9434
:10191000340C182F80E00E94340C8123FFEFCF1A83
:10192000DF0A8111EACF01C081E00F90DF91CF91F2
:101930001F910F91FF90EF90DF90CF900895DF926D
:10194000EF92FF920F931F93CF93DF93D82E8A01CC
:101950007B01E40EF51EEB01CE15DF0571F0D7FE1D
:1019600003C0FE01849101C088810E94340C21963D
:101970008111F2CF8FEF9FEF01C0C801DF91CF91AE
:101980001F910F91FF90EF90DF9008950F931F9399
:10199000CF93DF931F92CDB7DEB782E0898342E415
:1019A00050E06FE771E080E80E949F0C0E94200CDD
:1019B000DC0112960D911C9113970115110569F028
:1019C000D801ED91FC910280F381E02DBE016F5FA3
:1019D0007F4FC801099597FF07C089810F90DF915C
:1019E000CF911F910F910895F80100851185E5CFE2
:1019F000615030F02091F100FC0120830196F8CF76
:101A0000289884E68093DF020895CF92DF92EF92C8
:101A1000FF920F931F93CF93DF936C017A018B0199
:101A2000C0E0D0E0CE15DF0589F0D8016D918D01C1
:101A3000D601ED91FC910190F081E02DC601099550
:101A4000892B11F47E0102C02196ECCFC701DF91F2
:101A5000CF911F910F91FF90EF90DF90CF9008955D
:101A60000E94C61BCF92DF92EF92FF92CF93DF933B
:101A70006B017C01E0912A02F0912B020190F08130
:101A8000E02D6DE28AE292E00995EC016627772766
:101A9000CB016C197D098E099F094AE00E94EF0372
:101AA0008C0F9D1FDF91CF91FF90EF90DF90CF9033
:101AB0000895FC018091CD02811103C08FEF9FEF4B
:101AC00008959FB7F89482E08093E9002091F20096
:101AD00030E01216130614F421E030E02115310530
:101AE00059F0289884E68093DF028091F10080838A
:101AF0008091F200882319F09FBFC90108958BE6F9
:101B00008093E800F9CF1F920F920FB60F92112425
:101B10008F939F938091E1009091E100937F909348
:101B2000E10083FF0FC01092E90091E09093EB0079
:101B30001092EC0092E39093ED001092CD0298E0A9
:101B40009093F00082FF20C093E09093E900909181
:101B5000F200992319F09AE39093E8009091CC0257
:101B6000992339F09091CC0291509093CC02992313
:101B700089F19091DF02992339F09091DF02915021
:101B80009093DF02992341F184FF10C08091E2001D
:101B90008E7E81608093E2008091E1008F7E809351
:101BA000E1008091CB028E7E806111C080FF16C063
:101BB0008091E2008E7E80618093E2008091E1005E
:101BC0008E7E8093E1008091CB028E7E8160809337
:101BD000CB0204C05D9ACDCF289AD6CF9F918F912A
:101BE0000F900FBE0F901F9018951F920F920FB677
:101BF0000F921124CF92DF92EF92FF920F931F93D7
:101C00002F933F934F935F936F937F938F939F9304
:101C1000AF93BF93EF93FF93CF93DF93CDB7DEB72F
:101C20006C97DEBFCDBF1092E9008091E80083FF82
:101C3000FAC168E0CE0145960E94F80C82EF8093CD
:101C4000E8008D8987FF05C09091E80090FFFCCFE8
:101C500003C09EEF9093E800982F907609F0C6C0DD
:101C60009E892F89188D91110CC0803829F480919C
:101C7000CA028093F10002C01092F1001092F100AC
:101C800047C1422F50E0512B913051F4811140C196
:101C90004130510509F03CC18091CA028D7F0BC0D3
:101CA000933061F4811134C14130510509F030C1E4
:101CB0008091CA0282608093CA022AC1953041F4A1
:101CC0008091E80080FFFCCF20682093E30020C1D2
:101CD000963009F05FC0EB8CFC8C1092E9001092FA
:101CE000D2021092D102123091F51092D0021092CD
:101CF000CF020E94C60C99E0BE016F5F7F4FDB01EF
:101D0000E92F1D92EA95E9F799831A8391E09E8362
:101D100090EA98879AEF99872091D1023091D20268
:101D2000275F3F4F3C832B838D831092E9001092F5
:101D3000D2021092D102F092D002E092CF0249E09A
:101D400050E080E00E949F0C0E94C60CE1C0F0921F
:101D5000D002E092CF020E94200CDC011296ED909E
:101D6000FC901397E114F10409F4C0C0D701ED9180
:101D7000FC910480F581E02DBE016B5E7F4FC701B1
:101D80000995009719F00CF0C3C0C6C0F701E084B4
:101D9000F184E8CF973009F4BFC0983021F481E096
:101DA0008093F100B5C0993009F0B2C0837009F09A
:101DB000B3C0EBE4F1E081E021E036E390819923C8
:101DC00061F08093E9002093EB0091919093EC00F7
:101DD0003093ED008F5F873089F78EE78093EA00BC
:101DE0001092EA008F898093CD0292C08B8D9C8DDA
:101DF0001092E9001092D2021092D1029093D00278
:101E00008093CF02898D811156C08E899D89913A28
:101E100059F4813209F080C047E050E06EE171E092
:101E200080E00E949F0C74C0913209F075C083322B
:101E300089F4888D90E0982F88272F89822BA0E045
:101E4000B0E080931A0190931B01A0931C01B09302
:101E50001D015EC0803269F48091E80082FFFCCFF2
:101E600067E08EE191E00E94F80C8BEF8093E80030
:101E700006C0823209F04CC08F8980932501809181
:101E8000C902882319F0EEEFFAE002C0E0E0F8E0C2
:101E900080911E0190911F01A0912001B09121011C
:101EA000803B9440A105B10509F088C080912501CF
:101EB00080FFA0C083C00E94200CDC0112960D910F
:101EC0001C9113970115110539F1D801ED91FC9181
:101ED0000190F081E02DBE016B5E7F4FC801099536
:101EE000811116C0F80100851185ECCF1130C1F0C9
:101EF000133091F48F89882309F455C08230E9F4B6
:101F000040E860E181ED91E00E94620C882321F0BD
:101F10008EEF8093E80087C081E28093EB0083C05E
:101F20008B8D9C8D089711F41093CE028091CE0278
:101F3000811136C062EE71E038C0813029F440E88A
:101F40006BE085EC91E0E0CF833031F70E94200C0C
:101F5000DC011296ED90FC9013978E010F5F1F4FDE
:101F60006801E114F10479F0D701ED91FC9106804C
:101F7000F781E02DB801C7010995080F111DF70180
:101F8000E084F184EECFD8011C92F601019000208C
:101F9000E9F73197BF016C197D0940E0C601B4CF64
:101FA00064EF71E002C061EC71E06115710509F444
:101FB000B3CFFB01449150E080E833CF0FB6F894E3
:101FC000A895809160008861809360001092600005
:101FD0000FBEA895EE3F2AE0F20739F08091FE0A85
:101FE0009091FF0A9183808393CF1092FF0A109201
:101FF000FE0A8ECFEE3F8AE0F80731F080819181B2
:102000009093FF0A8093FE0A87E797E79183808386
:102010009BE088E10FB6F894A895809360000FBE0E
:102020009093600075CF6C960FB6F894DEBF0FBE2C
:10203000CDBFDF91CF91FF91EF91BF91AF919F9174
:102040008F917F916F915F914F913F912F911F9150
:102050000F91FF90EF90DF90CF900F900FBE0F90F9
:102060001F901895CF93DF931F92CDB7DEB778946A
:1020700084B5826084BD84B5816084BD85B582608D
:1020800085BD85B5816085BD80916E00816080933E
:102090006E001092810080918100826080938100A7
:1020A00080918100816080938100809180008160B7
:1020B0008093800080919100826080939100809154
:1020C0009100816080939100809190008160809365
:1020D00090008091C10084608093C1008091C10014
:1020E00082608093C1008091C10081608093C100B3
:1020F0008091C30081608093C3008091C0008260A2
:102100008093C0008091C20081608093C200809162
:102110007A00846080937A0080917A008260809354
:102120007A0080917A00816080937A0080917A00B1
:10213000806880937A001092CD021092CA021092A9
:10214000CB028091D70081608093D70080EA809392
:10215000D80089B5806189BD89B5826089BD09B41F
:1021600000FEFDCF61E070E080E090E00E94AC07EF
:102170008091D8008F7C80618093D8008091E000AE
:10218000807F8093E0008091E1008E7E8093E1006B
:102190008DE08093E200559A209AEEEFFFE785915B
:1021A00094918B3F9C4D19F481E08093C9028091FA
:1021B0008F029091900224E6289FB001299F700D14
:1021C00011248FEF9FEF909337028093360268516E
:1021D0007C4F072E000C880B990B0E94AC0781E501
:1021E00091E00E94D70360918F02709190028091DC
:1021F0009102909192024AE00E94EF038BE591E0F8
:102200000E94D703EDEEF0E0E49180917B00E3FBC8
:10221000002700F910E095E0000F111F9A95E1F7F3
:102220008F7D802B80937B00E770E064E0937C00DF
:1022300080917A00806480937A0080917A00182FD0
:10224000107486FDFACF609178008091790070E07B
:10225000782B072E000C880B990B611571058105F1
:10226000910511F00E941E1C80918F0290919002A6
:10227000A0919102B09192024091A7025091A802C0
:102280006091A9027091AA020697A105B10518F400
:10229000DB01CA0108C08091A3029091A402A09121
:1022A000A502B091A60280938B0290938C02A0931A
:1022B0008D02B0938E0284179507A607B70729F4FD
:1022C00085E190E0A0E0B0E004C086E190E0A0E00D
:1022D000B0E080930A0190930B01A0930C01B0939E
:1022E0000D0161E087E10E944B0761E087E10E94F8
:1022F0001B0780918F0290919002A0919102B09162
:10230000920283309105A105B10521F00897A1053E
:10231000B105A1F461E085E00E944B0761E086E031
:102320000E944B0760E085E00E941B0760E086E0AA
:102330000E941B0762E084E00E944B078EE591E05B
:102340000E9430048091B00287FD08C061E00E94C5
:102350004B0760E08091B0020E941B0781E08093F0
:10236000AB020E94D1020E94380B6091A7027091CB
:10237000A8028091A9029091AA0200E220E040E028
:102380000E94B20A8CE691E00E943004B0E3CB2EAA
:10239000B1E0DB2EF6018081833609F44DC062E0A6
:1023A0000E944B078CE791E00E94D703F601608101
:1023B00070E080E090E04AE00E94EF0381E891E065
:1023C0000E94D703812F0E94BC09682F70E080E033
:1023D00090E04AE00E94EF03812F0E94BC09811126
:1023E00012C06091A3027091A4028091A502909105
:1023F000A602A8E0EA2E00E020E040E00E94A80B40
:1024000085E891E011C060919702709198028091E7
:10241000990290919A02F8E0EF2E00E020E040E06F
:102420000E94A80B8BE891E00E9430046AEF70E0F4
:1024300080E090E00E94AC07FFEFCF1ADF0A1F5F39
:10244000163009F0A7CF86E991E00E94300487EAB0
:1024500091E00E94D7030E94860988E00E943E0412
:102460008823A1F08CEC91E00E94300460919702E7
:10247000709198028091990290919A02E0E1EE2E7B
:1024800008E020E040E00E94A80BE1CF6091A302A9
:102490007091A4028091A5029091A60250E1E52ED0
:1024A00008E020E040E00E94A80B88E891E00E944C
:1024B00030048CEA96E090930901809308018091A2
:1024C0006A008F7C806280936A00EE9A80E00E94AE
:1024D000F80581E00E94F80540918F02509190022A
:1024E000609191027091920280E00E949B0540E011
:1024F00050E0BA0181E00E949B0540918F0250910B
:102500009002609191027091920282E00E949B057C
:1025100040E050E0BA0183E00E949B0540910A012F
:1025200050910B0160910C0170910D0184E00E94AB
:102530009B0540918F0250919002609191027091A1
:10254000920285E00E949B0520918F0230919002BB
:102550004091910250919202A8EEB3E00E944E1C6D
:102560000E94AC0780918F0290919002A0919102FD
:10257000B091920265E0880F991FAA1FBB1F6A9550
:10258000D1F78F6110927A0280937B0290937C0244
:10259000A0937D02B0937E0288E080937F02109228
:1025A0008802E0E1F2E0A0E8B2E081918D9322E0C0
:1025B000E831F207D1F70E94EE0464E670E080E0B3
:1025C00090E00E94AC0780910802882351F010929D
:1025D00008020E945605837009F44CC00E946F05E2
:1025E000F8CF609197027091980280919902909132
:1025F0009A02E8E1EE2E00E120E040E00E94A80B04
:1026000089EB91E00E94300460E177E280E090E0A5
:102610000E94AC076091A3027091A4028091A50270
:102620009091A60230E2E32E08E120E040E00E9413
:10263000A80B64EF71E080E090E00E94AC0760912D
:10264000930270919402809195029091960200E21B
:1026500020E040E00E94B20A40E0242E40E0342E08
:10266000FF24F39455E0552E0E945605837009F41B
:10267000B2C112C06091A3027091A4028091A50220
:102680009091A60248E1E42E00E120E040E00E94A3
:10269000A80B86EF91E0B6CF0E946F0580911F02D4
:1026A0009091200201969093200280931F028091C6
:1026B0002102811113C040917B0250917C026091F4
:1026C0007D0270917E0225E0769567955795479536
:1026D0002A95D1F781E00E94070AC6CF813009F020
:1026E000AEC080912202813049F48090A702909080
:1026F000A802A090A902B090AA0234C0823049F486
:102700008090A3029090A402A090A502B090A6028F
:1027100029C0833049F48090970290909802A0904D
:102720009902B0909A021EC0843049F480909F02B2
:102730009090A002A090A102B090A20213C0853098
:1027400049F480909B0290909C02A0909D02B090D2
:102750009E0208C08090930290909402A0909502EF
:10276000B09096020091230220912502109126023A
:10277000E0902402EE2049F08E2D880F880F880FFC
:1027800098EF492E480EE82E03C0B0E2EB2E412C04
:10279000011103C000E220E004C0013041F40E2D1D
:1027A000242D412FC501B4010E94B20A5DCF023031
:1027B00071F5C501B40129830E94610A809310015B
:1027C000009311012981111101C01EE5211101C0E1
:1027D00021E0612C712CC22ED12C0E2D242D412FE5
:1027E000C501B4016C147D04FCF60E94B20A60912C
:1027F0009302709194028091950290919602242DFB
:10280000412F0E94B20A8FEF681A780AE6CF033090
:1028100039F4042D412FC501B4010E94F00A24CFE0
:10282000043039F4042D412FC501B4010E94A80BD6
:102830001BCF053009F018CF0E94380B15CF82301E
:1028400049F48091220280931901F0920E01809345
:1028500012010ACF8330D1F480912202811102C08B
:1028600060E003C0813049F461E085E00E941B070D
:1028700060E086E00E941B07F7CE823009F0F4CEBC
:1028800061E085E00E941B0761E0F3CF843009F42A
:10289000EBCE853089F580917B0290917C02A091EE
:1028A0007D02B0917E02BC01CD01A5E09695879591
:1028B00077956795AA95D1F74AE00E94EF038AECD5
:1028C00091E00E94D70301E212E0F2E009321F0713
:1028D00071F0F80161918F0170E080E090E04AE0D2
:1028E0000E94EF038AEC91E00E94D703EECF8BE5C4
:1028F00091E00E94D703B8CE863009F042C08091A3
:10290000220280931E021091230210931D029091C7
:102910002402992319F09093090202C0109209022F
:10292000863029F587EA91E00E94D7030E94860944
:10293000812F0E943E0481113AC06091A3027091E0
:10294000A4028091A5029091A60238E1E32E00E155
:1029500020E040E00E94A80B612F70E080E090E052
:102960004AE00E94EF0385E891E00E9430048091E4
:102970001E02893019F480930F0176CE50920F0118
:1029800073CE873009F070CE80912202813019F425
:10299000F0921B0202C010921B0280912302813030
:1029A00019F480931A0260CE10921A025DCE8CEC5C
:1029B00091E00E943004609197027091980280919A
:1029C000990290919A0228E1E22E00E120E040E095
:1029D0000E94A80BCCCF80911E02883009F0C0C1A4
:1029E00090911D0280911901913009F07DC08130D4
:1029F00071F480910E01882309F4B2C160919702AD
:102A0000709198028091990290919A02ACC08230A4
:102A100009F4A6C190910E01833011F5992309F4B0
:102A20009FC160919F027091A0028091A10290913C
:102A3000A20200E220E040E00E94B20A10920E01E1
:102A400080918F0290919002A0919102B091920298
:102A500083309105A105B10509F0BCC061E06EC0ED
:102A60008430D9F4992309F47BC110920E0110929D
:102A70001C0280918F0290919002A0919102B091DE
:102A8000920283309105A105B10509F05FC161E0B3
:102A900085E00E941B0761E055C08530C1F5992390
:102AA00009F45EC180918F0290919002A0919102F1
:102AB000B091920283309105A105B10521F00897EC
:102AC000A105B10541F461E085E00E941B0761E0CA
:102AD00086E00E941B0760919F027091A002809186
:102AE000A1029091A2023FC0923009F039C1813019
:102AF00069F1823009F434C190910E01833009F4F8
:102B00004AC0843009F4AECF853009F469C08630FC
:102B100009F0C6C0992309F423C110920E018091D7
:102B20008F0290919002A0919102B0919202833015
:102B30009105A105B10509F00EC160E085E00E9494
:102B40001B0760E086E00E941B070AC180910E010E
:102B5000882309F405C16091A7027091A8028091B1
:102B6000A9029091AA02F0E2EF2E00E021E040E0FD
:102B70000E94A80B6091930270919402809195023B
:102B80009091960221E040E00E94A80B10920E0165
:102B900010921C02E5C0992309F4E2C080911A0248
:102BA000882309F43ECF609197027091980280913A
:102BB000990290919A0200E220E140E00E94B20A5C
:102BC00060919F027091A0028091A1029091A20257
:102BD00000E130CF0897A105B10509F0C1C03ECF93
:102BE000992309F4BDC080918F0290919002A09129
:102BF0009102B091920283309105A105B10521F0B7
:102C00000897A105B10541F461E085E00E941B072A
:102C100061E086E00E941B0760919F027091A00214
:102C20008091A1029091A202E0E2EE2E00E021E06C
:102C300040E00E94A80B60919302709194028091F1
:102C400095029091960221E040E00E94A80B8091AD
:102C50001A0281110AC060919F027091A0028091B6
:102C6000A1029091A20200E216C0609197027091B9
:102C700098028091990290919A0200E220E140E04E
:102C80000E94B20A60919F027091A0028091A102FD
:102C90009091A20200E120E040E00E94B20A76CFCB
:102CA000873089F4992309F45BC060919302709195
:102CB0009402809195029091960200E220E040E01B
:102CC0000E94B20A2ACF8830A9F0992309F448C09B
:102CD0006091930270919402809195029091960276
:102CE00000E220E040E00E94B20A10921B020E9423
:102CF000F20913CF9923A1F160919F027091A00274
:102D00008091A1029091A20250E2E52E00E021E024
:102D100040E00E94A80B6091970270919802809108
:102D2000990290919A0221E040E00E94A80B6091E4
:102D3000930270919402809195029091960221E005
:102D400040E00E94A80B10920E0193CE0897A105B7
:102D5000B10531F49CCE0897A105B10509F4EDCE7B
:102D600090911E0280911901993009F0B9C090919B
:102D70001D02913069F590910E018130D9F49923AB
:102D800009F48CC26091A7027091A8028091A902F7
:102D90009091AA0240E2E42E00E021E040E00E948F
:102DA000A80B60919B0270919C0280919D02909172
:102DB0009E02B4C08230B9F4992309F46FC2109214
:102DC0000E0110921C02809118029091190275C098
:102DD000923009F063C290910E01813009F444C031
:102DE000823009F45CC08730D1F480910E018823D1
:102DF00009F454C24FE150E060E070E080E00E94CE
:102E0000070A6091930270919402809195029091CB
:102E1000960200E220E040E00E94B20A22C08091C7
:102E20000E01882309F43AC2109219021092180276
:102E30001092200210921F0210921601109215019A
:102E40006091930270919402809195029091960204
:102E500000E220E040E00E94B20A10921B020E94B1
:102E6000F20910920E011AC2992309F417C2609157
:102E7000A7027091A8028091A9029091AA0230E263
:102E8000E32E00E021E040E00E94A80B6091970251
:102E9000709198028091990290919A023FC0992373
:102EA00021F010920E0110921C0280911802909154
:102EB00019028F3F91050CF0F1C101969093190210
:102EC000809318028093160180911F028093150150
:102ED0004FE150E060E070E080E00E94070ADEC150
:102EE000813029F580910E01882309F4D7C16091C2
:102EF0009F027091A0028091A1029091A20220E213
:102F0000E22E00E021E040E00E94A80B60919302D5
:102F100070919402809195029091960221E040E098
:102F20000E94A80B10920E0110921C02B7C18230B1
:102F300009F4B4C190910E01833009F079C099234E
:102F400051F160919F027091A0028091A102909135
:102F5000A20200E220E040E00E94B20A10920E01BC
:102F600010921C0280918F0290919002A091910288
:102F7000B091920283309105A105B10521F0089727
:102F8000A105B10541F461E085E00E941B0760E006
:102F900086E00E941B07109113010E94F2098091A4
:102FA0001301181709F47AC130910A0220910B021B
:102FB00040910D0280911C02811170C180918F029D
:102FC00090919002A0919102B0919202833091056C
:102FD000A105B10521F00897A105B10521F544230C
:102FE00009F45CC14FE150E060E070E080E00E94D5
:102FF000070A10921B0280901001912CA12CB12C79
:1030000000E2E02E00E023E040E0C501B4010E94B0
:10301000F00A00E220E040E0C501B4010E94B20ADB
:10302000F0921C023BC13111DDCF2111DBCF36C143
:103030008430D9F4992309F431C110920E01109211
:103040001C0280918F0290919002A0919102B09108
:10305000920283309105A105B10509F001C161E03B
:1030600085E00E941B0761E0A9C0853009F08CC093
:103070009923C1F180918F0290919002A0919102C9
:10308000B091920283309105A105B10521F0089716
:10309000A105B10541F461E085E00E941B0761E0F4
:1030A00086E00E941B0760919F027091A0028091B0
:1030B000A1029091A20210E2E12E00E021E040E0A6
:1030C0000E94A80B609193027091940280919502E6
:1030D0009091960221E040E00E94A80B10920E0110
:1030E00010921C0280911C028111D8C080911A029A
:1030F000811110C06091970270919802809199029D
:1031000090919A02B0E2EB2E00E021E044E10E94AF
:10311000A80BC4C080911B02882341F110911301B8
:103120000E94F20980911301181709F4B7C0809129
:103130000A0290910B02911103C0882309F4AEC0DA
:103140004FE150E060E070E080E00E94070A1092DA
:103150001B026091100170E080E090E0A0E2EA2E96
:1031600000E023E040E00E94F00A98C060919302E2
:1031700070919402809195029091960200E220E075
:1031800040E00E94B20A8AC08630E1F4992309F433
:1031900085C010920E0180918F0290919002A091B3
:1031A0009102B091920283309105A105B10509F019
:1031B00070C060E085E00E941B0760E086E00E942E
:1031C0001B076CC0873089F4992309F467C06091AC
:1031D000930270919402809195029091960200E280
:1031E00020E040E00E94B20AD4CF8830F1F5992364
:1031F00009F454C060919F027091A0028091A102D5
:103200009091A202F0E2EF2E00E021E040E00E9467
:10321000A80B609197027091980280919902909109
:103220009A0221E040E00E94A80B60919302709105
:103230009402809195029091960221E040E00E94D4
:10324000A80B60919F027091A0028091A1029091C1
:10325000A20221E040E00E94A80B10920E01F1CEE4
:103260000897A105B105D1F4FACE9923B9F0609180
:10327000930270919402809195029091960200E2DF
:1032800020E040E00E94B20A10921B020E94F20964
:1032900080CF0897A105B10509F48BCF8091190162
:1032A000833009F043C080918F0290919002A091E9
:1032B0009102B091920283309105A105B10521F0F0
:1032C0000897A105B10591F500911701109118011A
:1032D00084E00E94F206909318018093170108176A
:1032E000190721F1BC01990F880B990B97FF03C0B7
:1032F0000E94320D03C04AE00E94EF038BE591E08B
:103300000E94D7038091170190911801892B71F4C5
:1033100014E0109312014FE150E060E070E080E0B3
:103320000E94070AF0920E01109319012114310432
:1033300009F49AC90E94000097C9CF92DF92EF92D8
:10334000FF9210922D0210922C0288EE93E0A0E0E2
:10335000B0E080932E0290932F02A0933002B0939E
:1033600031028AE391E090932B0280932A028FEF3F
:103370009FEF90933702809336021092AB02109227
:10338000B2021092B8021092B9021092BA021092D0
:10339000BB0280E690E09093AF028093AE020E9461
:1033A000991A9093B4028093B302009761F020E6DB
:1033B000FC0111922A95E9F780E290E09093AD022A
:1033C0008093AC0208C01092AF021092AE0210922D
:1033D000AD021092AC0288E08093B0028091AB0203
:1033E000882341F061E088E00E944B0760E088E0BC
:1033F0000E941B07EDE2F1E0E491F0E0EE0FFF1F09
:10340000E95EFE4F859194919093BD028093BC023A
:10341000E0E0F1E0E491E093BE0283E08093B1024A
:1034200081E08093B5021092B60282E08093B702E9
:10343000C12CD12C92E3E92EF12CC092A702D0929C
:10344000A802E092A902F092AA0280E092E3A0E032
:10345000B0E08093A3029093A402A093A502B0933E
:10346000A60282E390E0A0E0B0E080939F029093F8
:10347000A002A093A102B093A20282E392E3A2E38E
:10348000B0E080939B0290939C02A0939D02B09326
:103490009E0280E092E3A2E3B0E0809397029093D3
:1034A0009802A0939902B0939A02109293021092FC
:1034B0009402109295021092960280E090E00E9491
:1034C000271C90E0A0E0B0E080938F0290939002E0
:1034D000A0939102B0939202C0928B02D0928C0280
:1034E000E0928D02F0928E0281E180938A0261E087
:1034F0000E944B0761E080918A02FF90EF90DF907D
:10350000CF900C941B078091B3029091B402009766
:1035100011F00E942E1B8091B00287FD03C060E075
:103520000C944B070895EE0FFF1F0590F491E02DCA
:103530000994CF93DF938230910510F482E090E0FC
:10354000E091E202F091E30220E030E0C0E0D0E060
:10355000309711F14081518148175907C0F0481741
:10356000590761F482819381209719F09B838A83A4
:103570002BC09093E3028093E20226C0211531050F
:1035800019F04217530718F49A01BE01DF01EF0149
:103590000280F381E02DDCCF2115310509F1281BD4
:1035A000390B2430310590F412968D919C9113972C
:1035B0006115710521F0FB019383828304C0909310
:1035C000E3028093E202FD01329644C0FD01E20F66
:1035D000F31F81939193225031092D933C933AC06C
:1035E0002091E0023091E102232B41F42091280147
:1035F000309129013093E1022093E00220912601CD
:10360000309127012115310541F42DB73EB7409186
:103610002A0150912B01241B350BE091E002F0911F
:10362000E102E217F307A0F42E1B3F0B281739071E
:1036300078F0AC014E5F5F4F2417350748F04E0F0E
:103640005F1F5093E1024093E0028193919302C087
:10365000E0E0F0E0CF01DF91CF9108950F931F9349
:10366000CF93DF93009709F48CC0FC01329713824B
:1036700012820091E2021091E3020115110581F41A
:1036800020813181820F931F2091E0023091E1026D
:103690002817390779F5F093E102E093E00271C051
:1036A000D80140E050E0AE17BF0750F412962D91BC
:1036B0003C911397AD012115310509F1D901F3CFE3
:1036C0009D01DA013383228360817181860F971F08
:1036D0008217930769F4EC0128813981260F371F7F
:1036E0002E5F3F4F318320838A819B819383828326
:1036F000452B29F4F093E302E093E20242C01396D3
:10370000FC93EE931297ED01499159919E01240F7C
:10371000351FE217F30771F480819181840F951FA3
:10372000029611969C938E938281938113969C931B
:103730008E931297E0E0F0E0D80112968D919C9163
:103740001397009719F0F8018C01F6CF8D919C9199
:1037500098012E5F3F4F820F931F2091E00230911E
:10376000E1022817390769F4309729F41092E3022F
:103770001092E20202C0138212821093E1020093BF
:10378000E002DF91CF911F910F91089581E090E0C9
:10379000F8940C94921C8F929F92AF92BF92CF920A
:1037A000DF92EF92FF92CF93DF93EC0168817981F2
:1037B0008A819B81611571058105910521F464E27F
:1037C00079ED8BE597E02DE133EF41E050E00E9489
:1037D0002F1C49015A019B01AC01A7EAB1E40E94E8
:1037E0004E1C6B017C01ACEEB4EFA50194010E946C
:1037F0005C1CDC01CB018C0D9D1DAE1DBF1DB7FFF8
:1038000003C00197A109B04888839983AA83BB8329
:10381000BC01CD019F77DF91CF91FF90EF90DF90BA
:10382000CF90BF90AF909F908F9008950E94CB1B38
:1038300008958CE291E00E94CB1B089560932C01C7
:1038400070932D0180932E0190932F010895F99983
:10385000FECF92BD81BDF89A992780B50895052EB7
:1038600097FB1EF400940E94461C57FD07D00E944F
:10387000611C07FC03D04EF40C94461C50954095F7
:10388000309521953F4F4F4F5F4F0895909580950C
:10389000709561957F4F8F4F9F4F08950E94831CB5
:1038A000A59F900DB49F900DA49F800D911D112494
:1038B0000895B7FF0C944E1C0E944E1C821B930B64
:1038C0000895A1E21A2EAA1BBB1BFD010DC0AA1F61
:1038D000BB1FEE1FFF1FA217B307E407F50720F079
:1038E000A21BB30BE40BF50B661F771F881F991FF4
:1038F0001A9469F760957095809590959B01AC013D
:10390000BD01CF010895A29FB001B39FC001A39F45
:10391000700D811D1124911DB29F700D811D112408
:10392000911D089511E0C4E0D1E004C0FE010E94A1
:0E393000931A2196C530D107C9F7F894FFCF3E
:10393E00AB06AB06AB06AB06AB06150000000105E9
:10394E0000000000000000010008FFFFFFFF00E183
:10395E000000000000000000E402800001000000F2
:10396E000B0A63636363000000003306E607540628
:10397E00B006CE0649061132200800C18081000033
:10398E00004E6F64652049443A20000D0A004E65D2
:10399E006F706978656C2054657374002D2D2D2D14
:1039AE002D496E707574732D2D2D2D0050696E235B
:1039BE0000203D2000202D204F4B00202D20505266
:1039CE004553534544002D2D2D2D2D43616E204220
:1039DE0075732D2D2D2D0043414E2D4255532053E1
:1039EE007461727475703A20004E6F7468696E67F8
:1039FE00205265636569766564002C004E6F7420F5
:103A0E00476F6F642C20636865636B20796F7572E6
:103A1E002070696E2320616E6420636F6E6E656325
:103A2E0074696F6E73004D657373616765205265BF
:083A3E00636569766564000010
:00000001FF
