:100000000C9405010C94E1040C94BA040C94930430
:100010000C946C040C942D010C942D010C9445044B
:100020000C942D010C942D010C94190F0C948B0F32
:100030000C942D010C942D010C942D010C942D0188
:100040000C942D010C942D010C942D010C942D0178
:100050000C942D010C942D010C942D010C94FB0398
:100060000C942D010C942D010C942D010C942D0158
:100070000C942D010C942D010C942D010C942D0148
:100080000C942D010C942D010C942D010C942D0138
:100090000C942D010C942D010C942D010C942D0128
:1000A0000C942D010C942D010C942D0182018501DD
:1000B000740178017E01A601A601A60189018D01C6
:1000C000910197019B01A601A101210CED0B6B0C85
:1000D000F10BF40BF70BFB0BFE0B020C050C080CE1
:1000E0000B0C0E0C120C160C1A0C1D0C070605043A
:1000F0000100080A0B0C0D09000000002400270075
:100100002A002D00300000000000230026002900F6
:100110002C002F000000000200090F000003040162
:10012000000C0000000000000000000000000000C3
:100130000000000408020110408040102040804070
:10014000800802040180402010020110801020402D
:10015000402000000000250028002B002E00310068
:10016000040404040403040502020202040302025C
:10017000020206060606060604040202020404043D
:1001800003090441726475696E6F204C4C43004151
:10019000726475696E6F204C656F6E6172646F007A
:1001A00012010002000000404123368000010102DC
:1001B000030112010002EF020140412336800001D9
:1001C00001020301080B0002020201000904000001
:1001D00001020200000524001001052401010104B0
:1001E00024020605240600010705810310004009CA
:1001F000040100020A000000070502024000000797
:10020000058302400000BB1FAB1F11241FBECFEFB0
:10021000DAE0DEBFCDBF23E0A6E7B2E001C01D9269
:10022000A036B207E1F712E0A0E0B1E0ECEFF9E4AC
:1002300002C005900D92A637B107D9F711E0C4E0CE
:10024000D1E004C02197FE010E94A120C330D10754
:10025000C9F70E94C4120C94F1240C940000CF93AF
:10026000DF931F92CDB7DEB76983DC01ED91FC917E
:100270000280F381E02D41E050E0BE016F5F7F4FCF
:1002800009950F90DF91CF91089583E08093E90065
:100290008091F200882319F08AE38093E8000895A2
:1002A000FC018485958597FD0BC09FB7F89482E08B
:1002B0008093E9008091F2009FBF90E0019608953D
:1002C0009FB7F89482E08093E9008091F2009FBF8D
:1002D00090E0089590E0FC013197EF30F105B0F522
:1002E000EA5AFF4F0C94A120809180008F7703C0C1
:1002F000809180008F7D80938000089580918000A0
:10030000877FF9CF84B58F7702C084B58F7D84BD98
:100310000895809190008F7707C0809190008F7D25
:1003200003C080919000877F809390000895809112
:10033000C0008F7703C08091C0008F7D8093C00084
:1003400008958091C200877F8093C2000895089528
:1003500081E080937A0208950F931F93CF93DF93E8
:100360001F92CDB7DEB78C01FC018485958597FF80
:100370000EC0CE0101960E94DB0E019719F429816F
:1003800030E002C02FEF3FEFF80135872487F801F6
:10039000848595850F90DF91CF911F910F910895DE
:1003A000CF93DF931F92CDB7DEB7FC01848595858F
:1003B00097FD05C02FEF3FEF358724870BC0CE0197
:1003C00001960E94DB0E019719F4898190E002C02A
:1003D0008FEF9FEF0F90DF91CF910895AF92BF9273
:1003E000CF92DF92EF92FF920F931F93CF93DF9301
:1003F0001F92CDB7DEB75C017B018B016C0182E0FF
:10040000C80ED11CF80161918F01C50169830E945A
:1004100078246981681719F0C5010E948024FFEFD4
:10042000AF1ABF0AAC14BD0469F7C7010F90DF9182
:10043000CF911F910F91FF90EF90DF90CF90BF90E1
:10044000AF900895CF93DF93282F30E0F901EC5E51
:10045000FE4F8491F901ED5CFE4FD491F901E05A11
:10046000FE4FC491CC2391F081110E946A01EC2FC0
:10047000F0E0EE0FFF1FEA5FFE4FA591B491EC9103
:10048000ED2381E090E021F480E002C080E090E084
:10049000DF91CF9108951F93CF93DF93282F30E002
:1004A000F901EC5EFE4F8491F901ED5CFE4FD491B1
:1004B000F901E05AFE4FC491CC23C9F0162F8111E7
:1004C0000E946A01EC2FF0E0EE0FFF1FEE5AFE4F84
:1004D000A591B4918FB7F894111105C09C91ED2F9F
:1004E000E095E92302C0EC91ED2BEC938FBFDF91F7
:1004F000CF911F910895CF93DF9390E0FC01ED5CC5
:10050000FE4F2491FC01E05AFE4F8491882361F153
:1005100090E0880F991FFC01E850FF4FC591D491DE
:10052000FC01EE5AFE4FA591B491611109C09FB72D
:10053000F8948881209582238883EC912E230BC028
:10054000623061F49FB7F8943881822F80958323BD
:100550008883EC912E2B2C939FBF06C08FB7F89405
:10056000E8812E2B28838FBFDF91CF9108958231B0
:1005700008F08251E82FF0E0E451FF4FE4918091C0
:100580007B00E3FB222720F930E095E0220F331FA8
:100590009A95E1F78F7D282B20937B00E770E0642C
:1005A000E0937C0080917A00806480937A0080914F
:1005B0007A0086FDFCCF809178002091790090E050
:1005C000922B0895CF92DF92EF92FF92CF93DF9319
:1005D000C4E1D0E0C12CD12C760182E10E94B702A7
:1005E000BC01990F880B990B0E94C3219B01AC01A0
:1005F000C701B6010E94A8206B017C01219769F711
:1006000020E030E048E951E40E9419210E948B214A
:10061000CB01DF91CF91FF90EF90DF90CF900895C5
:100620003FB7F8948091A3029091A402A091A502F3
:10063000B091A60226B5A89B05C02F3F19F00196E0
:10064000A11DB11D3FBFBA2FA92F982F8827820F58
:10065000911DA11DB11DBC01CD0142E0660F771FA8
:10066000881F991F4A95D1F708958F929F92AF9254
:10067000BF92CF92DF92EF92FF926B017C010E94BA
:1006800010034B015C01C114D104E104F104F1F049
:100690000E941003DC01CB0188199909AA09BB0942
:1006A000883E9340A105B10570F321E0C21AD1083C
:1006B000E108F10888EE880E83E0981EA11CB11CA9
:1006C000C114D104E104F10419F7DDCFFF90EF90DC
:1006D000DF90CF90BF90AF909F908F9008958F92B2
:1006E0009F92AF92BF92CF92DF92EF92FF920F93C1
:1006F0001F93CF93DF935C016B018A0180912901E5
:10070000882309F45EC080914E03882309F459C000
:1007100080914B0380FF05C08091E0008260809350
:10072000E000E8018AEFF82E93E0E92E2FE3822E15
:100730003AE3932E209709F43DC08FB7F894E092E6
:10074000E9009091E80095FF06C09091F200282DF5
:10075000291B922F01C090E08FBF91110AC0FA941B
:10076000FF2079F161E070E080E090E00E943503C5
:10077000E1CF292F30E0C217D3070CF49C2F8FB79D
:10078000F894E092E9002091E80025FF11C0292F9C
:1007900030E0C21BD30BF601915020F04191409301
:1007A000F100FACFC20ED31E9091E80095FF13C05E
:1007B0008FBFC0CF5D9884E680934C03101611065E
:1007C00044F081E090E0F5019383828380E090E043
:1007D00005C0C80103C09092E800EACFDF91CF9135
:1007E0001F910F91FF90EF90DF90CF90BF90AF904F
:1007F0009F908F9008951F920F920FB60F92112421
:100800002F933F938F939F93AF93BF9380919F02BA
:100810009091A002A091A102B091A20230919E02FB
:1008200023E0230F2D3720F40196A11DB11D05C033
:1008300026E8230F0296A11DB11D20939E028093EE
:100840009F029093A002A093A102B093A202809174
:10085000A3029091A402A091A502B091A6020196D4
:10086000A11DB11D8093A3029093A402A093A502A1
:10087000B093A602BF91AF919F918F913F912F911D
:100880000F900FBE0F901F9018951F920F920FB6EA
:100890000F9211242F933F934F935F936F937F9306
:1008A0008F939F93AF93BF93EF93FF93E0910801D2
:1008B000F09109010995FF91EF91BF91AF919F913F
:1008C0008F917F916F915F914F913F912F910F90F9
:1008D0000FBE0F901F9018951F920F920FB60F9298
:1008E00011242F933F934F935F936F937F938F9335
:1008F0009F93AF93BF93EF93FF93E0910601F09125
:1009000007010995FF91EF91BF91AF919F918F9151
:100910007F916F915F914F913F912F910F900FBEFB
:100920000F901F9018951F920F920FB60F921124DF
:100930002F933F934F935F936F937F938F939F93E7
:10094000AF93BF93EF93FF93E0910401F091050102
:100950000995FF91EF91BF91AF919F918F917F91F9
:100960006F915F914F913F912F910F900FBE0F901C
:100970001F9018951F920F920FB60F9211242F936C
:100980003F934F935F936F937F938F939F93AF9317
:10099000BF93EF93FF93E0910201F091030109955A
:1009A000FF91EF91BF91AF919F918F917F916F9147
:1009B0005F914F913F912F910F900FBE0F901F901D
:1009C00018951F920F920FB60F9211242F933F93F9
:1009D0004F935F936F937F938F939F93AF93BF9347
:1009E000EF93FF93E0910001F09101010995FF91D0
:1009F000EF91BF91AF919F918F917F916F915F9197
:100A00004F913F912F910F900FBE0F901F9018950F
:100A10000F931F93CF93DF938C01EB010E947824F7
:100A20008883C80101960E9478248983CE01DF91D2
:100A3000CF911F910F910895CF93DF93C0910A0139
:100A4000D0910B010E94E202BE01681B790B072EB8
:100A5000000C880B990B0E94C321209176023091E3
:100A6000770240917802509179020E9478220E9488
:100A70008B21CB0177FF02C080E090E0DF91CF9126
:100A800008951F93CF93DF93182FC82FD0E0FE0156
:100A9000E45CFE4F80810E942202FE01E458FD4F7B
:100AA00090819817E1F040911701813059F48083CB
:100AB00021E030E001C0220F1A95EAF7242B2093A1
:100AC000170111C0108221E030E0C90101C0880F78
:100AD0001A95EAF7809584238093170103C081E07B
:100AE000913009F080E0DF91CF911F9108950F932D
:100AF0001F93CF930CE311E0C0E0F80181918F01C7
:100B0000833619F08C2F0E944105CF5FC630A9F7BC
:100B1000CF911F910F9108958F929F92AF92BF92A4
:100B2000CF92DF92EF92FF921F93CF93DF93C82F64
:100B30004A015B010E946A24C1110E947705C0909E
:100B40001503D0901603E0901703F090180385E08A
:100B5000CC0CDD1CEE1CFF1C8A95D1F7C828D928C7
:100B6000EA28FB286091850270E080E090E00E9416
:100B70003503C5E0D0E018E010920003C0920103F5
:100B8000D0920203E0920303F09204031093050352
:100B900010920E03E3E1F1E0A6E0B3E081918D93C2
:100BA00081E0EB31F807D1F70E94070D882311F09F
:100BB000219711F7DF91CF911F91FF90EF90DF9078
:100BC000CF90BF90AF909F908F9008950F931F93F9
:100BD00000912D0310912E0320912F0330913003AB
:100BE0006017710782079307B1F1009129031091F3
:100BF0002A0320912B0330912C0360177107820781
:100C0000930759F100911D0310911E0320911F03BA
:100C100030912003601771078207930701F100915B
:100C20002503109126032091270330912803601794
:100C3000710782079307A9F0009121031091220305
:100C400020912303309124036017710782079307D3
:100C500051F080E009C081E007C082E005C083E078
:100C600003C084E001C085E01F910F9108958F9229
:100C70009F92AF92BF92EF92FF920F931F93CF93E9
:100C8000DF934B015C01142FC22F0E94E605809375
:100C9000140181E080931501111101C01AE0D0E028
:100CA000E02EF12CCE15DF0570F480913203909187
:100CB0003303C817D90728F4B501A401CE010E9457
:100CC000320B2196EFCF0E94740A612F70E080E012
:100CD00090E0DF91CF911F910F91FF90EF90BF9027
:100CE000AF909F908F900C9435030F9380911201D9
:100CF000882399F16091190370911A0380911B0365
:100D000090911C0300E220E040E00E943706109220
:100D10007B020E94770510921201109282021092BB
:100D20008402109283028091150390911603A09182
:100D30001703B091180383309105A105B10521F087
:100D40000897A105B10549F460E085E00E944B02D7
:100D500060E086E00F910C944B020F9108950F9381
:100D6000E3E1F1E086E0818385E082836091210305
:100D700070912203809123039091240300E220E0EC
:100D800044EF0E94370664E670E080E090E00E9445
:100D9000350360912D0370912E0380912F03909164
:100DA000300320E044EF0E94370664E670E080E004
:100DB00090E00E9435036091290370912A0380918D
:100DC0002B0390912C0320E044EF0E94370664E649
:100DD00070E080E090E00E94350360911D03709107
:100DE0001E0380911F039091200320E044EF0E9496
:100DF000370664E670E080E090E00E943503609181
:100E0000250370912603809127039091280320E009
:100E100044EF0E94370664E670E080E090E00E94B4
:100E200035036091190370911A0380911B0390910F
:100E30001C0320E044EF0E9437060F9108955F9253
:100E40006F927F928F929F92AF92BF92CF92DF92DA
:100E5000EF92FF920F931F93CF93DF931F92CDB723
:100E6000DEB74B015C01522E7E2C49830E94E605C1
:100E70008093140184E0809315014981411101C0E0
:100E80004AE0511002C05524539410E0C42ED12CD6
:100E9000E12CF12C81E08515F0F4602E1AC0409110
:100EA000190350911A0360911B0370911C03862D46
:100EB00090E020913203309133038217930710F4AE
:100EC0000E94320B0E94740AC701B6010E943503CA
:100ED0006394671420F3602E14C0862D90E0209157
:100EE0003203309133038217930720F4B501A40134
:100EF0000E94320B0E94740AC701B6010E9435039A
:100F00006394671450F31F5F1511C4CF0F90DF91E6
:100F1000CF911F910F91FF90EF90DF90CF90BF90F6
:100F2000AF909F908F907F906F905F900895CF9239
:100F3000DF92EF92FF920F931F93CF93DF93182FBF
:100F40000E94E202EC0160911D0370911E038091EA
:100F50001F039091200330E2E32E00E020E040E008
:100F60000E941F0785E491E090930D0180930C018E
:100F700090930B0180930A011092760210927702EF
:100F80001092780210927902CD32D14024F00E9462
:100F9000E202EC01F9CF87E592E00E94870D0E9402
:100FA000E20220910C0130910D018217930724F485
:100FB00090930D0180930C018534914084F38FB799
:100FC000F894C0909F02D090A002E090A102F0900F
:100FD000A2028FBF88EEC80E83E0D81EE11CF11C70
:100FE0002FB7F89480919F029091A002A091A10246
:100FF000B091A2022FBF8C159D05AE05BF0570F400
:101000000E94E20220910A0130910B012817390752
:101010003CF790930B0180930A01E2CFC0910A0143
:10102000D0910B016E97D0930B01C0930A01612FF1
:1010300070E080E090E00E94C1216B017C01809112
:101040000C0190910D019E01281B390BB901330F42
:10105000880B990B0E94C3219B01AC01C701B6010B
:101060000E94192160937602709377028093780230
:10107000909379026091190370911A0380911B0378
:1010800090911C0320E2E22E00E020E040E00E946C
:101090001F076CE071E081E090E00E94EE016AE0E1
:1010A00071E083E090E00E94EE0180910C0190914C
:1010B0000D010E94AA0E80910A0190910B010E94DD
:1010C000AA0E6091760270917702809178029091D9
:1010D00079020E94E30D81EF91E0DF91CF911F91A2
:1010E0000F91FF90EF90DF90CF900C94870D80913F
:1010F000150390911603A0911703B091180306975A
:10110000A105B10548F460912D0370912E038091E3
:101110002F039091300308956091290370912A0361
:1011200080912B0390912C030895CF93CFB7F8941F
:1011300080919D02811127C0E1E7F1E08491E4E410
:10114000F1E09491E82FF0E0EE0FFF1FE850FF4F21
:10115000A591B491EC91E92321F461E081E10E9431
:101160004B0261E081E10E947B028CB580618CBD05
:101170008CB580648CBD61E08FE00E947B0261E0F1
:1011800080E10E947B0280919D028F5F80939D028F
:10119000CFBFCF9108958EBD00000DB407FEFDCFE7
:1011A0008EB50895EF92FF920F931F93CF93DF9325
:1011B0001F92CDB7DEB7182FF62EE42E60E0809197
:1011C000100379830E944B0283E00E94CB08812F99
:1011D0000E94CB080F2D7981172FF12CFE1459F0A6
:1011E000F8E0FF1641F080E00E94CB08F8018193FF
:1011F0008F01F394F3CF61E0809110030F90DF91A2
:10120000CF911F910F91FF90EF900C944B021F9381
:10121000CF93DF93182FC0E0D3E060E088890E946D
:101220004B0283E00E94CB08812F0E94CB0880E014
:101230000E94CB08182F61E088890E944B02812F01
:10124000DF91CF911F9108950F931F93CF93DF9359
:1012500000D000D0CDB7DEB7182F10920003109247
:10126000010310920203109203031092040344E05E
:10127000BE016F5F7F4F0E94D2088A819981482FFB
:1012800050E065E0559547956A95E1F728E0929F13
:10129000400D511D1124052E000C660B770B409359
:1012A000010350930203609303037093040383FFCD
:1012B00029C092E0440F551F661F771F9A95D1F7FA
:1012C0008370480F511D611D711D762F652F542F9E
:1012D00044278B81480F511D611D711D762F652F8D
:1012E000542F44278C81480F511D611D711D40935F
:1012F000010350930203609303037093040381E09E
:10130000809300038FEF810F0E940709082F84E06C
:10131000810F0E940709482F03FF04C081E08093DA
:101320000E0302C010920E034F704093050366E057
:1013300073E085E0810F0E94D2080F900F900F900C
:101340000F90DF91CF911F910F910895EF92FF922F
:101350000F931F93CF93DF931F92CDB7DEB7082F64
:10136000162F80E0E82E83E0F82E60E0F7018089F8
:1013700049830E944B0285E00E94CB08802F0E9487
:10138000CB08812F0E94CB084981842F0E94CB0873
:1013900061E0F70180890F90DF91CF911F910F914C
:1013A000FF90EF900C944B02CF93C82F482F60EE24
:1013B0008FE00E94A6098FE00E940709807E91E0DD
:1013C0008C1301C090E0892FCF9108950F931F9344
:1013D000CF93DF93082F162FC0E0D3E060E0888919
:1013E0000E944B0282E00E94CB08802F0E94CB0813
:1013F000812F0E94CB0861E08889DF91CF911F91F6
:101400000F910C944B02CF92DF92FF920F931F9398
:10141000CF93DF931F92CDB7DEB7F82E162F042F90
:1014200060E08091100379830E944B0282E00E9469
:10143000CB088F2D0E94CB08F12EC12E7981D72E9B
:101440008C2D8F19801730F4F60181916F010E9465
:10145000CB08F6CF61E0809110030F90DF91CF9120
:101460001F910F91FF90DF90CF900C944B020F9340
:101470001F93CF93DF9300D000D0CDB7DEB761309C
:10148000B9F42C833B838A0122273327602F6C71A8
:10149000902F937048E0649F900D112498609A8378
:1014A000980175E0369527957A95E1F729830DC067
:1014B000B90193E0769567959A95E1F7698322954E
:1014C000220F207E2A831C821B8244E0BE016F5FB4
:1014D0007F4F0E94030A0F900F900F900F90DF91A3
:1014E000CF911F910F9108950F931F93CF93DF9387
:1014F000CDB7DEB729970FB6F894DEBF0FBECDBFCC
:101500008091390390913A03892B09F4A0C00E947D
:10151000100300913E0310913F032091400330914E
:101520004103DC01CB01801B910BA20BB30BC297D3
:10153000A105B10560F3F8948091340390913503CF
:101540009A838983E0913903F0913A03DF01119680
:101550008081898790913703E0914203F0914303A2
:101560008091440391FF2EC09081982B98879081A1
:10157000809589238F838F818C8388E08B83588526
:101580006F8149853B812C8189819A81508347FDF8
:10159000252F3A952083262F39F0441F00C00000E4
:1015A0006083000000C0F2CF38E04D9160830000FE
:1015B000019761F7F0934303E093420349873B832C
:1015C0002C8338C09081982B9887908180958923AF
:1015D0008F838F818E8388E08D8358856F814985C5
:1015E0003D812E8189819A81508347FD252F00C03E
:1015F00000C0208300C000C000C000C000C06083E5
:101600000000262F3A9541F0441F000000C000C0A2
:1016100000C000C000C0E8CF38E04D9100C060833A
:1016200000C0019709F7F0934303E0934203498711
:101630003D832E839A83898378940E94100360935C
:101640003E0370933F038093400390934103299698
:101650000FB6F894DEBF0FBECDBFDF91CF911F91C3
:101660000F9108958F929F92AF92BF92CF92DF9287
:10167000EF92FF924B01AA24BB24F82DC52ED62E43
:10168000E72EFF24EC2D342F20913803222361F024
:10169000829E40011124F92DC29E60011124ED2D7E
:1016A000429FA0011124352FAC01440F551F840F18
:1016B000951F4091390350913A03840F951F209153
:1016C0003B03DC01A20FB11DFC9320913C03DC0124
:1016D000A20FB11DEC9320913D03FC01E20FF11D1F
:1016E0003083FF90EF90DF90CF90BF90AF909F90AE
:1016F0008F9008951F93CF93DF93C0E0D3E060E015
:1017000088890E944B0280EA0E94CB0880E00E94F8
:10171000CB08182F61E088890E944B02812FDF914E
:10172000CF911F9108950E947A0B80FF06C081E639
:101730000E94240940E061E007C081FF1CC081E7EE
:101740000E94240940E062E08CE20E94A609809198
:1017500005038093AF02A6E0B3E0E7EAF2E090E091
:101760009F01275A3240281739071CF42D912193E5
:10177000F7CF80E008951092AF0284E00895CF93F0
:10178000DF93C82F60E0809110030E944B0280EC31
:101790000E94CB0861E0809110030E944B026AE036
:1017A00070E080E090E00E94350380E80E94D40958
:1017B000D82F6AE070E080E090E0D11186C00E94EE
:1017C00035034C2F50E0FA013197E131F10508F073
:1017D00078C0EB59FF4F0C94A120C7E8DFEF6FE111
:1017E00033C0C7E0DAEB79C0C5E8D1EF76C0C7E017
:1017F000DEEB69E029C0C7E8DFEF02C0C7E8DAEF37
:1018000067E022C0C7E8DFEF0BC0C7E0DEEB08C02F
:10181000C7E0DDEA05C0C7E8DAEF02C0C6E8D0EFEE
:1018200063E012C0C7E8DAEF61E00EC0C5E8D1EFAF
:1018300061E40AC0C6E8D0EF02C0C2E8D0ED60E0C3
:1018400003C0C7E8DFEF6FE38AE20E94E6096D2F6D
:1018500089E20E94E6096C2F88E20E94E6096AE0AC
:1018600070E080E090E00E943503C0E360E08C2FE0
:101870000E94E60960E080E18C0F0E94E60960E0CA
:1018800080E28C0F0E94E609CF5FCE3379F760E0EB
:1018900080E60E94E60960E080E70E94E60963E0D6
:1018A0008BE20E94E60944E064E680E60E94A60915
:1018B00040E060E680E70E94A60980E00E94D4092B
:1018C000D82F6AE070E080E090E00E9435038D2F11
:1018D000DF91CF910895C7E8DFEF6FE0B5CFCF93E9
:1018E000DF93D82F6AE070E080E090E00E9435033B
:1018F00080E80E94D409C82F882329F06AE070E0AC
:1019000080E090E01DC0D11107C02FE130E040E041
:1019100050E060E080E208C0D13041F42FE130E0D7
:1019200040E050E060E084E20E94370A80E00E94DC
:10193000D409C82F6AE070E080E090E0CC2321F069
:101940000E9435038C2F03C00E94350380E0DF9195
:10195000CF9108950F931F93CF93DF9300D000D0C2
:10196000CDB7DEB7082F9A01AB016AE070E080E0E6
:1019700090E029833A834B835C830E94350380E89F
:101980000E94D409182F29813A814B815C818823D8
:1019900029F06AE070E080E090E029C0023099F020
:1019A00038F4002369F00130C1F460E084E013C032
:1019B000043079F058F0053081F460E088E10BC024
:1019C00060E080E008C060E088E005C060E080E1A1
:1019D00002C060E084E10E94370A80E00E94D409DE
:1019E000182F6AE070E080E090E0112321F00E945F
:1019F0003503812F03C00E94350380E00F900F90C4
:101A00000F900F90DF91CF911F910F9108950F9339
:101A10001F93CF93DF9300E010E080E50E94070959
:101A2000982F987083FD02C0C1E502C0C0E092E02B
:101A30000F5F1F4F923021F40233110571F747C039
:101A40000233110509F443C04091050366E073E0D9
:101A500085E08C0F0E94030A80910E03813029F4E7
:101A6000809105038064809305036091050384E001
:101A70008C0F0E94E60920910103309102034091EE
:101A8000030350910403609100038C2F0E94370AD6
:101A9000C15048E068E08C2F0E94A60900E010E0E9
:101AA0000F5F1F4F8C2F0E940709D82F61E070E055
:101AB00080E090E00E943503D3FF04C0023311059B
:101AC00079F707C00233110521F080E003C086E0FA
:101AD00001C087E0DF91CF911F910F910895BC0164
:101AE000009791F0FC0101900020E9F73197AF01D8
:101AF000481B590BE091B002F091B1020280F381D2
:101B0000E02D80EB92E0099480E090E00895CF937F
:101B1000DF930E946F0DEC0189E691E00E946F0D4A
:101B20008C0F9D1FDF91CF9108958F929F92AF925E
:101B3000BF920F931F93CF93DF93CDB7DEB7A197DB
:101B40000FB6F894DEBF0FBECDBF19A2423008F425
:101B50004AE08E010F5D1F4F842E912CA12CB12CD9
:101B6000A50194010E94C024E62FB901CA010150C9
:101B70001109EA3014F4E05D01C0E95CD801EC938E
:101B8000232B242B252B61F7C8010E946F0DA196F2
:101B90000FB6F894DEBF0FBECDBFDF91CF911F917E
:101BA0000F91BF90AF909F908F900895E091B002F9
:101BB000F091B1020190F081E02D682F80EB92E06E
:101BC00009940E9417244F925F926F927F928F9296
:101BD0009F92AF92BF92CF92DF92EF92FF926B01F2
:101BE0007C019B01AC010E94E522882319F089E663
:101BF00092E01AC046015701E894B7F82FEF3FEF83
:101C00004FE75FE7C501B4010E94E522811110C0D2
:101C10002FEF3FEF4FE75FE7C501B4010E941421AA
:101C2000181634F48DE692E00E946F0D7C017FC09F
:101C30002FEF3FEF4FE75FE4C701B6010E94732229
:101C400018161CF481E792E0EFCF2FEF3FEF4FE73C
:101C50005FECC701B6010E94142187FDF3CF20E09D
:101C600030E0A901C701B6010E94142187FF09C015
:101C70008DE20E94D60D5C01F7FAF094F7F8F0942B
:101C800002C0A12CB12C2AE037ED43EA5BE3C70187
:101C9000B6010E94A8202B013C010E9492216B01F9
:101CA0007C010E94C1219B01AC01C301B2010E94D1
:101CB000A7202B013C014AE0C701B6010E94950D07
:101CC0007C01EA0CFB1C8EE20E94D60DE80EF91E88
:101CD00020E030E040E251E4C301B2010E947822EA
:101CE0002B013C010E9492214B01A12CB12C4AE016
:101CF000C501B4010E94950DE80EF91EC501B4019D
:101D00000E94C1219B01AC01C301B2010E94A72026
:101D100020E030E040E251E40E9478220E949221CB
:101D200080E090E04AE00E94950DE80EF91E89E6F9
:101D300091E00E946F0D8E0D9F1DFF90EF90DF9040
:101D4000CF90BF90AF909F908F907F906F905F905B
:101D50004F900895CF92DF92EF92FF92CF93DF934F
:101D60006C01990FEE08FF08F7FE12C08DE20E9489
:101D7000D60DEC0166277727CB016C197D098E09FA
:101D80009F094AE00E94950D7C01EC0EFD1E06C0E5
:101D90004AE0C701B6010E94950D7C0189E691E0F9
:101DA0000E946F0D8E0D9F1DDF91CF91FF90EF90E0
:101DB000DF90CF900895FC0180914E03811103C004
:101DC0008FEF9FEF08959FB7F89482E08093E9002A
:101DD0002091F20030E01216130614F421E030E0F6
:101DE0002115310559F0289884E680934D038091A0
:101DF000F10080838091F200882319F09FBFC90110
:101E000008958BE68093E800F9CF80915403811107
:101E10000DC082E08093500384E0809351031092C0
:101E200053031092520381E08093540380E593E0C2
:101E300008951F920F920FB60F9211248F939F93C4
:101E40008091E1009091E100937F9093E10083FF06
:101E50000FC01092E90091E09093EB001092EC001B
:101E600092E39093ED0010924E0398E09093F0006F
:101E700082FF20C093E09093E9009091F2009923B3
:101E800019F09AE39093E80090914C03992339F06C
:101E900090914C03915090934C03992389F1909128
:101EA0004D03992339F090914D03915090934D0338
:101EB000992341F184FF10C08091E2008E7E816001
:101EC0008093E2008091E1008F7E8093E100809119
:101ED0004B038E7E806111C080FF16C08091E200AE
:101EE0008E7E80618093E2008091E1008E7E8093FF
:101EF000E10080914B038E7E816080934B0304C090
:101F00005D9ACDCF289AD6CF9F918F910F900FBE1B
:101F10000F901F9018951F920F920FB60F921124D9
:101F2000CF92DF92EF92FF920F931F932F933F93E5
:101F30004F935F936F937F938F939F93AF93BF93D1
:101F4000EF93FF93CF93DF93CDB7DEB76C97DEBFF0
:101F5000CDBF1092E9008091E80083FFFAC168E0EC
:101F6000CE0145960E94B71282EF8093E8008D89DA
:101F700087FF05C09091E80090FFFCCF03C09EEF63
:101F80009093E800982F907609F0C6C09E892F891B
:101F9000188D91110CC0803829F480914A038093E8
:101FA000F10002C01092F1001092F10047C1422FDF
:101FB00050E0512B913051F4811140C14130510515
:101FC00009F03CC180914A038D7F0BC0933061F4CE
:101FD000811134C14130510509F030C180914A036B
:101FE000826080934A032AC1953041F48091E800D1
:101FF00080FFFCCF20682093E30020C1963009F0D9
:102000005FC0EB8CFC8C1092E90010924803109298
:102010004703123091F510924603109245030E9437
:10202000851299E0BE016F5F7F4FDB01E92F1D92A2
:10203000EA95E9F799831A8391E09E8390EA98875D
:102040009AEF99872091470330914803275F3F4FCC
:102050003C832B838D831092E900109248031092E9
:102060004703F0924603E092450349E050E080E0E8
:102070000E945E120E948512E1C0F0924603E09237
:1020800045030E94050FDC011296ED90FC9013971A
:10209000E114F10409F4C0C0D701ED91FC91048072
:1020A000F581E02DBE016B5E7F4FC701099500975A
:1020B00019F00CF0C3C0C6C0F701E084F184E8CF8A
:1020C000973009F4BFC0983021F481E08093F1008B
:1020D000B5C0993009F0B2C0837009F0B3C0E9E52A
:1020E000F1E081E021E036E39081992361F0809373
:1020F000E9002093EB0091919093EC003093ED0078
:102100008F5F873089F78EE78093EA001092EA00AC
:102110008F8980934E0392C08B8D9C8D1092E90025
:10212000109248031092470390934603809345030F
:10213000898D811156C08E899D89913A59F48132D9
:1021400009F080C047E050E062E271E080E00E9468
:102150005E1274C0913209F075C0833289F4888DA3
:1021600090E0982F88272F89822BA0E0B0E0809301
:102170001E0190931F01A0932001B09321015EC026
:10218000803269F48091E80082FFFCCF67E082E250
:1021900091E00E94B7128BEF8093E80006C0823274
:1021A00009F04CC08F8980932901809149038823CD
:1021B00019F0EEEFFAE002C0E0E0F8E080912201D1
:1021C00090912301A0912401B0912501803B94407E
:1021D000A105B10509F088C08091290180FFA0C048
:1021E00083C00E94050FDC0112960D911C9113977C
:1021F0000115110539F1D801ED91FC910190F081A3
:10220000E02DBE016B5E7F4FC8010995811116C09C
:10221000F80100851185ECCF1130C1F0133091F435
:102220008F89882309F455C08230E9F440E860E1E1
:102230008FE891E00E942112882321F08EEF809395
:10224000E80087C081E28093EB0083C08B8D9C8D7A
:10225000089711F410934F0380914F03811136C0FA
:1022600060EA71E038C0813029F440E86BE083E82F
:1022700091E0E0CF833031F70E94050FDC01129628
:10228000ED90FC9013978E010F5F1F4F6801E114D2
:10229000F10479F0D701ED91FC910680F781E02DF2
:1022A000B801C7010995080F111DF701E084F184F9
:1022B000EECFD8011C92F60101900020E9F731978A
:1022C000BF016C197D0940E0C601B4CF62EB71E03B
:1022D00002C06FE771E06115710509F4B3CFFB012E
:1022E000449150E080E833CF0FB6F894A8958091E0
:1022F0006000886180936000109260000FBEA89516
:10230000EE3F2AE0F20739F08091FE0A9091FF0A31
:102310009183808393CF1092FF0A1092FE0A8ECF92
:10232000EE3F8AE0F80731F0808191819093FF0AB7
:102330008093FE0A87E797E7918380839BE088E19B
:102340000FB6F894A895809360000FBE909360003C
:1023500075CF6C960FB6F894DEBF0FBECDBFDF9180
:10236000CF91FF91EF91BF91AF919F918F917F910D
:102370006F915F914F913F912F911F910F91FF901E
:10238000EF90DF90CF900F900FBE0F901F90189599
:1023900040914703509148032091450330914603F3
:1023A00042175307B4F49091E8009570E1F39091CF
:1023B000E80092FD19C08093F1008091470390914D
:1023C000480301968F739927892B19F48EEF809318
:1023D000E800809147039091480301969093480349
:1023E0008093470381E0089580E00895CF92DF92C3
:1023F000EF92FF920F931F93CF93DF936C017A01BB
:102400008B01C0E0D0E0CE15DF0589F0D8016D91D9
:102410008D01D601ED91FC910190F081E02DC60176
:102420000995892B11F47E0102C02196ECCFC701DA
:10243000DF91CF911F910F91FF90EF90DF90CF90A0
:102440000895CF92DF92EF92FF920F931F93CF9355
:10245000DF931F92CDB7DEB7182F062FE42E862FFD
:10246000880F8E5F99830E94C81183E00E94C81173
:10247000F12EC12E9981D92E8C2D8F19801798F4A9
:10248000F601E7FE02C0849101C080810E94C8115C
:10249000182F80E00E94C8118123FFEFCF1ADF0AB6
:1024A0008111EACF01C081E00F90DF91CF911F91A0
:1024B0000F91FF90EF90DF90CF900895DF92EF9211
:1024C000FF920F931F93CF93DF93D82E8A017B0146
:1024D000E40EF51EEB01CE15DF0571F0D7FE03C04B
:1024E000FE01849101C088810E94C811219681114A
:1024F000F2CF8FEF9FEF01C0C801DF91CF911F9105
:102500000F91FF90EF90DF9008950F931F93CF935B
:10251000DF931F92CDB7DEB782E0898342E450E0BB
:1025200064EC71E080E80E945E120E94050FDC01FD
:1025300012960D911C9113970115110569F0D801A0
:10254000ED91FC910280F381E02DBE016F5F7F4F22
:10255000C801099597FF07C089810F90DF91CF913E
:102560001F910F910895F80100851185E5CF615005
:1025700030F02091F100FC0120830196F8CF2898DB
:1025800084E680934D030895CF93DF93CDB7DEB7F4
:1025900029970FB6F894DEBF0FBECDBF789484B5EF
:1025A000826084BD84B5816084BD85B5826085BD4F
:1025B00085B5816085BD80916E00816080936E00DD
:1025C00010928100809181008260809381008091CF
:1025D0008100816080938100809180008160809380
:1025E00080008091910082608093910080919100A1
:1025F0008160809391008091900081608093900031
:102600008091C10084608093C1008091C10082608C
:102610008093C1008091C10081608093C10080914E
:10262000C30081608093C3008091C000826080936A
:10263000C0008091C20081608093C20080917A00C6
:10264000846080937A0080917A00826080937A001F
:1026500080917A00816080937A0080917A0080680E
:1026600080937A0010924E0310924A0310924B030B
:102670008091D70081608093D70080EA8093D80052
:1026800089B5806189BD89B5826089BD09B400FEC4
:10269000FDCF61E070E080E090E00E943503809122
:1026A000D8008F7C80618093D8008091E000807F8B
:1026B0008093E0008091E1008E7E8093E1008DE0C8
:1026C0008093E200559A209AEEEFFFE7859194916E
:1026D0008B3F9C4D19F481E0809349038091150351
:1026E0009091160324E6289FB001299F700D1124B4
:1026F0008FEF9FEF9093BD028093BC0268517C4F97
:10270000072E000C880B990B0E9435038FE591E092
:102710000E946F0D6091150370911603809117034D
:10272000909118034AE00E94950D89E691E00E947D
:102730006F0D81E00E94B702BC01990F880B990BC5
:10274000611571058105910511F00E946F240E94A9
:10275000770860931103709312038093130390938F
:10276000140300912D0310912E0320912F0330911B
:102770003003601771078207930729F485E190E021
:10278000A0E0B0E004C086E190E0A0E0B0E080937B
:102790000E0190930F01A0931001B093110161E01D
:1027A00087E10E947B0261E087E10E944B028091F9
:1027B000150390911603A0911703B091180383306D
:1027C0009105A105B10521F00897A105B105A1F476
:1027D00061E085E00E947B0261E086E00E947B026E
:1027E00060E085E00E944B0260E086E00E944B02C0
:1027F00062E084E00E947B028CE691E00E94870DFB
:102800008091360387FD08C061E00E947B0260E092
:10281000809136030E944B0281E0809331030E9435
:10282000740A0E94AF0660912D0370912E0380916F
:102830002F039091300300E220E040E00E94370631
:102840008AE791E00E94870DFCE3CF2EF1E0DF2EB6
:1028500010E0F6018081833609F44DC062E00E94E9
:102860007B028AE891E00E946F0DF601608170E0C2
:1028700080E090E04AE00E94950D8FE891E00E9490
:102880006F0D812F0E944105682F70E080E090E07D
:102890004AE00E94950D812F0E944105811112C0CE
:1028A0006091290370912A0380912B0390912C034E
:1028B000E8E0EE2E00E020E040E00E941F0783E900
:1028C00091E011C060911D0370911E0380911F0360
:1028D0009091200358E0E52E00E020E040E00E94C7
:1028E0001F0789E991E00E94870D6AEF70E080E0A0
:1028F00090E00E943503FFEFCF1ADF0A1F5F16300A
:1029000009F0A7CF84EA91E00E94870D85EB91E062
:102910000E946F0D0E94950888E00E94BF0B8111F4
:1029200099C16091290370912A0380912B039091A2
:102930002C03E0E1EE2E08E020E040E00E941F07BB
:1029400086E991E00E94870D88EA91E09093090161
:102950008093080180916A008F7C806280936A0076
:10296000EE9A80E00E946F0C81E00E946F0C409113
:10297000150350911603609117037091180380E0BE
:102980000E94AA0C40E050E0BA0181E00E94AA0C2B
:10299000409115035091160360911703709118032D
:1029A00082E00E94AA0C40E050E0BA0183E00E945D
:1029B000AA0C40910E0150910F016091100170918D
:1029C000110184E00E94AA0C409115035091160356
:1029D000609117037091180385E00E94AA0C209162
:1029E0001503309116034091170350911803A8EE78
:1029F000B3E00E94AD240E943503809115039091AD
:102A00001603A0911703B0911803F5E0880F991FE2
:102A1000AA1FBB1FFA95D1F78F6110920003809314
:102A2000010390930203A0930303B093040388E08F
:102A30008093050310920E03E8E8F2E0A6E0B3E00D
:102A400081918D9322E0E039F207D1F70E94070DC2
:102A500064E670E080E090E00E94350380917A02A5
:102A6000882351F010927A020E947A0B837009F445
:102A700005C10E94930BF8CF60911D0370911E0356
:102A800080911F039091200348E1E42E00E120E0B3
:102A900040E00E941F0787EC91E00E94870D60E1F3
:102AA00077E280E090E00E94350360911903709115
:102AB0001A0380911B0390911C0300E220E040E088
:102AC0000E94370688ED91E00E94870D60E082E168
:102AD0000E947B028AEF91E00E94870D6CE071E01A
:102AE00081E090E00E9408056AE071E083E090E0F8
:102AF0000E94080500910A0110910B01B801012EF6
:102B0000000C880B990B0E94C32120E030E0A90142
:102B10000E941421882391F0E0900C01F0900D01A7
:102B2000B7010F2C000C880B990B0E94C32120E0E9
:102B300030E0A9010E941421811119C060911D0388
:102B400070911E0380911F039091200300E220E00A
:102B500040E00E943706109276021092770210929F
:102B60007802109279028AE00E9497073AC0B80171
:102B70006E197F09072E000C880B990B0E94C32148
:102B80009B01AC0160E070E080E291E40E941921B9
:102B90006093760270937702809378029093790223
:102BA0006091290370912A0380912B0390912C034B
:102BB00030E2E32E00E020E040E00E941F0768EED4
:102BC00073E080E090E00E943503609129037091EA
:102BD0002A0380912B0390912C0320E040E00E9477
:102BE0001F0780910C0190910D010E94AA0E809107
:102BF0000A0190910B010E94AA0E609176027091D9
:102C0000770280917802909179020E94E30D81EF22
:102C100091E00E94870D10928702109286026091C7
:102C2000290370912A0380912B0390912C0320E2B9
:102C3000E22E08E120E040E00E941F071E0189E02B
:102C4000280E311C11E009E0402E0E947A0B83709F
:102C500039F144C78CE192E00E94870D60911D0319
:102C600070911E0380911F039091200350E1E52E87
:102C700008E020E040E00E941F0748CE6091290351
:102C800070912A0380912B0390912C0348E1E42E4C
:102C900000E120E040E00E941F0786E492E0FDCEC4
:102CA00080919A02883009F027C39091990280910F
:102CB0001D01913009F0EFC0813071F48091120153
:102CC000882309F419C360911D0370911E0380913C
:102CD0001F039091200374C0823009F40DC3833028
:102CE00041F580911201882309F406C36091250300
:102CF00070912603809127039091280300E220E041
:102D000040E00E94370610921201809115039091C5
:102D10001603A0911703B091180383309105A10504
:102D2000B10529F00897A105B10509F0E5C261E0F8
:102D300075C08430E9F480911201882309F4DCC263
:102D40001092120110929702809115039091160330
:102D5000A0911703B091180383309105A105B10527
:102D600009F042C161E085E00E944B0261E05AC077
:102D70008530E1F580911201882309F4BDC280916C
:102D8000150390911603A0911703B0911803833097
:102D90009105A105B10521F00897A105B10541F400
:102DA00061E085E00E944B0261E086E00E944B02F8
:102DB0006091250370912603809127039091280349
:102DC00000E2E02E00E021E040E00E941F07609159
:102DD000190370911A0380911B0390911C0321E049
:102DE00040E00E941F0710921201A4C08630F1F447
:102DF00080911201882309F47FC210921201809100
:102E0000150390911603A0911703B0911803833016
:102E10009105A105B10509F08FC160E085E00E9430
:102E20004B0260E086E00E944B0266C2873009F4E4
:102E300070C1883009F049C080911201882309F4DB
:102E40005BC26091250370912603809127039091C6
:102E50002803B0E2EB2E00E021E040E00E941F07D3
:102E600060911D0370911E0380911F0390912003B8
:102E700021E040E00E941F076091190370911A033E
:102E800080911B0390911C0321E040E00E941F07EA
:102E90001092120159CF923009F02EC28130C1F048
:102EA000823009F429C2833009F447C0843009F420
:102EB00042CF853009F49EC0863009F499CF87301F
:102EC00009F427C1883009F43DC10E94750614C277
:102ED00080911201882309F40FC260912D03709133
:102EE0002E0380912F0390913003A0E2EA2E00E0A0
:102EF00021E040E00E941F076091190370911A03BE
:102F000080911B0390911C0321E040E00E941F0769
:102F100010921201109298020E9477086093110398
:102F2000709312038093130390931403109219016A
:102F300010921A0110929702DFC18091120188232A
:102F400009F448C08091840281110FC0609125036B
:102F5000709126038091270390912803F0E2EF2ED1
:102F600000E021E040E00E941F0760912103709182
:102F70002203809123039091240300E128E040E0A4
:102F80000E94370660912D0370912E0380912F03CC
:102F90009091300308E020E040E00E943706109254
:102FA00012018091150390911603A0911703B0911F
:102FB000180383309105A105B10521F00897A105FB
:102FC000B10541F461E085E00E944B0260E086E0DB
:102FD0000E944B028091970281118EC180918302E1
:102FE000882309F45AC177C00897A105B10509F0F3
:102FF00083C1B8CE80911201882309F463C0809107
:10300000150390911603A0911703B0911803833014
:103010009105A105B10521F00897A105B10541F47D
:1030200061E085E00E944B0261E086E00E944B0275
:1030300060912503709126038091270390912803C6
:10304000E0E2EE2E00E021E040E00E941F078091C8
:10305000840281110CC06091250370912603809138
:1030600027039091280321E040E00E941F07609110
:10307000210370912203809123039091240300E1A6
:1030800028E040E00E94370680918302882349F0BF
:103090006091290370912A0380912B0390912C0356
:1030A00008C060912D0370912E0380912F039091A1
:1030B000300308E020E040E00E9437061092120141
:1030C0001092970280919702811116C1809183021C
:1030D000882309F411C182E080931A0110928202C0
:1030E0004FE150E060E070E080E00E948C0560916C
:1030F000290370912A0380912B0390912C0350E1B6
:10310000E52E08E020E040E00E941F0710939702A0
:10311000F3C080911201882309F4EEC06091190375
:1031200070911A0380911B0390911C0300E220E030
:1031300040E00E94370661CE0897A105B10509F06D
:10314000DBC06BCE80911201882309F442C06091EC
:10315000250370912603809127039091280340E274
:10316000E42E00E021E040E00E941F0760911D0373
:1031700070911E0380911F039091200321E040E095
:103180000E941F07609125037091260380912703F9
:103190009091280321E040E00E941F071092120145
:1031A0008091150390911603A0911703B091180315
:1031B00083309105A105B10521F00897A105B1055E
:1031C00041F461E085E00E944B0261E086E00E94EC
:1031D0004B02E0909302F09094020E941C059093A1
:1031E0009402809393028930910554F110939802D0
:1031F000E816F90609F444C082E080931A0110929F
:1032000082024FE150E060E070E080E00E948C05B7
:103210006091290370912A0380912B0390912C03D4
:1032200030E1E32E08E020E040E00E941F0710920A
:1032300098026AE070E080E090E00E94350320C0D0
:10324000E816F906E9F0809198028111D5CF109324
:103250001A01109382024FE150E060E070E00E949A
:103260008C0560912D0370912E0380912F03909116
:10327000300320E1E22E08E020E040E00E941F073A
:1032800000917C020E94770580917C020817A1F1D1
:1032900080E00E9441058823A9F088E080931A010C
:1032A0004FE150E060E070E080E00E948C051093F8
:1032B00083026091290370912A0380912B039091DE
:1032C0002C0313C040921A014FE150E060E070E01F
:1032D00080E00E948C051092830260912D03709112
:1032E0002E0380912F039091300308E0E02E00E040
:1032F00020E040E00E941F0790919A0280911D01FA
:10330000993009F0BFC090919902913069F5909180
:1033100012018130D9F4992309F439C360912D0346
:1033200070912E0380912F0390913003B0E2EB2E29
:1033300000E021E040E00E941F07609121037091AE
:103340002203809123039091240374C08230B9F446
:10335000992309F41CC310921201109297028091D4
:103360009102909192027BC0923009F010C390912B
:103370001201813009F444C0823009F462C0873000
:10338000D1F480911201882309F401C34FE150E088
:1033900060E070E080E00E948C05609119037091FC
:1033A0001A0380911B0390911C0300E220E040E08F
:1033B0000E94370622C080911201882309F4E7C2D7
:1033C000109292021092910210929C0210929B0213
:1033D00010921A01109219016091190370911A0349
:1033E00080911B0390911C0300E220E040E00E94CA
:1033F000370610927B020E94770510921201C7C215
:10340000992309F4C4C260912D0370912E03809119
:103410002F0390913003A0E2EA2E00E021E040E08B
:103420000E941F0760911D0370911E0380911F036E
:103430009091200321E040E00E941F0710921201AA
:1034400055C0992321F01092120110929702809199
:103450009102909192028F3F91050CF098C20196D3
:10346000909392028093910280931A0180919B0223
:10347000809319014FE150E060E070E080E00E942D
:103480008C0585C28130A9F580911201882309F449
:103490007EC260912503709126038091270390914D
:1034A0002803F0E2EF2E00E021E040E00E941F0739
:1034B0006091190370911A0380911B0390911C0372
:1034C00021E040E00E941F07109212011092980222
:1034D0000E94770860931103709312038093130383
:1034E000909314031092190110921A0110929702EE
:1034F0004EC2823009F44BC2833009F053C0809130
:103500001201882309F471C08091840281110FC0D7
:1035100060912503709126038091270390912803E1
:10352000E0E2EE2E00E021E040E00E941F07609103
:10353000210370912203809123039091240300E1E1
:1035400028E040E00E94370660912D0370912E0321
:1035500080912F039091300308E020E040E00E942A
:103560003706109212011092970210929802109250
:10357000190140921A018091150390911603A091B0
:103580001703B091180383309105A105B10521F00F
:103590000897A105B10549F561E085E00E944B025D
:1035A00060E020C0843069F5809112018823E9F041
:1035B00010921201109297028091150390911603B8
:1035C000A0911703B091180383309105A105B105AF
:1035D00021F00897A105B10541F461E085E00E9462
:1035E0004B0261E086E00E944B02809197028111BC
:1035F000CEC180918302882309F49FC00E941C05DC
:1036000075C0853009F0A9C080911201882309F4A2
:1036100056C06091250370912603809127039091F5
:10362000280350E2E52E00E021E040E00E941F0761
:103630008091840281110CC0609125037091260352
:10364000809127039091280321E040E00E941F070A
:1036500060912103709122038091230390912403B0
:1036600000E128E040E00E94370680918302882331
:1036700049F06091290370912A0380912B03909166
:103680002C0308C060912D0370912E0380912F03AD
:103690009091300308E020E040E00E94370610924D
:1036A0001201109297021092190110921A010E94B1
:1036B0001C05109298029093960280939502809137
:1036C0009702811164C1809183028823B1F18091B6
:1036D0008202882309F45BC10E941C052091950297
:1036E000309196028217930709F451C1099714F09B
:1036F0001093980280919802882309F448C182E0CF
:1037000080931A01109282024FE150E060E070E075
:1037100080E00E948C056091290370912A038091BA
:103720002B0390912C0340E1E42E08E020E040E0E0
:103730000E941F07109397022AC100917C020E94E9
:10374000770580917C02081709F421C180E00E946E
:103750004105882309F41BC1E8C08630E9F4809153
:103760001201882309F413C11092120180911503EC
:1037700090911603A0911703B0911803833091051F
:10378000A105B105F1F460E085E00E944B0260E024
:1037900086E00E944B02FBC08730C9F48091120181
:1037A000882309F4F4C06091190370911A03809181
:1037B0001B0390911C0300E220E040E00E943706CA
:1037C000D3CF0897A105B10509F0E1C0DCCF88305F
:1037D00009F0DBC080911201882309F442C0609196
:1037E000250370912603809127039091280330E2EE
:1037F000E32E00E021E040E00E941F0760911D03DE
:1038000070911E0380911F039091200321E040E0FE
:103810000E941F0760912503709126038091270362
:103820009091280321E040E00E941F0710921201AE
:103830008091150390911603A0911703B09118037E
:1038400083309105A105B10521F00897A105B105C7
:1038500041F461E085E00E944B0261E086E00E9455
:103860004B02E0909302F09094020E941C0590930A
:103870009402809393028930910554F11093980239
:10388000E816F90609F444C082E080931A01109208
:1038900082024FE150E060E070E080E00E948C0521
:1038A0006091290370912A0380912B0390912C033E
:1038B00020E1E22E08E020E040E00E941F07109285
:1038C00098026AE070E080E090E00E94350320C03A
:1038D000E816F906E9F0809198028111D5CF10938E
:1038E0001A01109382024FE150E060E070E00E9404
:1038F0008C0560912D0370912E0380912F03909180
:10390000300300E1E02E08E020E040E00E941F07C5
:1039100000917C020E94770580917C020817B9F122
:1039200080E00E9441058823A9F088E080931A0175
:103930004FE150E060E070E080E00E948C05109361
:1039400083026091290370912A0380912B03909147
:103950002C0313C040921A014FE150E060E070E088
:1039600080E00E948C051092830260912D0370917B
:103970002E0380912F0390913003B8E0EB2E00E0EE
:1039800020E040E00E941F0702C00E94750680915F
:103990001D01833009F09AC08091150390911603A0
:1039A000A0911703B091180383309105A105B105CB
:1039B00029F00897A105B10509F088C0E0901B0126
:1039C000F0901C0184E00E94220290931C018093DD
:1039D0001B01E816F90609F479C00E94AA0E80912D
:1039E0001B0190911C01892B09F070C084E0809329
:1039F00016014FE150E060E070E080E00E948C052D
:103A000088E092E00E94870D0E946A24C09015030E
:103A1000D0901603E0901703F0901803A5E0CC0CAB
:103A2000DD1CEE1CFF1CAA95D1F780900E01909032
:103A30000F01A0901001B0901101C828D928EA28E0
:103A4000FB2828E0E4E3F1E0DE01119601900D92FD
:103A50002A95E1F722E330E040E050E00E948E2416
:103A60004B015C01EFEF8E1A9E0AAE0ABE0A8091EE
:103A7000850290E0889DB001899D700D989D700D24
:103A80001124072E000C880B990B0E94350310920D
:103A90000003C0920103D0920203E0920303F0926C
:103AA000040388E08093050310920E03FE01319613
:103AB000A6E0B3E081918D93E215F305D9F70E945A
:103AC000070D1093120184E080931D0180E090E0C7
:103AD000892B09F4BAC80E940000B4C80E94930B55
:103AE00080919B0290919C02019690939C028093FE
:103AF0009B028091A702811113C040910103509154
:103B000002036091030370910403B5E07695679515
:103B100057954795BA95D1F781E00E948C0595C8D5
:103B2000813009F0D8C08091A802813049F480909A
:103B30002D0390902E03A0902F03B090300334C03B
:103B4000823049F48090290390902A03A0902B039F
:103B5000B0902C0329C0833049F480901D039090CD
:103B60001E03A0901F03B09020031EC0843049F4B0
:103B70008090250390902603A0902703B0902803FF
:103B800013C0853049F48090210390902203A090C7
:103B90002303B090240308C08090190390901A0367
:103BA000A0901B03B0901C030091A902C090AB022F
:103BB0005090AC02E090AA02EE2049F08E2D880FC2
:103BC000880F880FA8EFFA2EF80EE82E03C0F0E257
:103BD000EF2EF12C011103C000E220E004C00130FF
:103BE00031F40E2D2F2D452DC501B40195C10230A4
:103BF00071F5C501B4010E94E6058093140100939C
:103C00001501511002C0EEE55E2EC11002C0CC2499
:103C1000C394612C712CD12C0E2D2F2D452DC50157
:103C2000B4016C147D040CF077C10E9437066091DA
:103C3000190370911A0380911B0390911C032F2D7F
:103C4000452D0E9437069FEF691A790AE5CF0330A8
:103C500079F5C501B4010E94E60580931401009333
:103C60001501511002C07EE5572EC11002C0CC24B0
:103C7000C394612C712CD12C6C147D0414F00C9421
:103C800025160E2D2F2D452DC501B4010E94370696
:103C90006091190370911A0380911B0390911C038A
:103CA0002F2D452D0E943706EFEF6E1A7E0AE4CFC6
:103CB000043049F40F2D2C2D452DC501B4010E946F
:103CC0001F070C942516053011F00C9425160E9440
:103CD000AF060C942516823051F48091A80280938F
:103CE0001D0110931201809316010C942516833048
:103CF000E1F48091A802811102C060E003C081302C
:103D000051F461E085E00E944B0260E086E00E9491
:103D10004B020C942516823011F00C94251661E0AC
:103D200085E00E944B0261E0F1CF843011F40C94E5
:103D300025168530A9F58091010390910203A09189
:103D40000303B0910403BC01CD0155E0969587951E
:103D5000779567955A95D1F74AE00E94950D86E0D0
:103D600092E00E946F0D67EAE62E62E0F62EFFEA0F
:103D7000EF16F2E0FF0671F0F70161917F0170E04C
:103D800080E090E04AE00E94950D86E092E00E947B
:103D90006F0DEDCF89E691E00E946F0D0C94251612
:103DA000863009F03FC08091A80280939A02F0907B
:103DB000A902F09299029091AA02992319F0909386
:103DC000850202C0109285028630F9F485EB91E0FD
:103DD0000E946F0D0E9495088F2D0E94BF0B8823B3
:103DE00009F49EC08CE192E00E94870D60911D0352
:103DF00070911E0380911F039091200338E1E32E00
:103E000000E120E040E00E941F0780919A02893083
:103E100021F4809313010C94251625E020931301BF
:103E20000C942516873011F00C9425168091A80269
:103E3000813009F042C010937B023091A902309387
:103E400090023130A9F460911D0370911E0380919E
:103E50001F039091200340E2E42E00E121E040E0C6
:103E600039870E941F073985309384020C942516E8
:103E7000323099F460912D0370912E0380912F03BD
:103E80009091300320E1E22E08E021E040E00E9422
:103E90001F07109382020C942516393011F00C94F0
:103EA000251680911D018250843010F40C94251643
:103EB0008AE00E9497070C94251610927B0280914D
:103EC0008402882379F01092840260912503709116
:103ED0002603809127039091280300E220E140E02F
:103EE0000E94370680918202882311F40C942516D3
:103EF00080911D018250843010F40C94251610928C
:103F0000820260912503709126038091270390918E
:103F1000280300E128E040E00E9437060C942516B3
:103F20006091290370912A0380912B0390912C03B7
:103F300028E1E22E00E120E040E00E941F076F2D03
:103F400070E080E090E04AE00E94950D83E991E006
:103F50000E94870D5ACF8091390390913A030097C0
:103F600011F00E947F238091360387FD03C060E03B
:103F70000C947B020895CF92DF92EF92FF92109201
:103F8000B3021092B20288EE93E0A0E0B0E080931A
:103F9000B4029093B502A093B602B093B70288E43E
:103FA00091E09093B1028093B0028FEF9FEF9093D6
:103FB000BD028093BC02109231031092380310921C
:103FC0003E0310923F03109240031092410380E69B
:103FD00090E090933503809334030E94EA229093FB
:103FE0003A0380933903009761F020E6FC011192B7
:103FF0002A95E9F780E290E09093330380933203AF
:1040000008C01092350310923403109233031092BB
:10401000320388E08093360380913103882341F096
:1040200061E088E00E947B0260E088E00E944B0231
:10403000E8E6F1E0E491F0E0EE0FFF1FEE5AFE4FEC
:10404000859194919093430380934203EBE3F1E0D5
:10405000E491E093440383E08093370381E080930D
:104060003B0310923C0382E080933D03C12CD12C92
:1040700092E3E92EF12CC0922D03D0922E03E09210
:104080002F03F092300380E092E3A0E0B0E0809351
:10409000290390932A03A0932B03B0932C0382E36C
:1040A00090E0A0E0B0E08093250390932603A093D6
:1040B0002703B093280382E392E3A2E3B0E0809366
:1040C000210390932203A0932303B093240380E061
:1040D00092E3A2E3B0E080931D0390931E03A093AC
:1040E0001F03B09320031092190310921A03109229
:1040F0001B0310921C0380E090E00E94782490E063
:10410000A0E0B0E08093150390931603A0931703EB
:10411000B0931803C0921103D0921203E0921303DC
:10412000F092140381E18093100361E00E947B020E
:1041300061E080911003FF90EF90DF90CF900C949E
:104140004B02EE0FFF1F0590F491E02D099450589B
:10415000BB27AA270E94BF200C9439220E942B2241
:1041600038F00E94322220F039F49F3F19F426F4EF
:104170000C9428220EF4E095E7FB0C942222E92F00
:104180000E944A2258F3BA176207730784079507FB
:1041900020F079F4A6F50C946C220EF4E0950B2E29
:1041A000BA2FA02D0B01B90190010C01CA01A00189
:1041B0001124FF27591B99F0593F50F4503E68F1E4
:1041C0001A16F040A22F232F342F4427585FF3CF25
:1041D000469537952795A795F0405395C9F77EF4F6
:1041E0001F16BA0B620B730B840BBAF09150A1F03F
:1041F000FF0FBB1F661F771F881FC2F70EC0BA0FC5
:10420000621F731F841F48F4879577956795B7954C
:10421000F7959E3F08F0B0CF9395880F08F0992747
:10422000EE0F9795879508950E94FE2108F481E08E
:1042300008950E942D210C9439220E94322258F0B8
:104240000E942B2240F029F45F3F29F00C94222297
:1042500051110C946D220C9428220E944A2268F37A
:104260009923B1F3552391F3951B550BBB27AA272F
:1042700062177307840738F09F5F5F4F220F331F69
:10428000441FAA1FA9F335D00E2E3AF0E0E832D031
:1042900091505040E695001CCAF72BD0FE2F29D034
:1042A000660F771F881FBB1F261737074807AB0706
:1042B000B0E809F0BB0B802DBF01FF2793585F4F7B
:1042C0003AF09E3F510578F00C9422220C946D2216
:1042D0005F3FE4F3983ED4F3869577956795B7955D
:1042E000F7959F5FC9F7880F911D9695879597F968
:1042F0000895E1E0660F771F881FBB1F62177307E1
:104300008407BA0720F0621B730B840BBA0BEE1FF5
:1043100088F7E09508950E9492216894B1110C9459
:104320006D2208950E94522288F09F5798F0B92F6D
:104330009927B751B0F0E1F0660F771F881F991FDA
:104340001AF0BA95C9F714C0B13091F00E946C22EE
:10435000B1E008950C946C22672F782F8827B85FFE
:1043600039F0B93FCCF3869577956795B395D9F732
:104370003EF490958095709561957F4F8F4F9F4F3C
:104380000895E89409C097FB3EF490958095709548
:1043900061957F4F8F4F9F4F9923A9F0F92F96E991
:1043A000BB279395F695879577956795B795F11106
:1043B000F8CFFAF4BB0F11F460FF1BC06F5F7F4FA3
:1043C0008F4F9F4F16C0882311F096E911C07723B5
:1043D00021F09EE8872F762F05C0662371F096E8BE
:1043E000862F70E060E02AF09A95660F771F881F8D
:1043F000DAF7880F9695879597F90895990F000831
:10440000550FAA0BE0E8FEEF16161706E807F907A6
:10441000C0F012161306E407F50798F0621B730B41
:10442000840B950B39F40A2661F0232B242B252BC2
:1044300021F408950A2609F4A140A6958FEF811D65
:10444000811D089597F99F6780E870E060E0089506
:104450009FEF80EC089500240A941616170618069C
:104460000906089500240A94121613061406050678
:104470000895092E0394000C11F4882352F0BB0F09
:1044800040F4BF2B11F460FF04C06F5F7F4F8F4F6C
:104490009F4F089557FD9058440F551F59F05F3FA7
:1044A00071F04795880F97FB991F61F09F3F79F056
:1044B00087950895121613061406551FF2CF4695D8
:1044C000F1DF08C0161617061806991FF1CF86955A
:1044D0007105610508940895E894BB27662777273E
:1044E000CB0197F908950E94FE2108F48FEF0895FB
:1044F0000E948B220C9439220E942B2238F00E94B9
:10450000322220F0952311F00C9422220C942822C0
:1045100011240C946D220E944A2270F3959FC1F3DE
:10452000950F50E0551F629FF001729FBB27F00D61
:10453000B11D639FAA27F00DB11DAA1F649F6627B6
:10454000B00DA11D661F829F2227B00DA11D621F05
:10455000739FB00DA11D621F839FA00D611D221FBF
:10456000749F3327A00D611D231F849F600D211DA3
:10457000822F762F6A2F11249F5750409AF0F1F026
:1045800088234AF0EE0FFF1FBB1F661F771F881F8F
:1045900091505040A9F79E3F510580F00C94222283
:1045A0000C946D225F3FE4F3983ED4F386957795A3
:1045B0006795B795F795E7959F5FC1F7FE2B880F35
:1045C000911D9695879597F908950E94FE21880B75
:1045D000990B0895CF93DF938230910510F482E018
:1045E00090E0E0915E03F0915F0320E030E0C0E0F6
:1045F000D0E0309711F14081518148175907C0F040
:104600004817590761F482819381209719F09B83A1
:104610008A832BC090935F0380935E0326C021158D
:10462000310519F04217530718F49A01BE01DF0152
:10463000EF010280F381E02DDCCF2115310509F176
:10464000281B390B2430310590F412968D919C91E2
:1046500013976115710521F0FB019383828304C0D8
:1046600090935F0380935E03FD01329644C0FD0189
:10467000E20FF31F81939193225031092D933C93C4
:104680003AC020915C0330915D03232B41F42091CB
:104690002C0130912D0130935D0320935C03209118
:1046A0002A0130912B012115310541F42DB73EB778
:1046B00040912E0150912F01241B350BE0915C039A
:1046C000F0915D03E217F307A0F42E1B3F0B2817B0
:1046D000390778F0AC014E5F5F4F2417350748F07B
:1046E0004E0F5F1F50935D0340935C038193919342
:1046F00002C0E0E0F0E0CF01DF91CF9108950F9389
:104700001F93CF93DF93009709F48CC0FC0132977D
:104710001382128200915E0310915F03011511054F
:1047200081F420813181820F931F20915C033091AD
:104730005D032817390779F5F0935D03E0935C0377
:1047400071C0D80140E050E0AE17BF0750F4129698
:104750002D913C911397AD012115310509F1D90136
:10476000F3CF9D01DA013383228360817181860F4B
:10477000971F8217930769F4EC0128813981260F6E
:10478000371F2E5F3F4F318320838A819B81938324
:104790008283452B29F4F0935F03E0935E0342C0CC
:1047A0001396FC93EE931297ED01499159919E0156
:1047B000240F351FE217F30771F480819181840F74
:1047C000951F029611969C938E93828193811396E6
:1047D0009C938E931297E0E0F0E0D80112968D91B1
:1047E0009C911397009719F0F8018C01F6CF8D91E9
:1047F0009C9198012E5F3F4F820F931F20915C0385
:1048000030915D032817390769F4309729F4109225
:104810005F0310925E0302C01382128210935D0345
:1048200000935C03DF91CF911F910F91089581E078
:1048300090E0F8940C94F1248F929F92AF92BF92E3
:10484000CF92DF92EF92FF92CF93DF93EC016881DA
:1048500079818A819B81611571058105910521F41A
:1048600064E279ED8BE597E02DE133EF41E050E034
:104870000E948E2449015A019B01AC01A7EAB1E4D0
:104880000E94AD246B017C01ACEEB4EFA501940154
:104890000E94BB24DC01CB018C0D9D1DAE1DBF1DF4
:1048A000B7FF03C00197A109B04888839983AA8301
:1048B000BB83BC01CD019F77DF91CF91FF90EF903B
:1048C000DF90CF90BF90AF909F908F9008950E94FF
:1048D0001C24089580E391E00E941C2408956093B5
:1048E0003001709331018093320190933301089528
:1048F000F999FECF92BD81BDF89A992780B50895A8
:10490000262FF999FECF1FBA92BD81BD20BD0FB6EB
:10491000F894FA9AF99A0FBE01960895052E97FB1E
:104920001EF400940E94A52457FD07D00E94C024C5
:1049300007FC03D04EF40C94A52450954095309577
:1049400021953F4F4F4F5F4F0895909580957095FB
:1049500061957F4F8F4F9F4F08950E94E224A59F3E
:10496000900DB49F900DA49F800D911D112408956A
:10497000B7FF0C94AD240E94AD24821B930B0895C5
:10498000A1E21A2EAA1BBB1BFD010DC0AA1FBB1F53
:10499000EE1FFF1FA217B307E407F50720F0A21BC5
:1049A000B30BE40BF50B661F771F881F991F1A9432
:1049B00069F760957095809590959B01AC01BD015C
:1049C000CF010895A29FB001B39FC001A39F700DB6
:1049D000811D1124911DB29F700D811D1124911D07
:1049E000089511E0C4E0D1E004C0FE010E94A120BE
:0C49F0002196C530D107C9F7F894FFCF1D
:1049FC00A701A701A701A701A701450145011500C2
:104A0C000000010500000000000000010008FFFF8D
:104A1C00FFFF00E1000000000000000060038000C8
:104A2C000100000002040000000000000B6363633F
:104A3C0063630605000000002F016F035001D001D5
:104A4C00AC0145011132200800C180810000004EEC
:104A5C006F64652049443A20000D0A004E656F7062
:104A6C006978656C2054657374002D2D2D2D2D499E
:104A7C006E707574732D2D2D2D0050696E230020D2
:104A8C003D2000202D204F4B00202D20505245530F
:104A9C00534544002D2D2D2D2D43616E20427573F1
:104AAC002D2D2D2D0043414E2D4255532053746115
:104ABC00727475703A20004E6F7468696E6720527C
:104ACC0065636569766564002D2D2D2D2D43616C14
:104ADC0069627261746520546F7765722D2D2D2D6E
:104AEC000046696E69736865642043616C69627223
:104AFC006174696F6E002C004D6F6E746F6E204D7B
:104B0C006573736167652053656E74004E6F742016
:104B1C00476F6F642C20636865636B20796F7572C7
:104B2C002070696E2320616E6420636F6E6E656306
:104B3C0074696F6E73004D657373616765205265A0
:104B4C006365697665640053746172742043616CAB
:104B5C006962726174696F6E006E616E00696E6677
:064B6C00006F76660000F8
:00000001FF
