:100000000C9405010C94E1040C94BA040C94930430
:100010000C946C040C942D010C942D010C9445044B
:100020000C942D010C942D010C949D0F0C940F1029
:100030000C942D010C942D010C942D010C942D0188
:100040000C942D010C942D010C942D010C942D0178
:100050000C942D010C942D010C942D010C94FB0398
:100060000C942D010C942D010C942D010C942D0158
:100070000C942D010C942D010C942D010C942D0148
:100080000C942D010C942D010C942D010C942D0138
:100090000C942D010C942D010C942D010C942D0128
:1000A0000C942D010C942D010C942D0182018501DD
:1000B000740178017E01A601A601A60189018D01C6
:1000C000910197019B01A601A1010B0CD70B550CC7
:1000D000DB0BDE0BE10BE50BE80BEC0BEF0BF20B94
:1000E000F50BF80BFC0B000C040C070C07060504C1
:1000F0000100080A0B0C0D09000000002400270075
:100100002A002D00300000000000230026002900F6
:100110002C002F000000000200090F000003040162
:10012000000C0000000000000000000000000000C3
:100130000000000408020110408040102040804070
:10014000800802040180402010020110801020402D
:10015000402000000000250028002B002E00310068
:10016000040404040403040502020202040302025C
:100170000202060606060606040402020204040839
:100180000B0002020201000904000001020200004B
:1001900005240010010524010101042402060524A0
:1001A0000600010705810310004009040100020A4E
:1001B000000000070502024000000705830240001E
:1001C000000403090441726475696E6F204C4C434E
:1001D0000041726475696E6F204C656F6E61726468
:1001E0006F00120100020000004041233680000130
:1001F0000102030112010002EF0201404123368097
:10020000000101020301101D001D11241FBECFEFCC
:10021000DAE0DEBFCDBF23E0A8E7B2E001C01D9267
:10022000AE35B207E1F712E0A0E0B1E0E6EAF4E4AF
:1002300002C005900D92A837B107D9F711E0C4E0CC
:10024000D1E004C02197FE010E94F61DC330D10702
:10025000C9F70E94B2120C9446220C940000CF936E
:10026000DF931F92CDB7DEB76983DC01ED91FC917E
:100270000280F381E02D41E050E0BE016F5F7F4FCF
:1002800009950F90DF91CF91089583E08093E90065
:100290008091F200882319F08AE38093E8000895A2
:1002A000FC018485958597FD0BC09FB7F89482E08B
:1002B0008093E9008091F2009FBF90E0019608953D
:1002C0009FB7F89482E08093E9008091F2009FBF8D
:1002D00090E0089590E0FC013197EF30F105B0F522
:1002E000EA5AFF4F0C94F61D809180008F7703C06F
:1002F000809180008F7D80938000089580918000A0
:10030000877FF9CF84B58F7702C084B58F7D84BD98
:100310000895809190008F7707C0809190008F7D25
:1003200003C080919000877F809390000895809112
:10033000C0008F7703C08091C0008F7D8093C00084
:1003400008958091C200877F8093C2000895089528
:1003500081E080937C020895CF93DF931F92CDB705
:10036000DEB7FC018485958597FD05C02FEF3FEF33
:10037000358724870BC0CE0101960E94730F019729
:1003800019F4898190E002C08FEF9FEF0F90DF9109
:10039000CF9108950F931F93CF93DF931F92CDB703
:1003A000DEB78C01FC018485958597FF0EC0CE01D8
:1003B00001960E94730F019719F4298130E002C061
:1003C0002FEF3FEFF80135872487F8018485958565
:1003D0000F90DF91CF911F910F910895AF92BF922F
:1003E000CF92DF92EF92FF920F931F93CF93DF9301
:1003F0001F92CDB7DEB75C017B018B016C0182E0FF
:10040000C80ED11CF80161918F01C50169830E945A
:10041000CD216981681719F0C5010E94D521FFEF30
:10042000AF1ABF0AAC14BD0469F7C7010F90DF9182
:10043000CF911F910F91FF90EF90DF90CF90BF90E1
:10044000AF900895CF93DF93282F30E0F901EC5E51
:10045000FE4F8491F901ED5CFE4FD491F901E05A11
:10046000FE4FC491CC2391F081110E946A01EC2FC0
:10047000F0E0EE0FFF1FEA5FFE4FA591B491EC9103
:10048000ED2381E090E021F480E002C080E090E084
:10049000DF91CF9108951F93CF93DF93282F30E002
:1004A000F901EC5EFE4F8491F901ED5CFE4FD491B1
:1004B000F901E05AFE4FC491CC23C9F0162F8111E7
:1004C0000E946A01EC2FF0E0EE0FFF1FEE5AFE4F84
:1004D000A591B4918FB7F894111105C09C91ED2F9F
:1004E000E095E92302C0EC91ED2BEC938FBFDF91F7
:1004F000CF911F910895CF93DF9390E0FC01ED5CC5
:10050000FE4F2491FC01E05AFE4F8491882361F153
:1005100090E0880F991FFC01E850FF4FC591D491DE
:10052000FC01EE5AFE4FA591B491611109C09FB72D
:10053000F8948881209582238883EC912E230BC028
:10054000623061F49FB7F8943881822F80958323BD
:100550008883EC912E2B2C939FBF06C08FB7F89405
:10056000E8812E2B28838FBFDF91CF9108958231B0
:1005700008F08251E82FF0E0E451FF4FE4918091C0
:100580007B00E3FB222720F930E095E0220F331FA8
:100590009A95E1F78F7D282B20937B00E770E0642C
:1005A000E0937C0080917A00806480937A0080914F
:1005B0007A0086FDFCCF809178002091790090E050
:1005C000922B0895CF92DF92EF92FF92CF93DF9319
:1005D000C4E1D0E0C12CD12C760182E10E94B702A7
:1005E000BC01990F880B990B0E94181F9B01AC014D
:1005F000C701B6010E94FD1D6B017C01219769F7BF
:1006000020E030E048E951E40E946E1E0E94E01EA6
:10061000CB01DF91CF91FF90EF90DF90CF900895C5
:100620003FB7F8948091A1029091A202A091A302F9
:10063000B091A40226B5A89B05C02F3F19F00196E2
:10064000A11DB11D3FBFBA2FA92F982F8827820F58
:10065000911DA11DB11DBC01CD0142E0660F771FA8
:10066000881F991F4A95D1F708958F929F92AF9254
:10067000BF92CF92DF92EF92FF926B017C010E94BA
:1006800010034B015C01C114D104E104F104F1F049
:100690000E941003DC01CB0188199909AA09BB0942
:1006A000883E9340A105B10570F321E0C21AD1083C
:1006B000E108F10888EE880E83E0981EA11CB11CA9
:1006C000C114D104E104F10419F7DDCFFF90EF90DC
:1006D000DF90CF90BF90AF909F908F9008958F92B2
:1006E0009F92AF92BF92CF92DF92EF92FF920F93C1
:1006F0001F93CF93DF935C016B018A0180912901E5
:10070000882309F45EC080914303882309F459C00B
:100710008091400380FF05C08091E000826080935B
:10072000E000E8018AEFF82E93E0E92E2FE3822E15
:100730003AE3932E209709F43DC08FB7F894E092E6
:10074000E9009091E80095FF06C09091F200282DF5
:10075000291B922F01C090E08FBF91110AC0FA941B
:10076000FF2079F161E070E080E090E00E943503C5
:10077000E1CF292F30E0C217D3070CF49C2F8FB79D
:10078000F894E092E9002091E80025FF11C0292F9C
:1007900030E0C21BD30BF601915020F04191409301
:1007A000F100FACFC20ED31E9091E80095FF13C05E
:1007B0008FBFC0CF5D9884E6809341031016110669
:1007C00044F081E090E0F5019383828380E090E043
:1007D00005C0C80103C09092E800EACFDF91CF9135
:1007E0001F910F91FF90EF90DF90CF90BF90AF904F
:1007F0009F908F9008951F920F920FB60F92112421
:100800002F933F938F939F93AF93BF9380919D02BC
:1008100090919E02A0919F02B091A00230919C0203
:1008200023E0230F2D3720F40196A11DB11D05C033
:1008300026E8230F0296A11DB11D20939C028093F0
:100840009D0290939E02A0939F02B093A00280917C
:10085000A1029091A202A091A302B091A4020196DC
:10086000A11DB11D8093A1029093A202A093A302A7
:10087000B093A402BF91AF919F918F913F912F911F
:100880000F900FBE0F901F9018951F920F920FB6EA
:100890000F9211242F933F934F935F936F937F9306
:1008A0008F939F93AF93BF93EF93FF93E0910801D2
:1008B000F09109010995FF91EF91BF91AF919F913F
:1008C0008F917F916F915F914F913F912F910F90F9
:1008D0000FBE0F901F9018951F920F920FB60F9298
:1008E00011242F933F934F935F936F937F938F9335
:1008F0009F93AF93BF93EF93FF93E0910601F09125
:1009000007010995FF91EF91BF91AF919F918F9151
:100910007F916F915F914F913F912F910F900FBEFB
:100920000F901F9018951F920F920FB60F921124DF
:100930002F933F934F935F936F937F938F939F93E7
:10094000AF93BF93EF93FF93E0910401F091050102
:100950000995FF91EF91BF91AF919F918F917F91F9
:100960006F915F914F913F912F910F900FBE0F901C
:100970001F9018951F920F920FB60F9211242F936C
:100980003F934F935F936F937F938F939F93AF9317
:10099000BF93EF93FF93E0910201F091030109955A
:1009A000FF91EF91BF91AF919F918F917F916F9147
:1009B0005F914F913F912F910F900FBE0F901F901D
:1009C00018951F920F920FB60F9211242F933F93F9
:1009D0004F935F936F937F938F939F93AF93BF9347
:1009E000EF93FF93E0910001F09101010995FF91D0
:1009F000EF91BF91AF919F918F917F916F915F9197
:100A00004F913F912F910F900FBE0F901F9018950F
:100A10008EBD00000DB407FEFDCF8EB50895CF93B7
:100A2000CFB7F89480919B02811127C0E1E7F1E0F4
:100A30008491E4E4F1E09491E82FF0E0EE0FFF1FE1
:100A4000E850FF4FA591B491EC91E92321F461E0C6
:100A500081E10E944B0261E081E10E947B028CB542
:100A600080618CBD8CB580648CBD61E08FE00E949C
:100A70007B0261E080E10E947B0280919B028F5F9C
:100A800080939B02CFBFCF9108950F931F93CF9375
:100A9000DF938C01EB010E94CD218883C801019670
:100AA0000E94CD218983CE01DF91CF911F910F91BB
:100AB0000895CF93DF93C0910A01D0910B010E945A
:100AC000E202BE01681B790B072E000C880B990B04
:100AD0000E94181F209178023091790240917A0289
:100AE00050917B020E94CD1F0E94E01ECB0177FF38
:100AF00002C080E090E0DF91CF9108951F93CF93E3
:100B0000DF93182FC82FD0E0FE01E45CFE4F8081F8
:100B10000E942202FE01E158FD4F90819817E1F0FA
:100B200040911701813059F4808321E030E001C009
:100B3000220F1A95EAF7242B2093170111C0108277
:100B400021E030E0C90101C0880F1A95EAF78095CD
:100B500084238093170103C081E0913009F080E085
:100B6000DF91CF911F9108950F931F93CF930CE3C3
:100B700011E0C0E0F80181918F01833619F08C2FCC
:100B80000E947E05CF5FC630A9F7CF911F910F91CC
:100B900008958F929F92AF92BF92CF92DF92EF9281
:100BA000FF921F93CF93DF93C82F4A015B010E94EE
:100BB000BF21C1110E94B405C0900A03D0900B035D
:100BC000E0900C03F0900D0385E0CC0CDD1CEE1CD6
:100BD000FF1C8A95D1F7C828D928EA28FB286091FC
:100BE000870270E080E090E00E943503C5E0D0E02D
:100BF00018E01092F502C092F602D092F702E0924D
:100C0000F802F092F9021093FA0210920303E3E162
:100C1000F1E0ABEFB2E081918D9381E0EB31F80729
:100C2000D1F70E94C80A882311F0219711F7DF91AC
:100C3000CF911F91FF90EF90DF90CF90BF90AF903A
:100C40009F908F9008950F931F930091220310910E
:100C50002303209124033091250360177107820735
:100C60009307B1F100911E0310911F0320912003FF
:100C700030912103601771078207930759F10091A2
:100C80001203109113032091140330911503601780
:100C900071078207930701F100911A0310911B035A
:100CA00020911C0330911D03601771078207930781
:100CB000A9F00091160310911703209118033091A9
:100CC0001903601771078207930751F080E009C08C
:100CD00081E007C082E005C083E003C084E001C07A
:100CE00085E01F910F9108958F929F92AF92BF92CE
:100CF000EF92FF920F931F93CF93DF934B015C0111
:100D0000142FC22F0E9423068093140181E0809348
:100D10001501111101C01AE0D0E0E02EF12CCE1522
:100D2000DF0570F48091270390912803C817D90735
:100D300028F4B501A401CE010E94150A2196EFCF37
:100D40000E945709612F70E080E090E0DF91CF9121
:100D50001F910F91FF90EF90BF90AF909F908F9059
:100D60000C9435030F9380911201882399F16091BF
:100D70000E0370910F03809110039091110300E214
:100D800020E040E00E94740610927E020E94B405AA
:100D9000109212011092850210927D02109286022A
:100DA00080910A0390910B03A0910C03B0910D0365
:100DB00083309105A105B10521F00897A105B10582
:100DC00049F460E085E00E944B0260E086E00F910C
:100DD0000C944B020F9108950F93E3E1F1E086E04C
:100DE000818385E08283609116037091170380915F
:100DF00018039091190300E220E044EF0E9474066A
:100E000064E670E080E090E00E9435036091220388
:100E100070912303809124039091250320E044EFF7
:100E20000E94740664E670E080E090E00E94350362
:100E300060911E0370911F03809120039091210304
:100E400020E044EF0E94740664E670E080E090E0E9
:100E50000E94350360911203709113038091140373
:100E60009091150320E044EF0E94740664E670E060
:100E700080E090E00E94350360911A0370911B039B
:100E800080911C0390911D0320E044EF0E947406A2
:100E900064E670E080E090E00E94350360910E030C
:100EA00070910F03809110039091110320E044EFA3
:100EB0000E9474060F9108955F926F927F928F92B5
:100EC0009F92AF92BF92CF92DF92EF92FF920F93D9
:100ED0001F93CF93DF931F92CDB7DEB74B015C0119
:100EE000522E7E2C49830E9423068093140184E0B5
:100EF000809315014981411101C04AE0511002C09F
:100F00005524539410E0C42ED12CE12CF12C81E017
:100F10008515F0F4602E1AC040910E0350910F0316
:100F20006091100370911103862D90E020912703AA
:100F3000309128038217930710F40E94150A0E942B
:100F40005709C701B6010E9435036394671420F363
:100F5000602E14C0862D90E0209127033091280345
:100F60008217930720F4B501A4010E94150A0E947C
:100F70005709C701B6010E9435036394671450F303
:100F80001F5F1511C4CF0F90DF91CF911F910F916B
:100F9000FF90EF90DF90CF90BF90AF909F908F9099
:100FA0007F906F905F900895CF92DF92EF92FF92C3
:100FB0000F931F93CF93DF93182F0E94E202EC014F
:100FC00060911203709113038091140390911503A3
:100FD00030E2E32E00E020E040E00E945C0785E480
:100FE00091E090930D0180930C0190930B018093FD
:100FF0000A01109278021092790210927A021092ED
:101000007B02CD32D14024F00E94E202EC01F9CF04
:1010100087E592E00E94480B0E94E20220910C01B9
:1010200030910D018217930724F490930D01809362
:101030000C018534914084F38FB7F894C0909D02E1
:10104000D0909E02E0909F02F090A0028FBF88EEA9
:10105000C80E83E0D81EE11CF11C2FB7F8948091D4
:101060009D0290919E02A0919F02B091A0022FBF7D
:101070008C159D05AE05BF0570F40E94E20220911B
:101080000A0130910B01281739073CF790930B01A7
:1010900080930A01E2CFC0910A01D0910B016E97B3
:1010A000D0930B01C0930A01612F70E080E090E0C3
:1010B0000E94161F6B017C0180910C0190910D0123
:1010C0009E01281B390BB901330F880B990B0E9425
:1010D000181F9B01AC01C701B6010E946E1E6093F0
:1010E00078027093790280937A0290937B026091E8
:1010F0000E0370910F03809110039091110320E271
:10110000E22E00E020E040E00E945C076CE071E02D
:1011100081E090E00E94EE016AE071E083E090E0FF
:101120000E94EE0180910C0190910D010E94500DE2
:1011300080910A0190910B010E94500D60917802FC
:101140007091790280917A0290917B020E94590CF1
:1011500081EF91E0DF91CF911F910F91FF90EF9080
:10116000DF90CF900C94480B1F93CF93DF93182FF1
:10117000C5EFD2E060E088890E944B0283E00E94C4
:101180000805812F0E94080580E00E940805182F9D
:1011900061E088890E944B02812FDF91CF911F91DE
:1011A0000895CF92DF92FF920F931F93CF93DF9317
:1011B0001F92CDB7DEB7F82E162F042F60E0809176
:1011C000050379830E944B0282E00E9408058F2D5F
:1011D0000E940805F12EC12E7981D72E8C2D8F19F2
:1011E000801730F4F60181916F010E940805F6CF57
:1011F00061E0809105030F90DF91CF911F910F91D6
:10120000FF90DF90CF900C944B020F931F93CF93DE
:10121000DF93082F162FC5EFD2E060E088890E9487
:101220004B0282E00E940805802F0E940805812F52
:101230000E94080561E08889DF91CF911F910F918D
:101240000C944B02EF92FF920F931F93CF93DF9377
:101250001F92CDB7DEB7182FF62EE42E60E08091F6
:10126000050379830E944B0283E00E940805812FC9
:101270000E9408050F2D7981172FF12CFE1459F0CB
:10128000F8E0FF1641F080E00E940805F801819324
:101290008F01F394F3CF61E0809105030F90DF910C
:1012A000CF911F910F91FF90EF900C944B020F93F1
:1012B0001F93CF93DF93CDB7DEB729970FB6F8947E
:1012C000DEBF0FBECDBF80912E0390912F03892BDF
:1012D00009F4A0C00E94100300913303109134035D
:1012E0002091350330913603DC01CB01801B910B3B
:1012F000A20BB30BC297A105B10560F3F8948091DE
:10130000290390912A039A838983E0912E03F09117
:101310002F03DF0111968081898790912C03E09142
:101320003703F09138038091390391FF2EC09081EB
:10133000982B98879081809589238F838F818C83C8
:1013400088E08B8358856F8149853B812C81898119
:101350009A81508347FD252F3A952083262F39F017
:10136000441F00C000006083000000C0F2CF38E0DE
:101370004D9160830000019761F7F0933803E0938B
:10138000370349873B832C8338C09081982B9887FB
:101390009081809589238F838F818E8388E08D83D0
:1013A00058856F8149853D812E8189819A8150833D
:1013B00047FD252F00C000C0208300C000C000C032
:1013C00000C000C060830000262F3A9541F0441F02
:1013D000000000C000C000C000C000C0E8CF38E07E
:1013E0004D9100C0608300C0019709F7F093380366
:1013F000E093370349873D832E839A8389837894CA
:101400000E94100360933303709334038093350379
:101410009093360329960FB6F894DEBF0FBECDBF6A
:10142000DF91CF911F910F9108958F929F92AF926C
:10143000BF92CF92DF92EF92FF924B01AA24BB247E
:10144000F82DC52ED62EE72EFF24EC2D342F20911B
:101450002D03222361F0829E40011124F92DC29EAA
:1014600060011124ED2D429FA0011124352FAC0104
:10147000440F551F840F951F40912E0350912F0349
:10148000840F951F20913003DC01A20FB11DFC9346
:1014900020913103DC01A20FB11DEC9320913203A6
:1014A000FC01E20FF11D3083FF90EF90DF90CF90B1
:1014B000BF90AF909F908F900895EF92FF920F93FF
:1014C0001F93CF93DF931F92CDB7DEB7082F162F50
:1014D00085EFE82E82E0F82E60E0F70180894983ED
:1014E0000E944B0285E00E940805802F0E9408059B
:1014F000812F0E9408054981842F0E94080561E020
:10150000F70180890F90DF91CF911F910F91FF908C
:10151000EF900C944B020F931F93CF93DF9300D067
:1015200000D0CDB7DEB76130B9F42C833B838A019C
:1015300022273327602F6C71902F937048E0649FAF
:10154000900D112498609A83980175E0369527953F
:101550007A95E1F729830DC0B90193E076956795F7
:101560009A95E1F769832295220F207E2A831C82B7
:101570001B8244E0BE016F5F7F4F0E94D1080F9035
:101580000F900F900F90DF91CF911F910F910895C1
:101590000F931F93CF93DF9300E010E080E50E944C
:1015A000B408982F987083FD02C0C1E502C0C0E066
:1015B00092E00F5F1F4F923021F40233110571F753
:1015C00047C00233110509F443C04091FA026BEFA2
:1015D00072E085E08C0F0E94D10880910303813076
:1015E00029F48091FA0280648093FA026091FA02F1
:1015F00084E08C0F0E9405092091F6023091F702D9
:101600004091F8025091F9026091F5028C2F0E94EE
:101610008B0AC15048E068E08C2F0E945D0A00E010
:1016200010E00F5F1F4F8C2F0E94B408D82F61E08D
:1016300070E080E090E00E943503D3FF04C00233E5
:10164000110579F707C00233110521F080E003C0CE
:1016500086E001C087E0DF91CF911F910F9108953F
:10166000BC01009791F0FC0101900020E9F731974F
:10167000AF01481B590BE091A502F091A602028030
:10168000F381E02D85EA92E0099480E090E00895EE
:10169000CF93DF930E94300BEC0189E691E00E942A
:1016A000300B8C0F9D1FDF91CF9108958F929F92E9
:1016B000AF92BF920F931F93CF93DF93CDB7DEB757
:1016C000A1970FB6F894DEBF0FBECDBF19A242306E
:1016D00008F44AE08E010F5D1F4F842E912CA12C3F
:1016E000B12CA50194010E941522E62FB901CA016F
:1016F00001501109EA3014F4E05D01C0E95CD80141
:10170000EC93232B242B252B61F7C8010E94300B6F
:10171000A1960FB6F894DEBF0FBECDBFDF91CF917B
:101720001F910F91BF90AF909F908F900895CF938E
:10173000C82F482F60EE8FE00E945D0A8FE00E9464
:10174000B408807E91E08C1301C090E0892FCF9186
:101750000895CF93DF93C82F60E0809105030E9426
:101760004B0280EC0E94080561E0809105030E9415
:101770004B026AE070E080E090E00E94350380E870
:101780000E94970BD82F6AE070E080E090E0D111C2
:1017900086C00E9435034C2F50E0FA013197E131A9
:1017A000F10508F078C0EB59FF4F0C94F61DC7E81F
:1017B000DFEF6FE133C0C7E0DAEB79C0C5E8D1EF06
:1017C00076C0C7E0DEEB69E029C0C7E8DFEF02C002
:1017D000C7E8DAEF67E022C0C7E8DFEF0BC0C7E079
:1017E000DEEB08C0C7E0DDEA05C0C7E8DAEF02C0FB
:1017F000C6E8D0EF63E012C0C7E8DAEF61E00EC0E0
:10180000C5E8D1EF61E40AC0C6E8D0EF02C0C2E883
:10181000D0ED60E003C0C7E8DFEF6FE38AE20E942B
:1018200005096D2F89E20E9405096C2F88E20E944C
:1018300005096AE070E080E090E00E943503C0E3B3
:1018400060E08C2F0E94050960E080E18C0F0E940F
:10185000050960E080E28C0F0E940509CF5FCE335E
:1018600079F760E080E60E94050960E080E70E9469
:10187000050963E08BE20E94050944E064E680E626
:101880000E945D0A40E060E680E70E945D0A80E019
:101890000E94970BD82F6AE070E080E090E00E94F1
:1018A00035038D2FDF91CF910895C7E8DFEF6FE00B
:1018B000B5CF4F925F926F927F928F929F92AF922D
:1018C000BF92CF92DF92EF92FF926B017C019B015E
:1018D000AC010E943A20882319F089E692E01AC0F0
:1018E00046015701E894B7F82FEF3FEF4FE75FE766
:1018F000C501B4010E943A20811110C02FEF3FEFC3
:101900004FE75FE7C501B4010E94691E181634F461
:101910008DE692E00E94300B7C0188C02FEF3FEFF4
:101920004FE75FE4C701B6010E94C81F18161CF4F8
:1019300081E792E0EFCF2FEF3FEF4FE75FECC7017A
:10194000B6010E94691E87FDF3CF20E030E0A901B7
:10195000C701B6010E94691E87FF11C0E091A50270
:10196000F091A6020190F081E02D6DE285EA92E00F
:1019700009955C01F7FAF094F7F8F09402C0A12CF5
:10198000B12C2AE037ED43EA5BE3C701B6010E94C0
:10199000FD1D2B013C010E94E71E6B017C010E9492
:1019A000161F9B01AC01C301B2010E94FC1D2B015B
:1019B0003C014AE0C701B6010E94560B7C01EA0CCB
:1019C000FB1C85E792E00E94300BE80EF91E20E038
:1019D00030E040E251E4C301B2010E94CD1F2B016F
:1019E0003C010E94E71E4B01A12CB12C4AE0C5012D
:1019F000B4010E94560BE80EF91EC501B4010E9405
:101A0000161F9B01AC01C301B2010E94FC1D20E026
:101A100030E040E251E40E94CD1F0E94E71E80E0CA
:101A200090E04AE00E94560BE80EF91E89E691E02C
:101A30000E94300B8E0D9F1DFF90EF90DF90CF9096
:101A4000BF90AF909F908F907F906F905F904F90DE
:101A50000895CF92DF92EF92FF92CF93DF936B01C5
:101A60007C01E091A502F091A6020190F081E02DA9
:101A70006DE285EA92E00995EC0166277727CB01B4
:101A80006C197D098E099F094AE00E94560B8C0F44
:101A90009D1FDF91CF91FF90EF90DF90CF90089541
:101AA000CF93DF93BC01990F880B990B97FF03C06D
:101AB0000E94290D03C04AE00E94560BEC0189E602
:101AC00091E00E94300B8C0F9D1FDF91CF91089504
:101AD0001F93CF93DF93C5EFD2E060E088890E9427
:101AE0004B0280EA0E94080580E00E940805182F3A
:101AF00061E088890E944B02812FDF91CF911F9175
:101B000008950F931F93CF93DF9300D000D0CDB7EC
:101B1000DEB7182F1092F5021092F6021092F7021B
:101B20001092F8021092F90244E0BE016F5F7F4FFD
:101B30000E9422098A819981482F50E065E05595DD
:101B400047956A95E1F728E0929F400D511D1124B9
:101B5000052E000C660B770B4093F6025093F702AC
:101B60006093F8027093F90283FF29C092E0440F5A
:101B7000551F661F771F9A95D1F78370480F511D27
:101B8000611D711D762F652F542F44278B81480FBF
:101B9000511D611D711D762F652F542F44278C8197
:101BA000480F511D611D711D4093F6025093F702BD
:101BB0006093F8027093F90281E08093F5028FEF51
:101BC000810F0E94B408082F84E0810F0E94B4089E
:101BD000482F03FF04C081E08093030302C01092EA
:101BE00003034F704093FA026BEF72E085E0810FC0
:101BF0000E9422090F900F900F900F90DF91CF91CC
:101C00001F910F9108958091520381110DC082E0C0
:101C100080934E0384E080934F03109251031092FF
:101C2000500381E0809352038EE493E008950E9474
:101C30006C21CF92DF92EF92FF920F931F93CF937D
:101C4000DF931F92CDB7DEB7182F062FE42E862F15
:101C5000880F8E5F99830E94771283E00E9477122B
:101C6000F12EC12E9981D92E8C2D8F19801798F4C1
:101C7000F601E7FE02C0849101C080810E947712C4
:101C8000182F80E00E9477128123FFEFCF1ADF0A1E
:101C90008111EACF01C081E00F90DF91CF911F91B8
:101CA0000F91FF90EF90DF90CF900895DF92EF9229
:101CB000FF920F931F93CF93DF93D82E8A017B015E
:101CC000E40EF51EEB01CE15DF0571F0D7FE03C063
:101CD000FE01849101C088810E94771221968111B2
:101CE000F2CF8FEF9FEF01C0C801DF91CF911F911D
:101CF0000F91FF90EF90DF9008950F931F93CF9374
:101D0000DF931F92CDB7DEB782E0898342E450E0D3
:101D10006FE771E080E80E94560E0E94030EDC011E
:101D200012960D911C9113970115110569F0D801B8
:101D3000ED91FC910280F381E02DBE016F5F7F4F3A
:101D4000C801099597FF07C089810F90DF91CF9156
:101D50001F910F910895F80100851185E5CF0E942C
:101D6000680D80FF06C081E60E94810D40E061E0C1
:101D700007C081FF1CC081E70E94810D40E062E046
:101D80008CE20E945D0A8091FA0280934C03ABEFD3
:101D9000B2E0E4E4F3E090E09F01245433402817DC
:101DA00039071CF42D912193F7CF80E0089510920C
:101DB0004C0384E008950F931F93CF93DF9300D0DB
:101DC00000D0CDB7DEB7082F9A01AB016AE070E012
:101DD00080E090E029833A834B835C830E94350343
:101DE00080E80E94970B182F29813A814B815C81F2
:101DF000882329F06AE070E080E090E029C002309A
:101E000099F038F4002369F00130C1F460E084E017
:101E100013C0043079F058F0053081F460E088E1B7
:101E20000BC060E080E008C060E088E005C060E0D2
:101E300080E102C060E084E10E948B0A80E00E94A1
:101E4000970B182F6AE070E080E090E0112321F0FA
:101E50000E943503812F03C00E94350380E00F905C
:101E60000F900F900F90DF91CF911F910F910895D8
:101E7000CF93DF93D82F6AE070E080E090E00E947B
:101E8000350380E80E94970BC82F882329F06AE069
:101E900070E080E090E01DC0D11107C02FE130E07C
:101EA00040E050E060E080E208C0D13041F42FE132
:101EB00030E040E050E060E084E20E948B0A80E085
:101EC0000E94970BC82F6AE070E080E090E0CC237E
:101ED00021F00E9435038C2F03C00E94350380E05F
:101EE000DF91CF910895FC0180914303811103C0DC
:101EF0008FEF9FEF08959FB7F89482E08093E900F9
:101F00002091F20030E01216130614F421E030E0C4
:101F10002115310559F0289884E680934203809179
:101F2000F10080838091F200882319F09FBFC901DE
:101F300008958BE68093E800F9CF1F920F920FB6B9
:101F40000F9211248F939F938091E1009091E10073
:101F5000937F9093E10083FF0FC01092E90091E01E
:101F60009093EB001092EC0092E39093ED001092AE
:101F7000430398E09093F00082FF20C093E0909399
:101F8000E9009091F200992319F09AE39093E80008
:101F900090914103992339F090914103915090938E
:101FA0004103992389F190914203992339F090914B
:101FB0004203915090934203992341F184FF10C052
:101FC0008091E2008E7E81608093E2008091E1004A
:101FD0008F7E8093E100809140038E7E806111C0EE
:101FE00080FF16C08091E2008E7E80618093E200C7
:101FF0008091E1008E7E8093E100809140038E7E8F
:1020000081608093400304C05D9ACDCF289AD6CFDB
:102010009F918F910F900FBE0F901F9018951F9258
:102020000F920FB60F921124CF92DF92EF92FF9290
:102030000F931F932F933F934F935F936F937F93D0
:102040008F939F93AF93BF93EF93FF93CF93DF93C0
:10205000CDB7DEB76C97DEBFCDBF1092E90080919F
:10206000E80083FFFAC168E0CE0145960E94A51200
:1020700082EF8093E8008D8987FF05C09091E8008A
:1020800090FFFCCF03C09EEF9093E800982F9076CE
:1020900009F0C6C09E892F89188D91110CC0803817
:1020A00029F480913F038093F10002C01092F10067
:1020B0001092F10047C1422F50E0512B913051F462
:1020C000811140C14130510509F03CC180913F036D
:1020D0008D7F0BC0933061F4811134C141305105C3
:1020E00009F030C180913F03826080933F032AC191
:1020F000953041F48091E80080FFFCCF2068209368
:10210000E30020C1963009F05FC0EB8CFC8C10928C
:10211000E90010923D0310923C03123091F51092A9
:102120003B0310923A030E947D0E99E0BE016F5F5F
:102130007F4FDB01E92F1D92EA95E9F799831A8316
:1021400091E09E8390EA98879AEF998720913C03CB
:1021500030913D03275F3F4F3C832B838D8310924B
:10216000E90010923D0310923C03F0923B03E09291
:102170003A0349E050E080E00E94560E0E947D0E36
:10218000E1C0F0923B03E0923A030E94030EDC01AF
:102190001296ED90FC901397E114F10409F4C0C07D
:1021A000D701ED91FC910480F581E02DBE016B5EBD
:1021B0007F4FC7010995009719F00CF0C3C0C6C046
:1021C000F701E084F184E8CF973009F4BFC098307C
:1021D00021F481E08093F100B5C0993009F0B2C0DC
:1021E000837009F0B3C0E9E5F1E081E021E036E376
:1021F0009081992361F08093E9002093EB00919105
:102200009093EC003093ED008F5F873089F78EE775
:102210008093EA001092EA008F898093430392C072
:102220008B8D9C8D1092E90010923D0310923C031F
:1022300090933B0380933A03898D811156C08E8918
:102240009D89913A59F4813209F080C047E050E00D
:1022500062E271E080E00E94560E74C0913209F093
:1022600075C0833289F4888D90E0982F88272F8954
:10227000822BA0E0B0E080931E0190931F01A093F9
:102280002001B09321015EC0803269F48091E800A2
:1022900082FFFCCF67E082E291E00E94A5128BEF03
:1022A0008093E80006C0823209F04CC08F89809389
:1022B000290180913E03882319F0EEEFFAE002C075
:1022C000E0E0F8E08091220190912301A0912401A7
:1022D000B0912501803B9440A105B10509F088C06B
:1022E0008091290180FFA0C083C00E94030EDC0101
:1022F00012960D911C9113970115110539F1D80112
:10230000ED91FC910190F081E02DBE016B5E7F4F5D
:10231000C8010995811116C0F80100851185ECCF1F
:102320001130C1F0133091F48F89882309F455C01E
:102330008230E9F440E860E181ED91E00E94190EFD
:10234000882321F08EEF8093E80087C081E280939C
:10235000EB0083C08B8D9C8D089711F410934D0377
:1023600080914D03811136C062EE71E038C081303A
:1023700029F440E86BE085EC91E0E0CF833031F761
:102380000E94030EDC011296ED90FC9013978E01D3
:102390000F5F1F4F6801E114F10479F0D701ED914F
:1023A000FC910680F781E02DB801C7010995080F5F
:1023B000111DF701E084F184EECFD8011C92F601E3
:1023C00001900020E9F73197BF016C197D0940E0C9
:1023D000C601B4CF64EF71E002C061EC71E0611539
:1023E000710509F4B3CFFB01449150E080E833CF8D
:1023F0000FB6F894A8958091600088618093600082
:10240000109260000FBEA895EE3F2AE0F20739F067
:102410008091FE0A9091FF0A9183808393CF10925E
:10242000FF0A1092FE0A8ECFEE3F8AE0F80731F0E5
:10243000808191819093FF0A8093FE0A87E797E756
:10244000918380839BE088E10FB6F894A8958093F0
:1024500060000FBE9093600075CF6C960FB6F89435
:10246000DEBF0FBECDBFDF91CF91FF91EF91BF9146
:10247000AF919F918F917F916F915F914F913F911C
:102480002F911F910F91FF90EF90DF90CF900F90C1
:102490000FBE0F901F901895CF92DF92EF92FF9290
:1024A0000F931F93CF93DF936C017A018B01C0E0F0
:1024B000D0E0CE15DF0589F0D8016D918D01D601F0
:1024C000ED91FC910190F081E02DC6010995892BD9
:1024D00011F47E0102C02196ECCFC701DF91CF91AC
:1024E0001F910F91FF90EF90DF90CF900895409152
:1024F0003C0350913D0320913A0330913B03421736
:102500005307B4F49091E8009570E1F39091E800DE
:1025100092FD19C08093F10080913C0390913D039E
:1025200001968F739927892B19F48EEF8093E80019
:1025300080913C0390913D03019690933D038093DD
:102540003C0381E0089580E00895615030F02091CF
:10255000F100FC0120830196F8CF289884E680934F
:1025600042030895CF93DF93CDB7DEB729970FB617
:10257000F894DEBF0FBECDBF789484B5826084BD71
:1025800084B5816084BD85B5826085BD85B5816077
:1025900085BD80916E00816080936E0010928100F5
:1025A00080918100826080938100809181008160B0
:1025B0008093810080918000816080938000809171
:1025C000910082608093910080919100816080935E
:1025D0009100809190008160809390008091C10073
:1025E00084608093C1008091C10082608093C100AB
:1025F0008091C10081608093C1008091C30081609F
:102600008093C3008091C00082608093C00080915D
:10261000C20081608093C20080917A0084608093C0
:102620007A0080917A00826080937A0080917A00AB
:10263000816080937A0080917A00806880937A002C
:102640001092430310923F03109240038091D700F1
:1026500081608093D70080EA8093D80089B580613B
:1026600089BD89B5826089BD09B400FEFDCF61E0F6
:1026700070E080E090E00E9435038091D8008F7C6C
:1026800080618093D8008091E000807F8093E0009B
:102690008091E1008E7E8093E1008DE08093E200E6
:1026A000559A209AEEEFFFE7859194918B3F9C4DD0
:1026B00019F481E080933E0380910A0390910B030B
:1026C00024E6289FB001299F700D11248FEF9FEF02
:1026D0009093B2028093B10268517C4F072E000C98
:1026E000880B990B0E9435038FE591E00E94300B17
:1026F00060910A0370910B0380910C0390910D037C
:102700004AE00E94560B89E691E00E94300B81E07E
:102710000E94B702BC01990F880B990B61157105D6
:102720008105910511F00E94C42180910A039091C6
:102730000B03A0910C03B0910D0340912203509123
:10274000230360912403709125030697A105B10529
:1027500018F4DB01CA0108C080911E0390911F0389
:10276000A0912003B0912103809306039093070367
:10277000A0930803B093090384179507A607B7072A
:1027800029F485E190E0A0E0B0E004C086E190E0AB
:10279000A0E0B0E080930E0190930F01A093100190
:1027A000B093110161E087E10E947B0261E087E163
:1027B0000E944B0280910A0390910B03A0910C039D
:1027C000B0910D0383309105A105B10521F0089763
:1027D000A105B105A1F461E085E00E947B0261E002
:1027E00086E00E947B0260E085E00E944B0260E090
:1027F00086E00E944B0262E084E00E947B028CE64D
:1028000091E00E94480B80912B0387FD08C061E096
:102810000E947B0260E080912B030E944B0281E0CA
:10282000809326030E9457090E94EC0660912203C0
:1028300070912303809124039091250300E220E00E
:1028400040E00E9474068AE791E00E94480B3CE356
:10285000C32E31E0D32E10E0F6018081833609F4D7
:102860004DC062E00E947B028AE891E00E94300B3A
:10287000F601608170E080E090E04AE00E94560B33
:102880008FE891E00E94300B812F0E947E05682F17
:1028900070E080E090E04AE00E94560B812F0E9499
:1028A0007E05811112C060911E0370911F038091FB
:1028B00020039091210328E0E22E00E020E040E098
:1028C0000E945C0783E991E011C06091120370914E
:1028D0001303809114039091150308E0E02E00E0AB
:1028E00020E040E00E945C0789E991E00E94480BEB
:1028F0006AEF70E080E090E00E943503FFEFCF1AAE
:10290000DF0A1F5F163009F0A7CF84EA91E00E942A
:10291000480B85EB91E00E94300B0E940F0588E088
:102920000E94A90B8823A1F08CE192E00E94480B41
:102930006091120370911303809114039091150319
:10294000E0E1EE2E08E020E040E00E945C07E1CFED
:1029500060911E0370911F038091200390912103C9
:1029600050E1E52E08E020E040E00E945C0786E9A7
:1029700091E00E94480B88EA91E0909309018093CE
:10298000080180916A008F7C806280936A00EE9AD1
:1029900080E00E94380F81E00E94380F40910A03C6
:1029A00050910B0360910C0370910D0380E00E9425
:1029B000DB0E40E050E0BA0181E00E94DB0E409166
:1029C0000A0350910B0360910C0370910D0382E098
:1029D0000E94DB0E40E050E0BA0183E00E94DB0E73
:1029E00040910E0150910F01609110017091110101
:1029F00084E00E94DB0E40910A0350910B0360912A
:102A00000C0370910D0385E00E94DB0E20910A03F8
:102A100030910B0340910C0350910D03A8EEB3E0ED
:102A20000E9402220E94350380910A0390910B03B9
:102A3000A0910C03B0910D0365E0880F991FAA1FA8
:102A4000BB1F6A95D1F78F611092F5028093F60251
:102A50009093F702A093F802B093F90288E0809374
:102A6000FA0210920303EAE8F2E0ABEFB2E08191E0
:102A70008D9322E0E239F207D1F70E94C80A64E69A
:102A800070E080E090E00E94350380917C02882312
:102A900051F010927C020E94680D837009F4E3C02B
:102AA0000E94AF0EF8CF60911203709113038091D2
:102AB00014039091150318E1E12E00E120E040E0BD
:102AC0000E945C0787EC91E00E94480B60E177E28E
:102AD00080E090E00E94350360910E0370910F0337
:102AE000809110039091110300E220E040E00E94E9
:102AF000740688ED91E00E94480B60E082E10E943C
:102B00007B028AEF91E00E94480B6CE071E081E06B
:102B100090E00E9445056AE071E083E090E00E9449
:102B2000450500910A0110910B01B801012E000C1E
:102B3000880B990B0E94181F20E030E0A9010E9429
:102B4000691E882391F0E0900C01F0900D01B7010F
:102B50000F2C000C880B990B0E94181F20E030E00E
:102B6000A9010E94691E811119C060911203709120
:102B70001303809114039091150300E220E040E0DC
:102B80000E947406109278021092790210927A02D2
:102B900010927B028AE00E94D4073AC0B8016E19F5
:102BA0007F09072E000C880B990B0E94181F9B01B0
:102BB000AC0160E070E080E291E40E946E1E6093E0
:102BC00078027093790280937A0290937B026091ED
:102BD0001E0370911F038091200390912103B0E2A6
:102BE000EB2E00E020E040E00E945C0768EE73E01E
:102BF00080E090E00E94350360911E0370911F03F6
:102C0000809120039091210320E040E00E945C0726
:102C100080910C0190910D010E94500D80910A014C
:102C200090910B010E94500D609178027091790291
:102C300080917A0290917B020E94590C81EF91E081
:102C40000E94480B10928902109288021E0189E0AE
:102C5000280E311C11E0A9E04A2E0E94680D8370F5
:102C600009F434C212C060911E0370911F03809159
:102C700020039091210348E1E42E00E120E040E0B0
:102C80000E945C0786E492E01FCF0E94AF0E809105
:102C9000990290919A02019690939A0280939902D8
:102CA00080914403811113C04091F6025091F702C4
:102CB0006091F8027091F902F5E076956795579565
:102CC0004795FA95D1F781E00E94C905C6CF8130BA
:102CD00009F0D5C080914503813049F480902203EA
:102CE00090902303A0902403B090250334C0823039
:102CF00049F480901E0390901F03A0902003B09091
:102D0000210329C0833049F480901203909013036B
:102D1000A0901403B09015031EC0843049F4809035
:102D20001A0390901B03A0901C03B0901D0313C0C6
:102D3000853049F48090160390901703A0901803F3
:102D4000B090190308C080900E0390900F03A090DC
:102D50001003B090110300914603C09048035090B7
:102D60004903E0904703EE2049F08E2D880F880F2D
:102D7000880FE8EFFE2EF80EE82E03C070E2E72E73
:102D8000F12C011103C000E220E004C0013041F445
:102D90000E2D2F2D452DC501B4010E9474065DCF67
:102DA000023069F5C501B4010E9423068093140125
:102DB00000931501511002C06EE5562EC11002C0DD
:102DC000CC24C394612C712CD12C0E2D2F2D452D8C
:102DD000C501B4016C147D0404F70E94740660916F
:102DE0000E0370910F0380911003909111032F2D0A
:102DF000452D0E9474069FEF691A790AE6CF0330C9
:102E000071F5C501B4010E9423068093140100935B
:102E10001501511002C05EE5552EC11002C0CC2430
:102E2000C394612C712CD12C6C147D040CF015CF43
:102E30000E2D2F2D452DC501B4010E947406609101
:102E40000E0370910F0380911003909111032F2DA9
:102E5000452D0E947406EFEF6E1A7E0AE5CF04300E
:102E600041F40F2D2C2D452DC501B4010E945C07A6
:102E7000F4CE053009F0F1CE0E94EC06EECE8230A1
:102E800049F48091450380931D01109312018093B2
:102E90001601E3CE8330D1F480914503811102C045
:102EA00060E003C0813049F461E085E00E944B029C
:102EB00060E086E00E944B02D0CE823009F0CDCE99
:102EC00061E085E00E944B0261E0F3CF843009F4B9
:102ED000C4CE8530A1F58091F6029091F702A091C1
:102EE000F802B091F902BC01CD0135E096958795C5
:102EF000779567953A95D1F74AE00E94560B86E0A0
:102F000092E00E94300B44E4E42E43E0F42EFCE413
:102F1000EF16F3E0FF0671F0F70161917F0170E0B9
:102F200080E090E04AE00E94560B86E092E00E942A
:102F3000300BEDCF89E691E00E94300B8ECE8630CB
:102F400009F043C08091450380939802F0904603B6
:102F5000F092970290914703992319F0909387027A
:102F600002C010928702863029F585EB91E00E941D
:102F7000300B0E940F058F2D0E94A90B811192C06A
:102F800060911E0370911F03809120039091210393
:102F900038E1E32E00E120E040E00E945C076F2D65
:102FA00070E080E090E04AE00E94560B83E991E0F7
:102FB0000E94480B80919802893019F48093130184
:102FC0004CCE25E02093130148CE873009F045CE42
:102FD00080914503813009F062C010937E023091E8
:102FE0004603309392023130A1F460911203709144
:102FF0001303809114039091150320E2E22E00E167
:1030000021E040E039870E945C07398530937D02DA
:1030100024CE323091F46091220370912303809189
:1030200024039091250300E1E02E08E021E040E038
:103030000E945C071093850210CE393051F48091C4
:103040001D018250843008F408CE8AE00E94D40723
:1030500004CE80917D02882379F010927D026091E8
:103060001A0370911B0380911C0390911D0300E2D1
:1030700020E140E00E94740680918502882309F4D3
:10308000ECCD1092850260911A0370911B03809120
:103090001C0390911D0300E128E040E07ECE1092D9
:1030A0007E02DBCD8CE192E00E94480B609112031E
:1030B00070911303809114039091150328E1E22E7F
:1030C00000E120E040E00E945C0774CF809198020C
:1030D000883009F02EC19091970280911D019130A6
:1030E00081F48130A1F480911201882309F4E5C1B3
:1030F0006091120370911303809114039091150352
:10310000ABC0923009F0D9C1813009F46BC0823074
:1031100009F4D3C1833021F580911201882309F489
:10312000CCC160911A0370911B0380911C03909194
:103130001D0300E220E040E00E947406109212019C
:1031400080910A0390910B03A0910C03B0910D03A1
:1031500083309105A105B10509F052C061E03DC081
:10316000843001F580911201882309F4A6C11092E0
:1031700012011092950280910A0390910B03A09185
:103180000C03B0910D0383309105A105B10509F041
:10319000CAC061E085E00E944B0261E086E00E94C7
:1031A0004B028BC1853091F1863009F06DC0809162
:1031B0001201882309F481C11092120180910A033F
:1031C00090910B03A0910C03B0910D0383309105F6
:1031D000A105B10509F06DC060E085E00E944B02D9
:1031E00060E0DCCF80911201882309F466C1609110
:1031F00022037091230380912403909125032CC016
:103200000897A105B10509F058C1A8CF8091120116
:10321000882309F452C180910A0390910B03A09175
:103220000C03B0910D0383309105A105B10521F088
:103230000897A105B10541F461E085E00E944B02C9
:1032400061E086E00E944B0260911A0370911B03BB
:1032500080911C0390911D03B0E2EB2E00E021E071
:1032600040E00E945C0760910E0370910F03809113
:1032700010039091110321E040E00E945C0710923E
:1032800012011092950219C18730C9F48091120180
:10329000882309F412C160910E0370910F0380918D
:1032A00010039091110300E220E040E00E947406B8
:1032B00083CF0897A105B10509F0FFC08DCF8830F5
:1032C00019F00E94B206F9C080911201882309F416
:1032D000F4C060911A0370911B0380911C039091BC
:1032E0001D03A0E2EA2E00E021E040E00E945C071E
:1032F0006091120370911303809114039091150350
:1033000021E040E00E945C0760910E0370910F0382
:10331000809110039091110321E040E00E945C072E
:103320001092120128CF0897A105B10509F0C5C078
:1033300030CF893009F0C1C09091970280911D0172
:10334000913069F5909112018130D9F4992309F4F3
:10335000B0C2609122037091230380912403909165
:103360002503F0E2EF2E00E021E040E00E945C0740
:1033700060911603709117038091180390911903BF
:1033800074C08230B9F4992309F493C210921201E7
:103390001092950280919302909194027BC092309A
:1033A00009F087C290911201813009F444C0823043
:1033B00009F462C08730D1F480911201882309F4A6
:1033C00078C24FE150E060E070E080E00E94C90503
:1033D00060910E0370910F0380911003909111037F
:1033E00000E220E040E00E94740622C080911201B9
:1033F000882309F45EC210929402109293021092F4
:103400009A021092990210921A0110921901609179
:103410000E0370910F03809110039091110300E24D
:1034200020E040E00E94740610927E020E94B405E3
:10343000109212013EC2992309F43BC2609122030B
:10344000709123038091240390912503E0E2EE2EF6
:1034500000E021E040E00E945C076091120370915F
:103460001303809114039091150321E040E00E9422
:103470005C071092120173C0992321F0109212017F
:103480001092950280919302909194028F3F910542
:103490000CF00FC201969093940280939302809354
:1034A0001A0180919902809319014FE150E060E088
:1034B00070E080E00E94C905FCC180911D0181304F
:1034C00009F050C080911201882309F4F2C1609183
:1034D0001A0370911B0380911C0390911D0350E20D
:1034E000E52E00E021E040E00E945C0760910E03C1
:1034F00070910F03809110039091110321E040E03F
:103500000E945C07109212011092960280910A03A9
:1035100090910B03A0910C03B0910D030697A105A8
:10352000B10548F48091220390912303A0912403D4
:10353000B091250308C080911E0390911F03A091B4
:103540002003B09121038093060390930703A09377
:103550000803B09309031092190110921A011092F6
:103560009502A7C1823009F4A4C1833031F18430BF
:1035700009F580911201882309F49BC11092120170
:103580001092950280910A0390910B03A0910C0375
:10359000B0910D0383309105A105B10529F008977D
:1035A000A105B10509F085C161E085E00E944B02EB
:1035B00061E090C0853009F072C0809112018823CB
:1035C00091F160911A0370911B0380911C039091FB
:1035D0001D0340E2E42E00E021E040E00E945C0791
:1035E00010921201109295021092960210921901F7
:1035F00010921A0180910A0390910B03A0910C0381
:10360000B0910D0383309105A105B10521F0089714
:10361000A105B10541F461E085E00E944B0260E044
:1036200086E00E944B0280919502811142C18091F7
:103630008602882321F10E945905809196028823F1
:1036400009F437C110921A01109285024FE150E03F
:1036500060E070E080E00E94C90560911E037091F7
:103660001F03809120039091210338E0E32E00E0B6
:1036700020E040E00E945C07109395021AC100917F
:103680007F020E94B40580917F02081709F411C1DE
:1036900080E00E947E05882309F40BC1D8C08630E3
:1036A000E9F480911201882309F403C110921201F8
:1036B00080910A0390910B03A0910C03B0910D032C
:1036C00083309105A105B105F1F460E085E00E9429
:1036D0004B0260E086E00E944B02EBC08730C9F4E9
:1036E00080911201882309F4E4C060910E03709167
:1036F0000F03809110039091110300E220E040E05D
:103700000E947406D3CF0897A105B10509F0D1C076
:10371000DCCF883009F0CBC080911201882309F4F6
:1037200042C060911A0370911B0380911C03909119
:103730001D0320E2E22E00E021E040E00E945C0751
:1037400060911203709113038091140390911503FB
:1037500021E040E00E945C0760911A0370911B0316
:1037600080911C0390911D0321E040E00E945C07C2
:103770001092120180910A0390910B03A0910C0307
:10378000B0910D0383309105A105B10521F0089793
:10379000A105B10541F461E085E00E944B0261E0C2
:1037A00086E00E944B020E945905099714F010937D
:1037B000960280919602882319F110921A011092B4
:1037C00085024FE150E060E070E080E00E94C905B2
:1037D00060911E0370911F0380912003909121033B
:1037E00000E1E02E08E020E040E00E945C0710923B
:1037F00096026AE070E080E090E00E9435031AC013
:1038000010931A01109385024FE150E060E070E0E0
:1038100080E00E94C905609122037091230380918A
:10382000240390912503B0E1EB2E08E020E040E076
:103830000E945C0700917F020E94B40580917F0284
:103840000817B9F180E00E947E058823A9F088E07E
:1038500080931A014FE150E060E070E080E00E9448
:10386000C9051093860260911E0370911F03809119
:1038700020039091210313C040921A014FE150E0C0
:1038800060E070E080E00E94C905109286026091BD
:103890002203709123038091240390912503A8E0D3
:1038A000EA2E00E020E040E00E945C0702C00E9497
:1038B000B20680911D01833009F09AC080910A03FD
:1038C00090910B03A0910C03B0910D0383309105EF
:1038D000A105B10529F00897A105B10509F088C037
:1038E000E0901B01F0901C0184E00E942202909362
:1038F0001C0180931B01E816F90609F479C00E94A7
:10390000500D80911B0190911C01892B09F070C012
:1039100084E0809316014FE150E060E070E080E0C9
:103920000E94C90588E092E00E94480B0E94BF21D6
:10393000C0900A03D0900B03E0900C03F0900D03AD
:10394000F5E0CC0CDD1CEE1CFF1CFA95D1F7809045
:103950000E0190900F01A0901001B0901101C828A5
:10396000D928EA28FB2828E0E4E3F1E0DE011196FB
:1039700001900D922A95E1F722E330E040E050E01B
:103980000E94E3214B015C01EFEF8E1A9E0AAE0A02
:10399000BE0A8091870290E0889DB001899D700DDC
:1039A000989D700D1124072E000C880B990B0E9416
:1039B00035031092F502C092F602D092F702E0921F
:1039C000F802F092F90288E08093FA021092030361
:1039D000FE013196ABEFB2E081918D93E215F305D4
:1039E000D9F70E94C80A1093120184E080931D0148
:1039F00080E090E0892B09F430C90E9400002AC9B8
:103A000080912E0390912F03009711F00E94D420F3
:103A100080912B0387FD03C060E00C947B02089526
:103A2000CF92DF92EF92FF921092A8021092A7021B
:103A300088EE93E0A0E0B0E08093A9029093AA0200
:103A4000A093AB02B093AC0288E491E09093A602FD
:103A50008093A5028FEF9FEF9093B2028093B10203
:103A60001092260310922D03109233031092340308
:103A7000109235031092360380E690E090932A036B
:103A8000809329030E943F2090932F0380932E035D
:103A9000009761F020E6FC0111922A95E9F780E297
:103AA00090E0909328038093270308C010922A0384
:103AB00010922903109228031092270388E0809324
:103AC0002B0380912603882341F061E088E00E9467
:103AD0007B0260E088E00E944B02E8E6F1E0E491BE
:103AE000F0E0EE0FFF1FEE5AFE4F859194919093F8
:103AF000380380933703EBE3F1E0E491E09339037B
:103B000083E080932C0381E0809330031092310393
:103B100082E080933203C12CD12C92E3E92EF12C68
:103B2000C0922203D0922303E0922403F092250353
:103B300080E092E3A0E0B0E080931E0390931F0327
:103B4000A0932003B093210382E390E0A0E0B0E0D3
:103B500080931A0390931B03A0931C03B0931D033F
:103B600082E392E3A2E3B0E08093160390931703FD
:103B7000A0931803B093190380E092E3A2E3B0E0AE
:103B80008093120390931303A0931403B09315032F
:103B900010920E0310920F03109210031092110353
:103BA00080E090E00E94CD2190E0A0E0B0E0809322
:103BB0000A0390930B03A0930C03B0930D03C092E0
:103BC0000603D0920703E0920803F092090381E113
:103BD0008093050361E00E947B0261E08091050310
:103BE000FF90EF90DF90CF900C944B02EE0FFF1FF1
:103BF0000590F491E02D09945058BB27AA270E9404
:103C0000141E0C948E1F0E94801F38F00E94871F84
:103C100020F039F49F3F19F426F40C947D1F0EF424
:103C2000E095E7FB0C94771FE92F0E949F1F58F344
:103C3000BA17620773078407950720F079F4A6F591
:103C40000C94C11F0EF4E0950B2EBA2FA02D0B0182
:103C5000B90190010C01CA01A0011124FF27591BD1
:103C600099F0593F50F4503E68F11A16F040A22FD7
:103C7000232F342F4427585FF3CF46953795279548
:103C8000A795F0405395C9F77EF41F16BA0B620B47
:103C9000730B840BBAF09150A1F0FF0FBB1F661F8E
:103CA000771F881FC2F70EC0BA0F621F731F841FD1
:103CB00048F4879577956795B795F7959E3F08F0F7
:103CC000B0CF9395880F08F09927EE0F97958795B9
:103CD00008950E94531F08F481E008950E94821EF7
:103CE0000C948E1F0E94871F58F00E94801F40F086
:103CF00029F45F3F29F00C94771F51110C94C21FD7
:103D00000C947D1F0E949F1F68F39923B1F35523E4
:103D100091F3951B550BBB27AA27621773078407DE
:103D200038F09F5F5F4F220F331F441FAA1FA9F374
:103D300035D00E2E3AF0E0E832D091505040E69562
:103D4000001CCAF72BD0FE2F29D0660F771F881FC3
:103D5000BB1F261737074807AB07B0E809F0BB0BB6
:103D6000802DBF01FF2793585F4F3AF09E3F5105CA
:103D700078F00C94771F0C94C21F5F3FE4F3983ED9
:103D8000D4F3869577956795B795F7959F5FC9F7B3
:103D9000880F911D9695879597F90895E1E0660F34
:103DA000771F881FBB1F621773078407BA0720F0AD
:103DB000621B730B840BBA0BEE1F88F7E095089516
:103DC0000E94E71E6894B1110C94C21F08950E94CE
:103DD000A71F88F09F5798F0B92F9927B751B0F0D7
:103DE000E1F0660F771F881F991F1AF0BA95C9F77F
:103DF00014C0B13091F00E94C11FB1E008950C943D
:103E0000C11F672F782F8827B85F39F0B93FCCF3EF
:103E1000869577956795B395D9F73EF490958095FB
:103E2000709561957F4F8F4F9F4F0895E89409C01B
:103E300097FB3EF490958095709561957F4F8F4FDD
:103E40009F4F9923A9F0F92F96E9BB279395F695F3
:103E5000879577956795B795F111F8CFFAF4BB0F71
:103E600011F460FF1BC06F5F7F4F8F4F9F4F16C0D5
:103E7000882311F096E911C0772321F09EE8872F5F
:103E8000762F05C0662371F096E8862F70E060E01B
:103E90002AF09A95660F771F881FDAF7880F969594
:103EA000879597F90895990F0008550FAA0BE0E838
:103EB000FEEF16161706E807F907C0F012161306EC
:103EC000E407F50798F0621B730B840B950B39F42C
:103ED0000A2661F0232B242B252B21F408950A2692
:103EE00009F4A140A6958FEF811D811D089597F9D2
:103EF0009F6780E870E060E008959FEF80EC089590
:103F000000240A94161617061806090608950024B8
:103F10000A9412161306140605060895092E039432
:103F2000000C11F4882352F0BB0F40F4BF2B11F4A6
:103F300060FF04C06F5F7F4F8F4F9F4F089557FD05
:103F40009058440F551F59F05F3F71F04795880F07
:103F500097FB991F61F09F3F79F08795089512169E
:103F600013061406551FF2CF4695F1DF08C016164A
:103F700017061806991FF1CF8695710561050894FB
:103F80000895E894BB2766277727CB0197F9089512
:103F90000E94531F08F48FEF08950E94E01F0C94B5
:103FA0008E1F0E94801F38F00E94871F20F09523EB
:103FB00011F00C94771F0C947D1F11240C94C21FD8
:103FC0000E949F1F70F3959FC1F3950F50E0551FFE
:103FD000629FF001729FBB27F00DB11D639FAA275E
:103FE000F00DB11DAA1F649F6627B00DA11D661FAD
:103FF000829F2227B00DA11D621F739FB00DA11DCE
:10400000621F839FA00D611D221F749F3327A00D87
:10401000611D231F849F600D211D822F762F6A2F23
:1040200011249F5750409AF0F1F088234AF0EE0F88
:10403000FF1FBB1F661F771F881F91505040A9F7B5
:104040009E3F510580F00C94771F0C94C21F5F3F78
:10405000E4F3983ED4F3869577956795B795F795F1
:10406000E7959F5FC1F7FE2B880F911D9695879569
:1040700097F908950E94531F880B990B0895CF93C9
:10408000DF938230910510F482E090E0E0915C03D0
:10409000F0915D0320E030E0C0E0D0E0309711F116
:1040A0004081518148175907C0F04817590761F4FA
:1040B00082819381209719F09B838A832BC09093F0
:1040C0005D0380935C0326C02115310519F042176A
:1040D000530718F49A01BE01DF01EF010280F3815A
:1040E000E02DDCCF2115310509F1281B390B2430D7
:1040F000310590F412968D919C911397611571057D
:1041000021F0FB019383828304C090935D0380932D
:104110005C03FD01329644C0FD01E20FF31F819361
:104120009193225031092D933C933AC020915A0328
:1041300030915B03232B41F420912C0130912D0110
:1041400030935B0320935A0320912A0130912B0175
:104150002115310541F42DB73EB740912E01509104
:104160002F01241B350BE0915A03F0915B03E217FA
:10417000F307A0F42E1B3F0B2817390778F0AC018A
:104180004E5F5F4F2417350748F04E0F5F1F509367
:104190005B0340935A038193919302C0E0E0F0E007
:1041A000CF01DF91CF9108950F931F93CF93DF93AA
:1041B000009709F48CC0FC0132971382128200919F
:1041C0005C0310915D030115110581F4208131819B
:1041D000820F931F20915A0330915B0328173907F0
:1041E00079F5F0935B03E0935A0371C0D80140E086
:1041F00050E0AE17BF0750F412962D913C911397E3
:10420000AD012115310509F1D901F3CF9D01DA0185
:104210003383228360817181860F971F82179307F2
:1042200069F4EC0128813981260F371F2E5F3F4F3B
:10423000318320838A819B8193838283452B29F458
:10424000F0935D03E0935C0342C01396FC93EE93FE
:104250001297ED01499159919E01240F351FE217E4
:10426000F30771F480819181840F951F0296119656
:104270009C938E938281938113969C938E93129735
:10428000E0E0F0E0D80112968D919C911397009791
:1042900019F0F8018C01F6CF8D919C9198012E5F59
:1042A0003F4F820F931F20915A0330915B032817D1
:1042B000390769F4309729F410925D0310925C037A
:1042C00002C01382128210935B0300935A03DF91A2
:1042D000CF911F910F91089581E090E0F8940C9494
:1042E00046228F929F92AF92BF92CF92DF92EF922F
:1042F000FF92CF93DF93EC01688179818A819B8162
:10430000611571058105910521F464E279ED8BE574
:1043100097E02DE133EF41E050E00E94E3214901B5
:104320005A019B01AC01A7EAB1E40E9402226B0191
:104330007C01ACEEB4EFA50194010E941022DC01D7
:10434000CB018C0D9D1DAE1DBF1DB7FF03C0019796
:10435000A109B04888839983AA83BB83BC01CD019E
:104360009F77DF91CF91FF90EF90DF90CF90BF903C
:10437000AF909F908F9008950E947121089580E3DF
:1043800091E00E9471210895609330017093310192
:1043900080933201909333010895F999FECF92BD35
:1043A00081BDF89A992780B50895262FF999FECFF7
:1043B0001FBA92BD81BD20BD0FB6F894FA9AF99A42
:1043C0000FBE01960895052E97FB1EF400940E94DF
:1043D000FA2157FD07D00E94152207FC03D04EF4A6
:1043E0000C94FA2150954095309521953F4F4F4FB1
:1043F0005F4F089590958095709561957F4F8F4F91
:104400009F4F08950E943722A59F900DB49F900D55
:10441000A49F800D911D11240895B7FF0C940222D2
:104420000E940222821B930B0895A1E21A2EAA1B5E
:10443000BB1BFD010DC0AA1FBB1FEE1FFF1FA21754
:10444000B307E407F50720F0A21BB30BE40BF50B51
:10445000661F771F881F991F1A9469F760957095DA
:10446000809590959B01AC01BD01CF010895A29F5D
:10447000B001B39FC001A39F700D811D1124911D38
:10448000B29F700D811D1124911D089511E0C4E0AB
:10449000D1E004C0FE010E94F61D2196C530D1076F
:0644A000C9F7F894FFCFFC
:1044A600A701A701A701A701A7014501450115001D
:1044B6000000010500000000000000010008FFFFE9
:1044C600FFFF00E100000000000000005E03800026
:1044D6000100000002040000000000000B0A6363F4
:1044E60063630605000000002F016F035001AC0155
:1044F600CA0145011132200800C180810000004E2A
:104506006F64652049443A20000D0A004E656F70BD
:104516006978656C2054657374002D2D2D2D2D49F9
:104526006E707574732D2D2D2D0050696E2300202D
:104536003D2000202D204F4B00202D20505245536A
:10454600534544002D2D2D2D2D43616E204275734C
:104556002D2D2D2D0043414E2D4255532053746170
:10456600727475703A20004E6F7468696E672052D7
:1045760065636569766564002D2D2D2D2D43616C6F
:1045860069627261746520546F7765722D2D2D2DC9
:104596000046696E69736865642043616C6962727E
:1045A6006174696F6E002C004D6F6E746F6E204DD6
:1045B6006573736167652053656E74004E6F742072
:1045C600476F6F642C20636865636B20796F757223
:1045D6002070696E2320616E6420636F6E6E656362
:1045E60074696F6E73004D657373616765205265FC
:1045F6006365697665640053746172742043616C07
:104606006962726174696F6E006E616E00696E66D2
:08461600006F7666002E000023
:00000001FF
