:100000000C9475000C949D000C949D000C949D0024
:100010000C949D000C949D000C949D000C949D00EC
:100020000C949D000C949D000C949D000C949D00DC
:100030000C949D000C949D000C949D000C949D00CC
:100040000C9445120C949D000C941B150C944D15AA
:100050000C949D000C949D000C949D000C949D00AC
:100060000C949D000C949D00EF03F303B903BC03B3
:10007000BF03C303C703CA03CE03D103D403D7030B
:10008000DA03DE03E203E603E903000000080002EE
:10009000010000030407000000000000000001024E
:1000A0000408102040800102040810200102040806
:1000B00010200404040404040404020202020202E4
:1000C00003030303030300000000230026002900AC
:1000D00000000000250028002B0000000000240084
:1000E00027002A000E117D15711111241FBECFEFBC
:1000F000D8E0DEBFCDBF12E0A0E0B1E0E8E6F1E37A
:1001000002C005900D92A230B107D9F723E0A2E01A
:10011000B2E001C01D92A933B207E1F710E0C8EECA
:10012000D0E004C02297FE010E942317C43ED107ED
:10013000C9F70E94C1150C94A7180C940000CF9326
:10014000DF93EC0188859985009711F00E94BF1715
:100150008D8187FD05C060E0DF91CF910C943E1347
:10016000DF91CF910895CF93DF93EC018D8187FDCF
:1001700007C061E00E943E1360E08D810E9477130A
:1001800081E08883DF91CF910895EF92FF920F93E2
:100190001F93CF93DF93EC017B01888599850097AE
:1001A00011F00E94BF178701000F111F0E0D1F1DB8
:1001B0001C830B83C8010E942717998788870097A3
:1001C00041F0A80160E070E00E947118FA82E982B3
:1001D00004C01C821B821A821982DF91CF911F9169
:1001E0000F91FF90EF900895FC01668360FF04C0BB
:1001F00081E08287138611C062FF06C081E082879A
:1002000082E0838714860895128663FF04C082E02B
:10021000838781E003C081E0838782E0848708953B
:10022000CF92DF92EF92FF920F931F93CF93DF93C2
:10023000CDB7DEB729970FB6F894DEBF0FBECDBF9E
:100240008C01DC0118968D919C911997892B09F4EA
:100250009BC00E948F12F801C584D684E784F08881
:100260006C197D098E099F0962337105810591051D
:1002700080F3F894838194819A838983A085B185E2
:100280007D01EFEFEE1AFE0A8C918987D801169650
:100290009C91169751960D90BC91A02DF8018389E1
:1002A00091FF2EC09C91982B98879C9180958923D3
:1002B0008F838F818E8388E08D8358856F814985F8
:1002C0003D812E8189819A81F7015C9347FD252F1D
:1002D0003A952C93262F39F0441F00C000006C93F0
:1002E000000000C0F2CF38E041916C93000001970C
:1002F00061F7F801B28BA18B49873D832E8338C00B
:100300009C91982B98879C91809589238F838F81CE
:100310008C8388E08B8358856F8149853B812C8154
:1003200089819A81F7015C9347FD252F00C000C0A9
:100330002C9300C000C000C000C000C06C9300003F
:10034000262F3A9541F0441F000000C000C000C0B5
:1003500000C000C0E8CF38E0419100C06C9300C0FD
:10036000019709F7F801B28BA18B49873B832C8356
:100370009A83898378940E948F12D8011D966D9379
:100380007D938D939C93509729960FB6F894DEBF7A
:100390000FBECDBFDF91CF911F910F91FF90EF90D6
:1003A000DF90CF9008951F93CF93DF93EC01162F2A
:1003B0008881882331F08D8187FD03C060E00E9431
:1003C0003E131D838881882341F061E0812F0E94C4
:1003D0003E1360E0812F0E947713812F90E0FC0193
:1003E000EE54FF4FE491F0E0EE0FFF1FE053FF4F9C
:1003F000259134913A8B298BFC01E256FF4F849171
:100400008B8BDF91CF911F9108950F931F93CF9303
:10041000DF9300D0CDB7DEB78C01FC0110821782CC
:1004200011861086158616861786108A2A834983B8
:100430000E94C5004981642FC8010E94D3012A810E
:10044000622FC8010F900F90DF91CF911F910F91F4
:100450000C94F400CF92DF92EF92FF920F931F93D0
:10046000CF93DF93FC01818192816817790788F52A
:10047000CA01AA27BB27082FC32ED42EE52EFF249E
:100480001C2DD22FC781CC2361F08C9FC001112479
:10049000092FCC9E600111241D2D2C9F9001112449
:1004A000D32F9B01220F331F260F371F8085918585
:1004B000820F931F2285DC01A20FB11D0C932385AF
:1004C000DC01A20FB11D1C932485FC01E20FF11D7C
:1004D000D083DF91CF911F910F91FF90EF90DF902C
:1004E000CF900895962F50E060E070E0592B682B74
:1004F000CB01BA0108958EBD00000DB407FEFDCFFB
:100500008EB50895CF93DF93EC0160E088890E9457
:10051000771380EC0E947B0261E088890E94771348
:100520006AE070E080E090E0DF91CF910C94B2122D
:100530001F93CF93DF93EC01162F60E088890E9410
:10054000771383E00E947B02812F0E947B0280E070
:100550000E947B02182F61E088890E947713812F07
:10056000DF91CF911F910895CF92DF92EF92FF928A
:100570000F931F93CF93DF9300D0CDB7DEB78C01DD
:10058000F62EE22E60E0FC01808949835A830E94A6
:10059000771383E00E947B028F2D0E947B024981AA
:1005A000C42E5A81D52EF12CFE1459F0F8E0FF1616
:1005B00041F080E00E947B02F60181936F01F39489
:1005C000F3CF61E0F80180890F900F90DF91CF9118
:1005D0001F910F91FF90EF90DF90CF900C947713C5
:1005E000EF92FF921F93CF93DF931F92CDB7DEB7A9
:1005F0007C01162F60E0FC01808949830E947713FB
:1006000082E00E947B02812F0E947B024981842F1D
:100610000E947B0261E0F70180890F90DF91CF910A
:100620001F91FF90EF900C947713CF92DF92EF928F
:10063000FF920F931F93CF93DF9300D0CDB7DEB718
:100640008C01E62EF22E60E0FC01808949835A83FA
:100650000E94771382E00E947B028E2D0E947B0213
:100660004981E42EC42E5A81D52E8C2D8E198F15DA
:1006700030F4F60181916F010E947B02F6CF61E0B8
:10068000F80180890F900F90DF91CF911F910F910A
:10069000FF90EF90DF90CF900C947713EF92FF9242
:1006A0001F93CF93DF9300D0CDB7DEB77C01162F19
:1006B00060E0FC0180892A8349830E94771385E0EA
:1006C0000E947B02812F0E947B024981842F0E941D
:1006D0007B022A81822F0E947B0261E0F7018089E0
:1006E0000F900F90DF91CF911F91FF90EF900C949E
:1006F00077131F93CF93DF93EC0160E088890E940A
:10070000771380EA0E947B0280E00E947B02182F10
:1007100061E088890E947713812FDF91CF911F912B
:1007200008951F93CF93DF93EC01162F262F40EEF1
:100730006FE00E944E036FE0CE010E949802982F56
:10074000907E81E0911301C080E0DF91CF911F91F5
:1007500008950F931F93CF93DF93EC01462F50E042
:10076000FA013197E131F105C0F5EC5CFF4F0C94D3
:10077000211717E80FEF05C017E00AEB02C015E8D4
:1007800001EF4FE033C017E00EEB49E02FC017E850
:100790000FEF02C017E80AEF47E028C017E80FEF95
:1007A0000BC017E00EEB08C017E00DEA05C017E814
:1007B0000AEF02C016E800EF43E018C017E80AEF9E
:1007C00041E014C015E801EF41E410C016E800EF65
:1007D00002C012E800ED40E009C081E016C017E851
:1007E0000FEF4FE303C017E80FEF4FE16AE2CE01CE
:1007F0000E94F002402F69E2CE010E94F002412FD8
:1008000068E2CE010E94F00280E0DF91CF911F915B
:100810000F9108951F93CF93DF93EC0110E340E015
:10082000612FCE010E94F00260E1610F40E0CE0135
:100830000E94F00260E2610F40E0CE010E94F002EF
:100840001F5F1E3361F740E060E6CE010E94F002B8
:1008500040E060E7CE01DF91CF911F910C94F00250
:100860000F931F93CF93DF93EC01062F0E94820218
:1008700060E8CE010E949103182F6AE070E080E0EA
:1008800090E011110CC00E94B212602FCE010E94A4
:10089000A903882339F06AE070E080E090E00E94CC
:1008A000B21228C06AE070E080E090E00E94B212CC
:1008B000CE010E940A0443E06BE2CE010E94F002E6
:1008C00024E044E660E6CE010E944E0320E040E6CC
:1008D00060E7CE010E944E0360E0CE010E949103CA
:1008E000C82F8823C1F26AE070E080E090E00E94A7
:1008F000B2121C2F812FDF91CF911F910F9108957C
:100900000F931F93CF93DF9300D000D0CDB7DEB706
:100910004130B1F40C831B83890122273327502FE8
:100920005C71402F437078E0579F400D1124486060
:100930004A8355E0169507955A95E1F709830DC04E
:10094000A80123E0569547952A95E1F7498302953A
:10095000000F007E0A831C821B8224E0AE014F5FE1
:100960005F4F0E9415030F900F900F900F90DF9133
:10097000CF911F910F910895EF92FF920F931F93C4
:10098000CF93DF9300D000D0CDB7DEB77A018901D5
:10099000FA011082F901108211821282138224E07E
:1009A000AE014F5F5F4F0E94B4022A813981822FCE
:1009B00090E045E0959587954A95E1F7F8E03F9FEF
:1009C000800D911D1124AA2797FDA095BA2FF8013B
:1009D00080839183A283B38323FF25C062E0880FC5
:1009E000991FAA1FBB1F6A95D1F72370820F911D13
:1009F000A11DB11DBA2FA92F982F88272B81820FF7
:100A0000911DA11DB11DBA2FA92F982F88272C81C8
:100A1000820F911DA11DB11D80839183A283B38399
:100A200081E0F70180830F900F900F900F90DF917E
:100A3000CF911F910F91FF90EF900895FF920F9328
:100A40001F93CF93DF93EC01F62EAC014A5F5F4F0B
:100A500065E06F0D2D810E9415038E85813019F49C
:100A60008D8180648D8364E06F0D4D81CE010E9485
:100A7000F00209811A812B813C8148816F2DCE01C2
:100A80000E948004DF91CF911F910F91FF900895F4
:100A90000F931F93CF93DF93EC01162F9C012F5FD1
:100AA0003F4FAC010E94BC046FEF610FCE010E946A
:100AB0009802082F64E0610FCE010E949802282F4F
:100AC0008D8303FF03C081E08E8701C01E862F70D7
:100AD0002D83AE014A5F5F4F65E0610FCE01DF916C
:100AE000CF911F910F910C94B402615028E048E01F
:100AF0000C944E039F92AF92BF92CF92DF92EF92EF
:100B0000FF920F931F93CF93DF9300D01F92CDB727
:100B1000DEB76C017B0180E3898380E48A8380E512
:100B20008B83FB0110828E010F5F1F4F5E01F4E08B
:100B3000AF0EB11CF80191908F01692DC6010E9482
:100B40009802982F987083FD04C09394F7019082C7
:100B500004C00A151B0571F792E0892F0F900F90C2
:100B60000F90DF91CF911F910F91FF90EF90DF9049
:100B7000CF90BF90AF909F900895FF920F931F93D7
:100B8000CF93DF9300D01F92CDB7DEB78B0120E368
:100B9000298320E42A8320E52B83FB011082FE01B8
:100BA000E40FF11DF1806F2D0E949802982F98702C
:100BB00083FD04C0F394F801F08201C092E0892F14
:100BC0000F900F900F90DF91CF911F910F91FF9099
:100BD0000895CF93DF93EC01862F688B61E00E942C
:100BE0003E1361E08889DF91CF910C947713CF9306
:100BF000DF9300D01F92CDB7DEB76B8389839A83D2
:100C00000E942E086B8189819A810E94300491E0B4
:100C1000811101C090E0892F0F900F900F90DF910C
:100C2000CF9108958F929F92BF92CF92DF92EF92D1
:100C3000FF920F931F93CF93DF931F92CDB7DEB731
:100C40004C01B62E680179016AE070E080E090E026
:100C500049830E94B21260E8C4010E949103182FD8
:100C60004981882329F06AE070E080E090E01AC0B2
:100C7000B11004C09701860160E206C081E0B8129D
:100C800006C09701860164E2C4010E94800460E00E
:100C9000C4010E949103182F6AE070E080E090E0A8
:100CA000112321F00E94B212812F03C00E94B212C0
:100CB00080E00F90DF91CF911F910F91FF90EF9007
:100CC000DF90CF90BF909F908F900895AF92BF928A
:100CD000CF92DF92EF92FF920F931F93CF93DF9308
:100CE00000D0CDB7DEB75C01562F680179016AE00C
:100CF00070E080E090E04A8359830E94B21260E87D
:100D0000C5010E949103182F4A815981882329F037
:100D10006AE070E080E090E031C05230B1F040F421
:100D2000552379F05130F9F49701860164E018C039
:100D3000543099F070F05530B1F49701860168E1B4
:100D40000FC09701860160E00BC09701860168E043
:100D500007C09701860160E103C09701860164E145
:100D6000C5010E94800460E0C5010E949103182F14
:100D70006AE070E080E090E0112321F00E94B2125E
:100D8000812F03C00E94B21280E00F900F90DF917C
:100D9000CF911F910F91FF90EF90DF90CF90BF9078
:100DA000AF900895CF92DF92EF920F931F93CF935E
:100DB000DF93FC0120834183528363837483093072
:100DC00008F008E00583E686D60180E090E010E0B8
:100DD000801791073CF42D91EF01C80FD91F2E8386
:100DE0000196F6CF80E0DF91CF911F910F91EF90A8
:100DF000DF90CF900895CF92DF92EF92FF920F9302
:100E00006701E12C0E94D2060F91FF90EF90DF90D6
:100E1000CF900895EF92FF920F931F93CF93DF939C
:100E20001F92CDB7DEB78C01E12CF12CBE016F5FB4
:100E30007F4FC8010E947A059FEFE91AF90A8230B4
:100E400029F482E3E816F10489F724C092E3E91655
:100E5000F10401F16981C8010E941E056981C80180
:100E60000E947505E12CF12C8FEFE81AF80A6981D0
:100E70006150C8010E94980283FF06C092E3E91600
:100E8000F10491F787E007C082E3E816F104D1F39B
:100E900080E001C086E00F90DF91CF911F910F910C
:100EA000FF90EF900895DF92EF92FF920F931F93C0
:100EB000CF93DF931F92CDB7DEB78C01D62EE12CF6
:100EC000F12C4D2DBE016F5F7F4FC8010E94BD0503
:100ED0009FEFE91AF90A823029F482E3E816F10457
:100EE00081F72BC092E3E916F10439F16981C80159
:100EF0000E941E056981C8010E947505E12CF12C34
:100F00008FEFE81AF80A69816150C8010E949802BF
:100F1000D82E61E070E080E090E00E94B212D3FE33
:100F200006C092E3E916F10459F787E007C082E3AF
:100F3000E816F104D1F380E001C086E00F90DF9164
:100F4000CF911F910F91FF90EF90DF900895EF9256
:100F5000FF920F93CF93DF93EC010E94FB06CE012B
:100F6000DF91CF910F91FF90EF900C940A07CF92F1
:100F7000EF92FF920F93CF93DF93EC010E94FB0659
:100F80006C2DCE01DF91CF910F91FF90EF90CF901C
:100F90000C945307CF93DF93EC010E94790380FFF9
:100FA00007C061E6CE010E94480520E041E008C08C
:100FB00081FF0CC061E7CE010E94480520E042E0BD
:100FC0006CE2CE010E944E0380E001C084E0DF911C
:100FD000CF910895EF92FF920F931F93CF93DF93DA
:100FE00000D0CDB7DEB77C018B0149835A830E94C4
:100FF000CA0749815A81811118C0D70115969C9161
:10100000F8019083FA0120E030E0D70115964C9169
:1010100050E0241735075CF4D701A20FB31F1696D2
:101020009C9191932F5F3F4FF0CFF80110820F906A
:101030000F90DF91CF911F910F91FF90EF90089546
:101040000E947903837011F083E0089584E008958D
:10105000FC0161817281838194810895CF93CFB720
:10106000F89480910402811127C0ECEBF0E08491A8
:10107000E8EAF0E09491E82FF0E0EE0FFF1FE6526F
:10108000FF4FA591B4918C91892321F461E08AE00E
:101090000E94771361E08AE00E943E138CB5806164
:1010A0008CBD8CB580648CBD61E08DE00E943E13E8
:1010B00061E08BE00E943E13809104028F5F809379
:1010C0000402CFBFCF910895CF93DF938091160292
:1010D000843229F010923602E6E1F2E035C06AE28D
:1010E00071E086E192E00E946C186AE271E080E0B3
:1010F00090E00E946C180E944E18AA2797FDA095B8
:10110000BA2F80933D0290933E02A0933F02B0938A
:1011100040026AE271E080E090E00E946C18CAE44C
:10112000D2E0009751F00E944E1888836AE271E085
:1011300080E090E00E946C1801C01882219622E0A5
:10114000C235D20771F7C6CF119282E0E633F807B5
:10115000D9F7DF91CF910895813049F460917702FA
:10116000709178028091790290917A02089582308C
:1011700049F46091730270917402809175029091AC
:1011800076020895833049F4609167027091680295
:101190008091690290916A020895843049F46091C7
:1011A0006F027091700280917102909172020895A5
:1011B000853049F460916B0270916C0280916D02F0
:1011C00090916E0208956091630270916402809123
:1011D00065029091660208950F931F930091770224
:1011E000109178022091790230917A02601771078C
:1011F00082079307D1F1009173021091740220913C
:10120000750230917602601771078207930779F1B2
:1012100000916702109168022091690230916A0280
:10122000601771078207930721F100916F021091F7
:10123000700220917102309172026017710782076B
:10124000930779F000916B0210916C0220916D026E
:1012500030916E02601771078207930721F485E0D1
:1012600009C084E007C080E005C081E003C082E0DF
:1012700001C083E01F910F910895882339F08150B8
:1012800090912701899F802D1124089580E0089571
:10129000882321F0880F880F880F089580912801F6
:1012A00008955F926F927F928F929F92AF92BF92BA
:1012B000CF92DF92EF92FF920F931F93CF93DF9322
:1012C0001F92CDB7DEB74B015C01622E7E2C4983A5
:1012D0000E94EC088093160184E0809317014981F5
:1012E000411101C044E1611002C06624639410E022
:1012F000C42ED12CE12CF12C81E0861510F0502E5B
:101300001BC0502E5714D8F720916302309164020D
:101310004091650250916602652D70E08BE792E086
:101320000E942A028BE792E00E941001C701B601D9
:101330000E94B2125394E6CF571490F4652D70E0DA
:10134000A50194018BE792E00E942A028BE792E0CC
:101350000E941001C701B6010E94B2125394ECCF53
:101360001F5F1611C9CF0F90DF91CF911F910F9181
:10137000FF90EF90DF90CF90BF90AF909F908F90B5
:101380007F906F905F9008959F92AF92BF92CF929F
:10139000DF92EF92FF920F931F93CF93DF936B0136
:1013A0007C01942EA22E0E94EC088093160181E00D
:1013B00080931701911002C08AE0982EB12CC0E0F2
:1013C000D0E010E0BE016A0D7B1D6017710740F48C
:1013D000A70196018BE792E00E942A022196F2CFA4
:1013E0008BE792E00E941001692D70E080E090E0B0
:1013F000DF91CF911F910F91FF90EF90DF90CF90F1
:10140000BF90AF909F900C94B2120F9386E08093A0
:10141000160185E08093170160916B0270916C0258
:1014200080916D0290916E020091280120E044EFBE
:101430000E94C40964E670E080E090E00E94B2126D
:1014400060917702709178028091790290917A028E
:101450000091280120E044EF0E94C40964E670E096
:1014600080E090E00E94B212609173027091740269
:1014700080917502909176020091280120E044EF5E
:101480000E94C40964E670E080E090E00E94B2121D
:1014900060916702709168028091690290916A027E
:1014A0000091280120E044EF0E94C40964E670E046
:1014B00080E090E00E94B21260916F027091700221
:1014C00080917102909172020091280120E044EF16
:1014D0000E94C40964E670E080E090E00E94B212CD
:1014E000609163027091640280916502909166023E
:1014F0000091280120E044EF0E94C4090F91089553
:101500006F927F928F929F92AF92BF92CF92DF9213
:10151000EF92FF920F931F93CF93DF931F92CDB75C
:10152000DEB74B015C01142FF02E29830E94EC08DA
:101530008093160183E0809317012981111101C066
:101540001EE5211101C021E0612C712CC22ED12C8D
:101550006C147D04BCF40E2D2F2D412FC501B40158
:101560000E94C409609163027091640280916502D7
:10157000909166022F2D412F0E94C4098FEF681AA7
:10158000780AE6CF0F90DF91CF911F910F91FF90D6
:10159000EF90DF90CF90BF90AF909F908F907F9013
:1015A0006F9008956F927F928F929F92AF92BF92A9
:1015B000CF92DF92EF92FF920F931F93CF93DF931F
:1015C0001F92CDB7DEB74B015C01142FF02E29839B
:1015D0000E94EC088093160182E080931701298114
:1015E000111101C01EE5211101C021E0612C712CF7
:1015F000C22ED12C0E2D2F2D412FC501B4016C14FC
:101600007D0494F40E94C4096091630270916402A5
:1016100080916502909166022F2D412F0E94C4098E
:101620008FEF681A780AE6CF0E94C4090F90DF9105
:10163000CF911F910F91FF90EF90DF90CF90BF90CF
:10164000AF909F908F907F906F900895CF92DF9290
:10165000EF92FF920F931F93CF93DF9300D000D0B0
:10166000CDB7DEB7809142020E94AC08C62E182F7B
:1016700000912801D09043022091450240914602FA
:10168000E0904402EE2089F08E2D29834A837B83EB
:101690009C830E943D09F82E8E2D0E944809E82E59
:1016A00029814A817B819C8102C0E02EF12CD110DE
:1016B00002C020E005C081E0D81207C00E2D2F2DFA
:1016C0006C2D812F0E94C40920C0E2E0DE1206C00A
:1016D0000F2D6C2D812F0E94D20A17C0F3E0DF126C
:1016E00006C00F2D6C2D812F0E94800A0EC084E051
:1016F000D81206C00F2D6C2D812F0E94510905C0F4
:10170000E5E0DE1202C00E94050AC0921601D092E6
:1017100017010F900F900F900F90DF91CF911F91B5
:101720000F91FF90EF90DF90CF9008951F93CF938C
:10173000DF93182FC82FD0E0FE01E15FFE4F8081BC
:101740000E94AD13FE01E95CFD4F90819817E9F00E
:1017500090911901813061F4808321E030E0012E05
:1017600001C0220F0A94EAF7292B2093190111C016
:10177000108221E030E0012E01C0220F0A94EAF726
:10178000209529232093190103C081E0913009F0AD
:1017900080E0DF91CF911F910895EF920F931F93F7
:1017A000CF93DF9326E040E052EC61E070E088E9FF
:1017B00092E00E94B9146CE271E088E992E00E9424
:1017C0000E164091210150912201609123017091E8
:1017D00024012AE030E088E992E00E94EC1661E002
:1017E00080910E010E943E1361E080910E010E94E3
:1017F000771361E080910D010E943E1360E08091BB
:101800000D010E94771361E080910C010E943E134C
:1018100060E080910C010E94771366E371E088E933
:1018200092E00E941B168BE792E00E94B3008BE7C8
:1018300092E00E9410010E94050A60917702709167
:1018400078028091790290917A020091280120E03B
:1018500040E00E94C40964E471E088E992E00E94DB
:101860001B16CFE0D1E010E08881833609F453C025
:1018700062E00E943E1364E571E088E992E00E9414
:101880000E164AE050E0688188E992E00E94E51671
:1018900069E571E088E992E00E940E16812F0E94AE
:1018A000960B682F70E04AE050E088E992E00E94D1
:1018B000D016812F0E94960B811112C06091730285
:1018C00070917402809175029091760258E0E52E35
:1018D00000E020E040E00E9451096DE571E011C098
:1018E00060916702709168028091690290916A022A
:1018F00048E0E42E00E020E040E00E94510963E669
:1019000071E088E992E00E941B166AEF70E080E0C7
:1019100090E00E94B21221961F5F163009F0A4CF0A
:101920006EE671E088E992E00E941B166FE771E0B5
:1019300088E992E00E940E1668E082E592E00E943B
:10194000F705811166C060917302709174028091F5
:1019500075029091760230E1E32E0091270120E09C
:1019600040E00E94510960E671E088E992E00E943F
:101970001B160FE110E020E030E040E060E082E57F
:1019800092E00E9412060FE110E020E030E040E01B
:1019900061E082E592E00E9412060091210110911F
:1019A0002201209123013091240140E060E082E592
:1019B00092E00E946606009121011091220120917F
:1019C00023013091240140E062E082E592E00E9430
:1019D000660661E971E088E992E00E941B1660EDFD
:1019E00077E080E090E00E94B21260916302709113
:1019F000640280916502909166020091280120E0C6
:101A000040E00E94C409DF91CF911F910F91EF90A8
:101A1000089565EB71E088E992E00E941B166091E1
:101A20006702709168028091690290916A0220E1D8
:101A3000E22E0091270120E040E00E94510976CF7C
:101A40001F93CF93DF93CFE0D1E010E089918336ED
:101A500019F0812F0E94960B1F5F1630B9F7DF91A6
:101A6000CF911F910895EF920F9390910F028FEFF6
:101A7000890F873008F459C080911302983079F5A6
:101A8000882309F452C060916F02709170028091B6
:101A9000710290917202E090280100E021E040E0A4
:101AA0000E945109609167027091680280916902F9
:101AB00090916A02E090280121E040E00E945109E3
:101AC0006091630270916402809165029091660258
:101AD000E090280121E040E00E94510924C08823C1
:101AE00021F110920A021092090210920C02109237
:101AF0000B02109206021092050210920802109238
:101B00000702609163027091640280916502909176
:101B100066020091280120E040E00E94C409109272
:101B200014020E94200D109213020F91EF9008955D
:101B3000CF92EF92FF920F931F93CF93DF9300D03A
:101B400000D0CDB7DEB7882351F049835A836B8329
:101B50007C830E94200D7C816B815A814981809118
:101B6000210190912201A0912301B09124014817F5
:101B700059076A077B0729F1E5E0880F991FAA1F1B
:101B8000BB1FEA95D1F7842B952BA62BB72BF2E040
:101B9000CF2E15E1E12E11E0F12E08E020E0AC019E
:101BA000BD0182E592E00E94B7070F900F900F9061
:101BB0000F90DF91CF911F910F91FF90EF90CF90F9
:101BC000089540911D0150911E0160911F01709177
:101BD00020012AE030E088E992E00E94D8166AE20B
:101BE00071E088E992E00E940E1605E111E0F1E053
:101BF0000D311F0781F0F80161918F014AE050E03B
:101C000088E992E00E94E5166AE271E088E992E0D4
:101C10000E940E16ECCF88E992E00F900F900F9083
:101C20000F90DF91CF911F910F91FF90EF90CF9088
:101C30000C941716EF920F9390910F02809113025C
:101C4000913029F5882309F490C060917702709152
:101C500078028091790290917A02E090280100E068
:101C600021E040E00E94510960916B0270916C028A
:101C700080916D0290916E02E090280121E040E099
:101C80000E94510910921302109212026EC09230FB
:101C900019F5882309F469C01092130210921202F8
:101CA00080910B0290910C02019690930C0280930C
:101CB0000B0280931C018091090280931B014091CB
:101CC0001D0150911E0160911F017091200180E063
:101CD0000F91EF900C94980D9730E9F4882309F454
:101CE00044C040911D0150911E0160911F017091EF
:101CF000200180E00E94980D60916302709164025F
:101D000080916502909166020091280120E040E0F8
:101D10000E94C40928C0882341F110920A0210923F
:101D2000090210920C0210920B02109206021092FD
:101D30000502109208021092070210921C011092E4
:101D40001B01609163027091640280916502909121
:101D500066020091280120E040E00E94C409109230
:101D600014020E94200D109213020F91EF9008951B
:101D7000EF920F9390910F0280911302913029F509
:101D8000882309F493C06091770270917802809162
:101D9000790290917A02E090280100E021E040E091
:101DA0000E945109609167027091680280916902F6
:101DB00090916A02E090280121E040E00E945109E0
:101DC000109213021092120271C0923031F58823E2
:101DD00021F0109213021092120280910B02909146
:101DE0000C028F3F91050CF061C0019690930C029C
:101DF00080930B0280931C018091090280931B0148
:101E000040911D0150911E0160911F0170912001B0
:101E100080E00F91EF900C94980D9730E9F48823AF
:101E200009F444C040911D0150911E0160911F01B1
:101E30007091200180E00E94980D60916302709182
:101E4000640280916502909166020091280120E071
:101E500040E00E94C40928C0882341F110920A0280
:101E60001092090210920C0210920B0210920602BC
:101E700010920502109208021092070210921C01A3
:101E800010921B016091630270916402809165025F
:101E9000909166020091280120E040E00E94C40970
:101EA000109214020E94200D109213020F91EF90D5
:101EB000089580910D0290910E02209108013091B9
:101EC00009018217930761F482E592E00E942808D5
:101ED000F5E09695879577956795FA95D1F70895EA
:101EE00020910601309107018217930749F0609114
:101EF0003D0270913E0280913F0290914002089510
:101F000065E170E080E090E00895EF920F93CF9349
:101F1000C82F6FE771E088E992E00E940E166C2FDF
:101F200082E592E00E94F705811121C0009127010E
:101F3000000F60917302709174028091750290910C
:101F40007602B8E1EB2E20E040E00E9451094AE021
:101F500050E06C2F88E992E00E94E5166DE571E093
:101F600088E992E0CF910F91EF900C941B1665EBEE
:101F700071E088E992E00E941B1600912701000F92
:101F800060916702709168028091690290916A0283
:101F9000A8E1EA2E20E040E00E945109CF910F9184
:101FA000EF900895CF93DF9380914102811109C092
:101FB0004FE150E060E070E081E0DF91CF910C9460
:101FC000980D813021F4DF91CF910C94260B823053
:101FD00061F48091420280930F0291E0909313028A
:101FE000109212028093180116C19DEF980F923043
:101FF00008F411C1853071F58091050290910602B7
:10200000019690930602809305020E94590FAB013E
:10201000BC012AE030E088E992E00E94D8166AE22A
:1020200071E088E992E00E940E16C1E4D2E082E0FD
:10203000C934D80709F4A8C069914AE050E088E99A
:1020400092E00E94E5166AE271E088E992E00E945F
:102050000E16EDCF8630A1F49091420290931102BA
:102060008091430280931002963011F40E94850FF4
:1020700080911102893009F085E080931501CBC071
:10208000893009F087C0809105029091060201967F
:1020900090930602809305020E94590FAB01BC0188
:1020A0002AE030E088E992E00E94D8166AE271E006
:1020B00088E992E00E940E166FED71E088E992E0E7
:1020C0000E940E166AE271E088E992E00E940E1604
:1020D00060910702709108024AE050E088E992E0BE
:1020E0000E94D0166AE271E088E992E00E940E1622
:1020F00060910502709106024AE050E088E992E0A2
:102100000E94D0166AE271E088E992E00E940E1601
:102110006091090270910A024AE050E088E992E079
:102120000E94D0166AE271E088E992E00E940E16E1
:1021300060910B0270910C024AE050E088E992E055
:102140000E94D0166AE271E088E992E00E940E16C1
:102150004AE050E06091470288E992E00E94E5166B
:102160006AE271E088E992E00E940E164AE050E0CF
:102170006091480288E992E00E94E5166AE271E007
:1021800088E992E00E940E1688E992E0DF91CF91F3
:102190000C941716843629F561E080910D010E9498
:1021A000771364E670E080E090E00E94B21260E095
:1021B00080910D010E94771364E670E080E090E06A
:1021C0000E94B21261E080910D010E94771364E6D3
:1021D00070E080E090E00E94B21260E080910D011A
:1021E00010C08536C1F461E080910C010E94771324
:1021F00068EE73E080E090E00E94B21260E08091AF
:102200000C010E94771364E670E080E090E0DF91BB
:10221000CF910C94B212DF91CF9108956091280173
:1022200070E023E0409129018BE792E00E940502D3
:1022300040E060E0809126010E9472026093770284
:10224000709378028093790290937A0240E06091D3
:10225000260180E00E947202609373027093740200
:1022600080937502909376024091260160E080E0B1
:102270000E94720260936F027093700280937102E9
:102280009093720280912601482F682F0E9472025B
:1022900060936B0270936C0280936D0290936E0258
:1022A0008091260140E0682F0E94720260936702CD
:1022B000709368028093690290936A0240E060E044
:1022C00080E00E94720260936302709364028093C4
:1022D0006502909366026091250182E592E00C947C
:1022E000E9058BE792E00C949F00EF92FF920F9329
:1022F000CF93DF9382E592E00E9420088330E1F4DF
:10230000809108019091090190930E0280930D0233
:1023100041E452E069E472E082E592E00E94EA075B
:102320008091090290910A02019690930A0280938B
:1023300009020E94D20FDECF80911502882319F185
:102340001092150280913D0290913E02A0913F02B1
:10235000B0914002409121015091220160912301EE
:102360007091240184179507A607B707A9F4EAE43A
:10237000F2E0A1E4B2E081918D9382E0E235F807CA
:10238000D1F70E94D20FD4E2C1E088E992E00E9426
:10239000D613892B09F554C020910B0230910C0201
:1023A0002F5F3F4F30930C0220930B02C5E0440F88
:1023B000551F661F771FCA95D1F7482B592B6A2BDB
:1023C0007B2BDAE4ED2ED2E0FD2E08E020E082E562
:1023D00092E00E94A707D7CF80910A0190910B014C
:1023E00090930E0280930D0288E992E00E94EF1311
:1023F000843229F480931602C0933602C6CFD0935C
:1024000016028A3071F480910702909108020196B9
:1024100090930802809307020E946408C0931502FB
:10242000B4CFE0913602AE2FB0E0AA5EBD4F8C93E0
:10243000EF5FE0933602F0E0EA5EFD4F1082A5CF39
:10244000809111028930A1F480911002853039F415
:10245000DF91CF910F91FF90EF900C941A0E863080
:1024600071F4DF91CF910F91FF90EF900C94B80E23
:10247000DF91CF910F91FF90EF900C94330DDF918E
:10248000CF910F91FF90EF9008951F920F920FB68A
:102490000F9211242F933F938F939F93AF93BF93EA
:1024A0008091900290919102A0919202B09193023A
:1024B00030918F0223E0230F2D3720F40196A11DC8
:1024C000B11D05C026E8230F0296A11DB11D209362
:1024D0008F028093900290939102A0939202B09306
:1024E00093028091940290919502A0919602B091EE
:1024F00097020196A11DB11D8093940290939502BD
:10250000A0939602B0939702BF91AF919F918F9144
:102510003F912F910F900FBE0F901F9018953FB7CE
:10252000F8948091940290919502A0919602B091B6
:10253000970226B5A89B05C02F3F19F00196A11D53
:10254000B11D3FBF6627782F892F9A2F620F711D0B
:10255000811D911D42E0660F771F881F991F4A95C4
:10256000D1F70895CF92DF92EF92FF92CF93DF934E
:102570006B017C010E948F12EB01C114D104E104B4
:10258000F10489F00E94FE160E948F126C1B7D0BD5
:10259000683E734090F381E0C81AD108E108F10861
:1025A000C851DC4FEACFDF91CF91FF90EF90DF90E1
:1025B000CF900895789484B5826084BD84B581609D
:1025C00084BD85B5826085BD85B5816085BDEEE63B
:1025D000F0E0808181608083E1E8F0E0108280811A
:1025E00082608083808181608083E0E8F0E0808188
:1025F00081608083E1EBF0E0808184608083E0EBA8
:10260000F0E0808181608083EAE7F0E0808184608F
:1026100080838081826080838081816080838081EB
:10262000806880831092C1000895833081F028F47F
:10263000813099F08230A1F008958730A9F0883078
:10264000B9F08430D1F4809180008F7D03C08091F7
:1026500080008F7780938000089584B58F7702C0C3
:1026600084B58F7D84BD08958091B0008F7703C0BD
:102670008091B0008F7D8093B0000895CF93DF9359
:1026800090E0FC01E256FF4F2491FC01EE54FF4F15
:102690008491882349F190E0880F991FFC01E6524C
:1026A000FF4FA591B49180539F4FFC01C591D491E8
:1026B0009FB7611108C0F8948C91209582238C9368
:1026C000888182230AC0623051F4F8948C91322FB1
:1026D000309583238C938881822B888304C0F8945F
:1026E0008C91822B8C939FBFDF91CF9108950F9394
:1026F0001F93CF93DF931F92CDB7DEB7282F30E023
:10270000F901E657FF4F8491F901E256FF4F14910A
:10271000F901EE54FF4F04910023C9F0882321F002
:1027200069830E9415136981E02FF0E0EE0FFF1F0F
:10273000E053FF4FA591B4919FB7F8948C9161112C
:1027400003C01095812301C0812B8C939FBF0F90F4
:10275000DF91CF911F910F910895CF93DF93282F91
:1027600030E0F901E657FF4F8491F901E256FF4F3F
:10277000D491F901EE54FF4FC491CC2391F0811113
:102780000E941513EC2FF0E0EE0FFF1FEA53FF4FEE
:10279000A591B4912C912D2381E090E021F480E06B
:1027A00002C080E090E0DF91CF910895FC01818D1F
:1027B000228D90E0805C9F4F821B91098F73992737
:1027C0000895FC01918D828D981731F0828DE80F6C
:1027D000F11D858D90E008958FEF9FEF0895FC0126
:1027E000918D828D981761F0828DDF01A80FB11D48
:1027F0005D968C91928D9F5F9F73928F90E008956C
:102800008FEF9FEF089583E795E1892B49F080E0F2
:1028100090E0892B29F00E94731581110C9400001F
:102820000895FC01848DDF01A80FB11DA35ABF4F8D
:102830002C91848D90E001968F739927848FA689BF
:10284000B7892C93A089B1898C9180648C93938DE6
:10285000848D981306C00288F389E02D80818F7DD6
:1028600080830895CF93DF93EC01888D8823C9F08E
:10287000EA89FB89808185FD05C0A889B9898C9189
:1028800086FD0FC00FB607FCF5CF808185FFF2CF24
:10289000A889B9898C9185FFEDCFCE010E941114D2
:1028A000E7CFDF91CF910895CF92DF92FF920F9300
:1028B0001F93CF93DF931F92CDB7DEB76C0181E0FA
:1028C000D60158968C9358975B969C915B975C9633
:1028D0008C915C97981307C05096ED91FC9151979D
:1028E000808185FD2EC0F601038D10E00F5F1F4F24
:1028F0000F731127F02EF601848DF81211C00FB658
:1029000007FCF9CFD6015096ED91FC91519780814B
:1029100085FFF1CFC60169830E9411146981EBCF55
:10292000838DE80FF11DE35AFF4F6083D6015B965C
:102930000C935B975296ED91FC9153978081806246
:102940000CC0D6015696ED91FC9157976083509636
:10295000ED91FC91519780818064808381E090E0CB
:102960000F90DF91CF911F910F91FF90DF90CF904B
:102970000895BF92CF92DF92EF92FF92CF93DF93B1
:10298000EC016A017B01B22EE889F98982E080833B
:10299000411581EE580761057105A1F060E079E00D
:1029A0008DE390E0A70196010E94FF1621503109A6
:1029B000410951095695479537952795211580E18D
:1029C000380798F0E889F989108260E874E88EE1A8
:1029D00090E0A70196010E94FF162150310941099C
:1029E00051095695479537952795EC85FD85308398
:1029F000EE85FF852083188EEC89FD89B082EA89F7
:102A0000FB89808180618083EA89FB89808188607D
:102A10008083EA89FB89808180688083EA89FB89D9
:102A200080818F7D8083DF91CF91FF90EF90DF9049
:102A3000CF90BF9008951F920F920FB60F9211245E
:102A40002F938F939F93EF93FF93E091A802F091C0
:102A5000A9028081E091AE02F091AF0282FD12C026
:102A600090818091B1028F5F8F732091B2028217A3
:102A700051F0E091B102F0E0E856FD4F958F809360
:102A8000B10201C08081FF91EF919F918F912F91B1
:102A90000F900FBE0F901F9018951F920F920FB6B8
:102AA0000F9211242F933F934F935F936F937F93D4
:102AB0008F939F93AF93BF93EF93FF9388E992E037
:102AC0000E941114FF91EF91BF91AF919F918F914F
:102AD0007F916F915F914F913F912F910F900FBE1A
:102AE0000F901F90189588E992E00E94D61321E07C
:102AF000892B09F420E0822F089510929B021092F6
:102B00009A0288EE93E0A0E0B0E080939C0290935C
:102B10009D02A0939E02B0939F0285EE91E0909358
:102B200099028093980285EC90E09093A50280939F
:102B3000A40284EC90E09093A7028093A60280EC1C
:102B400090E09093A9028093A80281EC90E090938A
:102B5000AB028093AA0282EC90E09093AD02809346
:102B6000AC0286EC90E09093AF028093AE0210929C
:102B7000B1021092B2021092B3021092B402089500
:102B800008950E94DA120E94C0150E94CD0BC3E086
:102B9000D4E10E9475112097E1F30E940314F9CF4C
:102BA000CF92DF92EF92FF920F931F93CF93DF9319
:102BB0007C016A01EB0100E010E00C151D0571F0CD
:102BC0006991D701ED91FC910190F081E02DC70151
:102BD0000995892B19F00F5F1F4FEFCFC801DF91C7
:102BE000CF911F910F91FF90EF90DF90CF900895BC
:102BF0006115710581F0DB010D900020E9F7AD0151
:102C000041505109461B570BDC01ED91FC910280AC
:102C1000F381E02D099480E090E008950C94F8157C
:102C2000DC01ED91FC910190F081E02D099461EFC0
:102C300071E00C94F8150F931F93CF93DF93EC0181
:102C40000E94F8158C01CE010E941716800F911F6B
:102C5000DF91CF911F910F9108958F929F92AF9224
:102C6000BF92CF92DF92EF92FF920F931F93CF9379
:102C7000DF93CDB7DEB7A1970FB6F894DEBF0FBED6
:102C8000CDBF7C01C42EE52FCB01D22E19A221E0AD
:102C90002D1510F02AE0D22E8E010F5D1F4F8D2CC6
:102CA000912CA12CB12C6C2D7E2FA50194010E949A
:102CB000FF168C2DD29E80191124015011098A30E3
:102CC00014F4805D01C0895CF80180832115310511
:102CD0004105510521F0C22EE32FCA01E4CFB8010E
:102CE000C7010E94F815A1960FB6F894DEBF0FBE7B
:102CF000CDBFDF91CF911F910F91FF90EF90DF90AB
:102D0000CF90BF90AF909F908F900895CF92DF9219
:102D1000EF92FF920F931F93CF93DF93EC016A0121
:102D20007B012115310579F4E881F9810190F08169
:102D3000E02D642FDF91CF911F910F91FF90EF90C5
:102D4000DF90CF9009942A303105E9F477FF1AC05B
:102D50006DE20E9410168C0144275527BA014C19C8
:102D60005D096E097F092AE0CE010E942D16800FB1
:102D7000911FDF91CF911F910F91FF90EF90DF9006
:102D8000CF9008952AE0B701A601CE01DF91CF913F
:102D90001F910F91FF90EF90DF90CF900C942D1624
:102DA0009A01AB01662757FD6095762F0C94861625
:102DB0002115310541F4DC01ED91FC910190F08188
:102DC000E02D642F09940C942D169A01462F50E0A3
:102DD00060E070E00C94D8160F931F93CF93DF93AD
:102DE000EC010E94D8168C01CE010E941716800FAC
:102DF000911FDF91CF911F910F9108950895A1E246
:102E00001A2EAA1BBB1BFD010DC0AA1FBB1FEE1F64
:102E1000FF1FA217B307E407F50720F0A21BB30BAF
:102E2000E40BF50B661F771F881F991F1A9469F72B
:102E300060957095809590959B01AC01BD01CF0187
:102E40000895EE0FFF1F0590F491E02D0994CF93A4
:102E5000DF938230910510F482E090E0E091370337
:102E6000F091380320E030E0A0E0B0E0309739F195
:102E70004081518148175907B8F04817590771F434
:102E800082819381109729F013969C938E931297C9
:102E90002CC0909338038093370327C02115310548
:102EA00031F04217530718F0A901DB0101C0EF010F
:102EB0009A01BD01DF010280F381E02DD7CF2115FA
:102EC0003105F9F0281B390B2430310580F48A8153
:102ED0009B816115710521F0FB019383828304C0FE
:102EE0009093380380933703FE01329644C0FE016D
:102EF000E20FF31F81939193225031093983288384
:102F00003AC02091350330913603232B41F42091B0
:102F10000201309103013093360320933503209151
:102F20000001309101012115310541F42DB73EB763
:102F30004091040150910501241B350BE0913503AC
:102F4000F0913603E217F307A0F42E1B3F0B28176E
:102F5000390778F0AC014E5F5F4F2417350748F012
:102F60004E0F5F1F50933603409335038193919327
:102F700002C0E0E0F0E0CF01DF91CF910895CF9360
:102F8000DF93009709F487C0FC0132971382128205
:102F9000C0913703D0913803209781F4208131818B
:102FA000280F391F809135039091360382179307BC
:102FB00079F5F0933603E09335036DC0DE0120E030
:102FC00030E0AE17BF0750F412964D915C91139705
:102FD0009D014115510509F1DA01F3CFB383A283B5
:102FE00040815181840F951F8A179B0771F48D9141
:102FF0009C911197840F951F02969183808312965E
:103000008D919C911397938382832115310529F427
:10301000F0933803E09337033EC0D9011396FC9335
:10302000EE9312974D915D91A40FB51FEA17FB0720
:1030300079F480819181840F951F0296D9011196B0
:103040009C938E938281938113969C938E93129777
:10305000E0E0F0E08A819B81009719F0FE01EC012D
:10306000F9CFCE01029628813981820F931F2091DA
:103070003503309136032817390769F4309729F45E
:10308000109238031092370302C013821282D09339
:103090003603C0933503DF91CF910895FC01882753
:1030A0009927E89421912032E9F3293010F02E304D
:1030B000C8F32B3241F02D3239F4689404C00E94D9
:1030C0009F18820F911D219120532A30C0F31EF4C6
:1030D000909581959F4F089542E052E00E947818A4
:1030E0000895DC0101C06D9341505040E0F7089510
:1030F000FA01A191B081009719F41097E1F0CD0188
:10310000DC01CD010D90002011F4C00113C0FB01C2
:103110002191222319F02015D9F7F3CFFB0121913A
:10312000201519F41E92119606C02223C1F70D90A6
:103130000020A1F7D001FA01A193B08308957AE0AD
:10314000979F902D879F802D910D1124089510E059
:10315000C8EED0E004C0FE010E9423172296CA3EAA
:08316000D107C9F7F894FFCF75
:1031680000003903800003000200010005040D631C
:10317800636363636305000000000000001F000034
:10318800001F00000009190820082C004E6F646514
:103198002049443A20004E656F706978656C205468
:1031A800657374002D2D2D2D2D496E707574732D3A
:1031B8002D2D2D0050696E2300203D2000202D204C
:1031C8004F4B00202D2050524553534544002D2D80
:1031D8002D2D2D43616E204275732D2D2D2D00430D
:1031E800414E2D42555320537461727475703A20C4
:1031F8000043414E2D42555320436F6D6D756E69E6
:10320800636174696F6E3A20436F6D6D616E6420FF
:103218004E6F6465004E6F7420476F6F642C206397
:103228006865636B20796F75722070696E23206101
:103238006E6420636F6E6E656374696F6E730039B8
:1032480000000000005414D015D613EF13E1133218
:10325800140D0A006E616E00696E66006F76660076
:023268002E0036
:00000001FF
