:100000000C9463000C948B000C948B000C948B006C
:100010000C948B000C948B000C948B000C948B0034
:100020000C948B000C948B000C948B000C948B0024
:100030000C948B000C948B000C948B000C948B0014
:100040000C9407080C948B000C94810D0C94B30D48
:100050000C948B000C948B000C948B000C948B00F4
:100060000C948B000C948B0000000008000201002F
:100070000003040700000000000000000102040863
:100080001020408001020408102001020408102002
:10009000040404040404040402020202020203032E
:1000A00003030303000000002300260029000000D2
:1000B0000000250028002B0000000000240027007D
:1000C0002A00D604E30D11241FBECFEFD8E0DEBF17
:1000D000CDBF13E0A0E0B1E0E0E8FEE102C0059092
:1000E0000D92A630B107D9F724E0A6E0B3E001C035
:1000F0001D92A630B207E1F710E0C6ECD0E004C0D4
:100100002297FE010E94690EC23CD107C9F70E94E6
:100110003B0C0C943E0F0C940000E0915F03F091B7
:1001200060030190F081E02D682F8FE593E0099541
:1001300080E090E008958DE890E0909340038093F4
:100140003F03109242031092410382E080933A03EE
:10015000109244031092430387E393E090930304C7
:10016000809302040895CF93DF9362E271E08BE005
:1001700093E00E94020F0097A1F00E94E40EAA27CC
:1001800097FDA095BA2F8093220390932303A09309
:100190002403B093250362E271E080E090E00E94C6
:1001A000020FCEE2D3E0009751F00E94E40E888364
:1001B00062E271E080E090E00E94020F01C01882CC
:1001C000219623E0C633D20771F710921B031092D9
:1001D0000B03DF91CF9108951F93CF93DF93182FD7
:1001E000C82FD0E0FE01EB5FFE4F80810E9497098F
:1001F000FE01E45EFC4F90819817E9F090910F01A9
:10020000813061F4808321E030E0012E01C0220FB3
:100210000A94EAF7292B20930F0111C0108221E0E4
:1002200030E0012E01C0220F0A94EAF7209529231D
:1002300020930F0103C081E0913009F080E0DF914D
:10024000CF911F9108951F93CF93DF93C5E0D1E025
:1002500010E08991833619F0812F0E94EC001F5F16
:100260001630B9F7DF91CF911F9108950F931F9327
:10027000CF93DF9300D000D0CDB7DEB7882351F005
:1002800049835A836B837C830E9423017C816B8129
:100290005A8149812AE030E08FE593E00E94520DB7
:1002A00062E271E08FE593E00E94880C0BE011E0C0
:1002B000F1E003311F0781F0F80161918F014AE0FD
:1002C00050E08FE593E00E945F0D62E271E08FE500
:1002D00093E00E94880CECCF8FE593E00F900F9095
:1002E0000F900F90DF91CF911F910F910C94910C73
:1002F0008F929F92AF92BF92CF92DF92EF92FF9236
:100300006C0180913603833009F098C08091080316
:1003100081113DC164E271E08FE593E00E94950C8C
:10032000EE24D7FCE094FE2CC701B6010E947408AD
:1003300066E371E08FE593E00E94950CC701B6017A
:100340000E94740868E471E08FE593E00E94950CC8
:10035000C701B6010E9474086AE571E08FE593E079
:100360000E94950CC701B6010E9474086CE671E00A
:100370008FE593E00E94950CC701B6010E947408B6
:100380006EE771E08FE593E00E94950CC701B6011E
:100390000E94740860E971E08FE593E00E94950C7B
:1003A000C701B6010E94740862EA71E08FE593E02C
:1003B0000E94950CC701B6010E94740864EB71E0BD
:1003C0008FE593E00E94950CC701B6010E94740866
:1003D00066EC71E08FE593E00E94950CC701B601D1
:1003E0000E94740869ED71E08FE593E00E94950C1E
:1003F000C701B6010E9474086BEE71E08FE593E0CF
:100400000E94950CC701B6010E9474086DEF71E05F
:100410008FE593E00E94950CC701B6010E94740815
:100420006FE072E08FE593E00E94950CC701B60182
:100430000E94740881E080930803A9C0853009F008
:10044000A6C08091080381116CC064E271E08FE561
:1004500093E00E94950C4601AA2497FCA094BA2C24
:10046000C501B4010E94740866E371E08FE593E072
:100470000E94950CC501B4010E94740868E471E003
:100480008FE593E00E94950CC501B4010E947408A9
:100490006AE571E08FE593E00E94950CC501B40117
:1004A0000E9474086CE671E08FE593E00E94950C61
:1004B000C501B4010E9474086EE771E08FE593E016
:1004C0000E94950CC501B4010E94740860E971E0B6
:1004D0008FE593E00E94950CC501B4010E94740859
:1004E00062EA71E08FE593E00E94950CC501B401CA
:1004F0000E94740869ED71E08FE593E00E94950C0D
:10050000C501B4010E94740861E272E08FE593E0D6
:100510000E94950CC501B4010E94740881E080938B
:1005200008038091220390912303A0912403B091AA
:10053000250386309105A105B10510F082E005C0C4
:10054000892B8A2B8B2B19F181E080930C018093EE
:100550000F011092110110921201B601882777FD48
:100560008095982F0E947408409122035091230394
:10057000609124037091250380E00E94360110925F
:100580002203109223031092240310922503FF905C
:10059000EF90DF90CF90BF90AF909F908F90089595
:1005A000CF92DF92EF92FF920F931F93CF93DF933F
:1005B0007C0100E010E0C0E0D0E0C62ED12CCC15CC
:1005C000DD0574F4F70160817181600F711F44E0F3
:1005D00088E493E00E9491052196085F1F4FEFCFBA
:1005E000DF91CF911F910F91FF90EF90DF90CF900F
:1005F00008950F931F93CF93DF938C016CE472E007
:100600008FE593E00E94880CE80100E010E069911A
:1006100040E150E08FE593E00E945F0D0730110547
:1006200031F063E672E08FE593E00E94880C0F5F83
:100630001F4F0830110559F76EE472E08FE593E023
:10064000DF91CF911F910F910C94880CCF92DF9284
:10065000EF92FF920F931F93CF93DF937C01C62EEF
:1006600061E572E08FE593E00E94880C40E150E084
:100670006C2D8FE593E00E945F0D68E572E08FE5D9
:1006800093E00E94950C00E010E0C0E0D0E0D12C97
:10069000CC15DD05E4F4219640E150E0BE018FE584
:1006A00093E00E944A0D62E672E08FE593E00E94BB
:1006B000880CF70180819181800F911F0E94F902BF
:1006C0008FE593E00E94910C085F1F4FE1CFDF910F
:1006D000CF911F910F91FF90EF90DF90CF900895F1
:1006E0001F93CF93DF9326E040E052EC61E070E08F
:1006F0008FE593E00E94D80B65E672E08FE593E00A
:100700000E94950C81E00E94E208BC01882777FDD9
:100710008095982F0E94780D61E0809104010E94DD
:10072000280961E0809104010E94610961E872E09A
:100730008FE593E00E94880C4091170150911801B9
:100740006091190170911A012AE030E08FE593E081
:100750000E94660D6BE872E08FE593E00E94950CB5
:10076000C5E0D1E010E088818336A9F162E00E9403
:1007700028096BE972E08FE593E00E94880C4AE05B
:1007800050E068818FE593E00E945F0D60EA72E0BF
:100790008FE593E00E94880C812F0E94EC00682F67
:1007A00070E04AE050E08FE593E00E944A0D812F0F
:1007B0000E94EC00811103C064EA72E002C06AEAA0
:1007C00072E08FE593E00E94950C6AEF70E080E0A4
:1007D00090E00E94740821961F5F163021F60E9457
:1007E0009B0065EB72E08FE593E00E94950C65EC51
:1007F00072E08FE593E00E94880C66E473E088E481
:1008000093E00E94A60580934503882371F0682F2A
:1008100086E493E00E9426036091450386E493E01A
:100820000E94D00267EA72E002C063ED72E08FE5D9
:1008300093E0DF91CF911F910C94950C811103C02F
:100840006093100112C081509091100121E030E0BE
:10085000082E01C0220F0A94EAF7613011F4292B07
:1008600002C020952923209310014091100140954A
:10087000609146037091470388E493E00C948205ED
:10088000CF93DF938091260381112EC040912203E4
:100890005091230360912403709125032AE030E0F6
:1008A0008FE593E00E94520D62E271E08FE593E0E4
:1008B0000E94880CC6E2D3E083E0CE32D80771F004
:1008C00069914AE050E08FE593E00E945F0D62E29B
:1008D00071E08FE593E00E94880CEECF8FE593E006
:1008E000DF91CF910C94910C813009F45CC082307F
:1008F00061F4809127038093360391E0909309037C
:100900001092080380930E014EC0833009F44BC04F
:100910008430E9F440912203509123036091240331
:10092000709125038091130190911401A0911501FC
:10093000B0911601481759076A077B07A1F5609126
:10094000280380912703DF91CF910C941E048530FA
:1009500051F540912203509123036091240370913B
:1009600025038091130190911401A0911501B0917C
:100970001601481759076A077B07A9F4C6E2D3E0B6
:1009800083E0CE32D80709F4A9CF69914AE050E05C
:100990008FE593E00E945F0D62E271E08FE593E0E6
:1009A0000E94880CEDCFDF91CF91089567E088E435
:1009B00093E00C941505CF93C1E08FE593E00E947E
:1009C000F50A18161906D4F48FE593E00E940E0B71
:1009D0008A3029F40E94B300C0930A03EECFE0915D
:1009E0001B03AE2FB0E0A55FBC4F8C93EF5FE0938D
:1009F0001B03F0E0E55FFC4F1082DFCF80910A031C
:100A0000882371F010920A03EEE2F3E0A6E2B3E06D
:100A100081918D9383E0E633F807D1F70E9440047B
:100A200082E090E0CF910C9478010C944C07EF9207
:100A3000FF920F931F93CF93DF931F92CDB7DEB733
:100A40007C01162F042F41E06CEC79830E94AF06E5
:100A500041E0612FC7010E94AF0641E07981672F15
:100A6000C7010E94AF0641E0602FC7010F90DF91E0
:100A7000CF911F910F91FF90EF900C94AF061F93B1
:100A8000CF93DF93EC01162F411104C041E06AE5DA
:100A90000E94AF0641E0612FCE010E94AF0641E007
:100AA000612F6095CE010E94AF06CE010E94F10633
:100AB0008A3A39F4CE010E94F106811302C081E026
:100AC00001C080E0DF91CF911F910895462F6DE81E
:100AD00070E00C9417050F931F93CF93DF9300D012
:100AE000CDB7DEB78C0169837A830E9412066981D3
:100AF0007A81C8010F900F90DF91CF911F910F91D4
:100B00000C940D071F93CF93DF93EC01142F0E94D9
:100B10006B0540E0612FCE01DF91CF911F910C94C6
:100B20003F050F931F93CF93DF931F92CDB7DEB78F
:100B30008C0149830E946B054981642FC8010F9085
:100B4000DF91CF911F910F910C9466057F928F9248
:100B50009F92AF92BF92CF92DF92EF92FF920F934C
:100B60001F93CF93DF93CDB7DEB728970FB6F894D6
:100B7000DEBF0FBECDBF8C014B01712CBE016F5F7C
:100B80007F4FC8010E946F07882359F089818932FD
:100B9000A9F76EED72E08FE593E00E94950C7394D7
:100BA000EDCFC8010E943A076AEF70E080E090E064
:100BB0000E947408A72CB12CC50123E0880F991F4F
:100BC0002A95E1F70E94C009F40191838083C12C2A
:100BD000D12CE12CF12CEA14FB047CF4F4016081AB
:100BE00071816C0D7D1DC8010E946F07FFEFEF1A28
:100BF000FF0A88E0C80ED11CEECF872D28960FB6CD
:100C0000F894DEBF0FBECDBFDF91CF911F910F9142
:100C1000FF90EF90DF90CF90BF90AF909F908F901C
:100C20007F900895FF920F931F93CF93DF93FC0162
:100C30000081C181D281F8948981F02EF0948F21B6
:100C4000898378941DE7115029F182E090E00E9499
:100C50009C0888818023B9F3F8948A818F218A8344
:100C60008981802B8983789484EF91E00E949C088D
:100C7000F89489818F21898380E590E00E949C0807
:100C80008881802311E009F010E0789484EA91E0F3
:100C90000E949C08812FDF91CF911F910F91FF90AF
:100CA00008951F93CF93DF93FC011081C181D281FE
:100CB000912F909560FF12C0F8948A8189238A83CE
:100CC0008981812B89838AE090E00E949C088A8137
:100CD000812B8A83789487E390E011C0F8948A810D
:100CE00089238A838981812B898381E490E00E9412
:100CF0009C088A81812B8A83789485E090E0DF913B
:100D0000CF911F910C949C080F931F93CF93DF9367
:100D1000FC011081C181D281F8948981812B898362
:100D20008A81012F009580238A8383E090E00E94CE
:100D30009C088981802389838AE090E00E949C0836
:100D4000C881789485E390E00E949C081C2381E090
:100D500009F480E0DF91CF911F910F910895CF9218
:100D6000DF92EF92FF920F931F93CF93DF931F9227
:100D7000CDB7DEB76C01E62E08E010E0FF24F39457
:100D800061E09F2D9E2109F460E0C60149830E9425
:100D90005106FF0C0150110949810115110581F718
:100DA000411115C0F894D6011196ED91FC9112975E
:100DB00091818C918095892381831196ED91FC918D
:100DC000129792818C9180958923828378940F90D9
:100DD000DF91CF911F910F91FF90EF90DF90CF9017
:100DE0000895EF92FF920F931F93CF93DF938C019F
:100DF000C8E0D0E0F12CEE24E394C8010E94840600
:100E00008111FE28EE0C2197C1F78F2DDF91CF9134
:100E10001F910F91FF90EF900895CF92DF92EF9284
:100E2000FF920F931F93CF93DF931F92CDB7DEB73F
:100E30007C01162F40E065E579830E94AF06C12E44
:100E40007981D72E00E010E0F60161916F0140E05A
:100E5000C7010E94AF060F5F1F4F08301105A1F7B1
:100E60000F90DF91CF911F910F91FF90EF90DF9046
:100E7000CF900895FC0113861586148627E030E094
:100E8000DF01A20FB31F13961C922115310519F033
:100E900021503109F5CF08951F93CF93DF93EC01D3
:100EA000162F60E0812F0E942809612F70E0FB015E
:100EB000E458FF4FE491E883FB01E057FF4FE491D2
:100EC000F0E0EE0FFF1FEC55FF4F859194919A8350
:100ED0008983CE01DF91CF911F910C943A07AF9295
:100EE000BF92CF92DF92EF92FF920F931F93CF9317
:100EF000DF931F92CDB7DEB75C01E62ED72EFC0143
:100F0000858581115DC0C5010E941206811105C051
:100F1000F5011386158614866EC040E060EFC501AA
:100F20000E94AF0601E0F12CC12C11E0C5010E9426
:100F30008406682FC50169830E9484066981613037
:100F400019F48130B9F433C02F2D30E068131BC081
:100F5000F5018385181730F4E20FF31F8381802396
:100F600049F402C0181731F060E0193058F4F50167
:100F7000148708C0F501EF0DF11D8381802B838359
:100F800061E009C0C12EF501E20FF31F8381902FAC
:100F9000909589238383C5010E9451061F5F000F2E
:100FA00011F4F39401E0F7E0FF1508F0BFCF11341E
:100FB00038F0F501C386C11018C081E0858715C0DF
:100FC000F50113861586148680E0EE2DFD2D20E0B8
:100FD00030E0D501A20FB31F13969C9191932F5F20
:100FE0003F4F28303105A9F706C0F50183818823DA
:100FF00039F381E0EACF0F90DF91CF911F910F91EC
:10100000FF90EF90DF90CF90BF90AF9008951F9228
:101010000F920FB60F9211242F933F938F939F93AC
:10102000AF93BF938091570390915803A0915903B8
:10103000B0915A033091560323E0230F2D3720F44B
:101040000196A11DB11D05C026E8230F0296A11D22
:10105000B11D209356038093570390935803A09398
:101060005903B0935A0380915B0390915C03A09164
:101070005D03B0915E030196A11DB11D80935B03DA
:1010800090935C03A0935D03B0935E03BF91AF9117
:101090009F918F913F912F910F900FBE0F901F90B6
:1010A00018953FB7F89480915B0390915C03A091F1
:1010B0005D03B0915E0326B5A89B05C02F3F19F0D4
:1010C0000196A11DB11D3FBF6627782F892F9A2F4A
:1010D000620F711D811D911D42E0660F771F881FF1
:1010E000991F4A95D1F70895CF92DF92EF92FF9220
:1010F000CF93DF936B017C010E945108EB01C11477
:10110000D104E104F10489F00E94800D0E9451088D
:101110006C1B7D0B683E734090F381E0C81AD108C8
:10112000E108F108C851DC4FEACFDF91CF91FF9081
:10113000EF90DF90CF9008958230910538F0880FBE
:10114000991F880F991F05970197F1F708957894D3
:1011500084B5826084BD84B5816084BD85B58260BC
:1011600085BD85B5816085BDEEE6F0E0808181605A
:101170008083E1E8F0E0108280818260808380815A
:1011800081608083E0E8F0E0808181608083E1EB32
:10119000F0E0808184608083E0EBF0E0808181601A
:1011A0008083EAE7F0E080818460808380818260D0
:1011B00080838081816080838081806880831092B9
:1011C000C10008958E3008F08E50877020911B0169
:1011D00090E4299F90011124822B80937C008091C0
:1011E0007A00806480937A0080917A0086FDFCCF3B
:1011F000809178002091790090E0922B08958330BF
:1012000081F028F4813099F08230A1F00895873080
:10121000A9F08830B9F08430D1F4809180008F7DBE
:1012200003C0809180008F7780938000089584B5FB
:101230008F7702C084B58F7D84BD08958091B00002
:101240008F7703C08091B0008F7D8093B0000895A8
:10125000CF93DF9390E0FC01E458FF4F2491FC0111
:10126000E057FF4F8491882349F190E0880F991F40
:10127000FC01E854FF4FA591B49182559F4FFC01AA
:10128000C591D4919FB7611108C0F8948C912095B5
:1012900082238C93888182230AC0623051F4F894AF
:1012A0008C91322F309583238C938881822B888375
:1012B00004C0F8948C91822B8C939FBFDF91CF91C7
:1012C00008950F931F93CF93DF931F92CDB7DEB78F
:1012D000282F30E0F901E859FF4F8491F901E458D3
:1012E000FF4F1491F901E057FF4F04910023C9F01B
:1012F000882321F069830E94FF086981E02FF0E0D4
:10130000EE0FFF1FE255FF4FA591B4919FB7F894E0
:101310008C91611103C01095812301C0812B8C93A6
:101320009FBF0F90DF91CF911F910F910895CF93A1
:10133000DF93282F30E0F901E859FF4F8491F9013C
:10134000E458FF4FD491F901E057FF4FC491CC23EB
:1013500091F081110E94FF08EC2FF0E0EE0FFF1FCB
:10136000EC55FF4FA591B4912C912D2381E090E095
:1013700021F480E002C080E090E0DF91CF910895F9
:101380000F931F93CF93DF93BC018230910510F42C
:1013900062E070E0E091FE03F091FF0340E050E076
:1013A000A0E0B0E024C08081918186179707D0F03B
:1013B0008617970771F482819381109729F013960D
:1013C0009C938E9312972CC09093FF038093FE03FF
:1013D00027C04115510519F08417950718F48D01A0
:1013E000AC01EF01DF01828193819C01F90130970B
:1013F000D1F641155105F9F0CA01861B970B8430CF
:10140000910580F48A819B810115110521F0F80175
:101410009383828304C09093FF038093FE03FE01B5
:10142000329645C0FE01E80FF91F61937193029750
:10143000998388833CC08091FC039091FD03892BA4
:1014400041F480911E0190911F019093FD038093C0
:10145000FC0340912001509121014115510541F4B7
:101460004DB75EB780911C0190911D01481B590B2F
:101470002091FC033091FD0324173507B0F4CA0115
:10148000821B930B8617970780F0AB014E5F5F4F6F
:101490008417950750F0420F531F5093FD0340935C
:1014A000FC03F9016193719302C0E0E0F0E0CF0129
:1014B000DF91CF911F910F910895CF93DF939C01FE
:1014C000009709F48FC0EC0122971B821A82609169
:1014D000FE037091FF036115710581F48881998184
:1014E000820F931F2091FC033091FD0328173907C9
:1014F00039F5D093FD03C093FC0374C0DB0140E0D9
:1015000050E0AC17BD0708F1BB83AA83FE0121910F
:101510003191E20FF31FAE17BF0779F48D919C91C3
:101520001197280F391F2E5F3F4F3983288312965A
:101530008D919C9113979B838A834115510571F47A
:10154000D093FF03C093FE034DC012968D919C91E2
:101550001397AD01009711F0DC01D3CFDA01139698
:10156000DC93CE931297FA0121913191E20FF31F90
:10157000CE17DF0769F488819981280F391F2E5F04
:101580003F4FFA01318320838A819B819383828339
:10159000E0E0F0E0DB0112968D919C9113970097AB
:1015A00019F0BC01FD01F6CFAB014E5F5F4FDB01CF
:1015B0008D919C91840F951F2091FC033091FD0328
:1015C0002817390779F4309729F41092FF03109205
:1015D000FE0302C013821282425050405093FD031A
:1015E0004093FC03DF91CF910895FC01818D228D02
:1015F00090E0805C9F4F821B91098F73992708951B
:10160000FC01918D828D981731F0828DE80FF11DCC
:10161000858D90E008958FEF9FEF0895FC01918DE7
:10162000828D981761F0828DDF01A80FB11D5D9644
:101630008C91928D9F5F9F73928F90E008958FEFB2
:101640009FEF089589ED9DE0892B49F080E090E0BF
:10165000892B29F00E94D90D81110C940000089566
:10166000FC01848DDF01A80FB11DA35ABF4F2C913F
:10167000848D90E001968F739927848FA689B7890E
:101680002C93A089B1898C9180648C93938D848DE7
:10169000981306C00288F389E02D80818F7D8083B6
:1016A0000895CF93DF93EC01888D8823C9F0EA89F0
:1016B000FB89808185FD05C0A889B9898C9186FD4B
:1016C0000FC00FB607FCF5CF808185FFF2CFA88948
:1016D000B9898C9185FFEDCFCE010E94300BE7CF09
:1016E000DF91CF910895CF92DF92FF920F931F93D6
:1016F000CF93DF931F92CDB7DEB76C0181E0D601A7
:1017000058968C9358975B969C915B975C968C91BE
:101710005C97981307C05096ED91FC91519780818A
:1017200085FD2EC0F601038D10E00F5F1F4F0F7374
:101730001127F02EF601848DF81211C00FB607FCA8
:10174000F9CFD6015096ED91FC915197808185FF9C
:10175000F1CFC60169830E94300B6981EBCF838D85
:10176000E80FF11DE35AFF4F6083D6015B960C939F
:101770005B975296ED91FC915397808180620CC0EB
:10178000D6015696ED91FC91579760835096ED9156
:10179000FC91519780818064808381E090E00F907C
:1017A000DF91CF911F910F91FF90DF90CF9008951F
:1017B000BF92CF92DF92EF92FF92CF93DF93EC0133
:1017C0006A017B01B22EE889F98982E080834115A4
:1017D00081EE580761057105A1F060E079E08DE3C5
:1017E00090E0A70196010E94260E2150310941097F
:1017F00051095695479537952795211580E138076A
:1018000098F0E889F989108260E874E88EE190E048
:10181000A70196010E94260E215031094109510964
:101820005695479537952795EC85FD853083EE8550
:10183000FF852083188EEC89FD89B082EA89FB89B7
:10184000808180618083EA89FB89808188608083D0
:10185000EA89FB89808180688083EA89FB898081AD
:101860008F7D8083DF91CF91FF90EF90DF90CF90BD
:10187000BF90089508950E94A7080E943A0C0E9404
:101880007003C2E2DBE00E94DB042097E1F30E94D8
:10189000220BF9CFCF92DF92EF92FF920F931F931B
:1018A000CF93DF936C017A01EB01E60EF71E00E0A7
:1018B00010E0CE15DF0561F06991D601ED91FC9144
:1018C0000190F081E02DC6010995080F191FF1CF95
:1018D000C801DF91CF911F910F91FF90EF90DF90A2
:1018E000CF9008956115710581F0DB010D90002006
:1018F000E9F7AD0141505109461B570BDC01ED9151
:10190000FC910280F381E02D099480E090E008953D
:101910000C94720CDC01ED91FC910190F081E02DB2
:10192000099466EF72E00C94720C0F931F93CF939F
:10193000DF93EC010E94720C8C01CE010E94910C8D
:10194000800F911FDF91CF911F910F9108958F927A
:101950009F92AF92BF92CF92DF92EF92FF920F933E
:101960001F93CF93DF93CDB7DEB7A1970FB6F8944F
:10197000DEBF0FBECDBF7C01C42EE52FCB01D22E22
:1019800019A221E02D1510F02AE0D22E8E010F5D54
:101990001F4F8D2C912CA12CB12C6C2D7E2FA501CD
:1019A00094010E94260E8C2DD29E80191124015084
:1019B00011098A3014F4805D01C0895CF8018083CC
:1019C000211531054105510521F0C22EE32FCA0131
:1019D000E4CFB801C7010E94720CA1960FB6F8942B
:1019E000DEBF0FBECDBFDF91CF911F910F91FF9052
:1019F000EF90DF90CF90BF90AF909F908F90089521
:101A0000CF92DF92EF92FF920F931F93CF93DF93CA
:101A1000EC016A017B012115310579F4E881F98136
:101A20000190F081E02D642FDF91CF911F910F91F4
:101A3000FF90EF90DF90CF9009942A303105E9F4C0
:101A400077FF1AC06DE20E948A0C8C01442755274B
:101A5000BA014C195D096E097F092AE0CE010E9486
:101A6000A70C800F911FDF91CF911F910F91FF90D5
:101A7000EF90DF90CF9008952AE0B701A601CE0144
:101A8000DF91CF911F910F91FF90EF90DF90CF905A
:101A90000C94A70C9A01AB01662757FD6095762F31
:101AA0000C94000D2115310541F4DC01ED91FC9100
:101AB0000190F081E02D642F09940C94A70C9A01F9
:101AC000462F50E060E070E00C94520D0F931F938E
:101AD000CF93DF93EC010E94520D8C01CE010E9446
:101AE000910C800F911FDF91CF911F910F9108955D
:101AF000611571058105910511F00C94DB0E0895B7
:101B000008951F920F920FB60F9211242F938F9367
:101B10009F93EF93FF93E0916F03F09170038081A7
:101B2000E0917503F091760382FD12C0908180915F
:101B300078038F5F8F7320917903821751F0E091C2
:101B40007803F0E0E15AFC4F958F8093780301C051
:101B50008081FF91EF919F918F912F910F900FBEF8
:101B60000F901F9018951F920F920FB60F9211248D
:101B70002F933F934F935F936F937F938F939F9395
:101B8000AF93BF93EF93FF938FE593E00E94300BE9
:101B9000FF91EF91BF91AF919F918F917F916F9145
:101BA0005F914F913F912F910F900FBE0F901F901B
:101BB00018958FE593E00E94F50A21E0892B09F43E
:101BC00020E0822F0895109262031092610388EE44
:101BD00093E0A0E0B0E08093630390936403A0934C
:101BE0006503B09366038AEE92E09093600380935E
:101BF0005F0385EC90E090936C0380936B0384EC1F
:101C000090E090936E0380936D0380EC90E090934E
:101C1000700380936F0381EC90E090937203809344
:101C2000710382EC90E0909374038093730386ECCD
:101C300090E090937603809375031092780310924E
:101C4000790310927A0310927B030895A1E21A2E71
:101C5000AA1BBB1BFD010DC0AA1FBB1FEE1FFF1F50
:101C6000A217B307E407F50720F0A21BB30BE40BA0
:101C7000F50B661F771F881F991F1A9469F76095E7
:101C80007095809590959B01AC01BD01CF010895A1
:101C9000052E97FB1EF400940E945F0E57FD07D09F
:101CA0000E94260E07FC03D04EF40C945F0E509554
:101CB0004095309521953F4F4F4F5F4F0895909538
:101CC0008095709561957F4F8F4F9F4F0895EE0FD0
:101CD000FF1F0590F491E02D09940E94780EA59FB6
:101CE000900DB49F900DA49F800D911D1124089517
:101CF000A29FB001B39FC001A39F700D811D11244D
:101D0000911DB29F700D811D1124911D08958F9218
:101D10009F92AF92BF92CF92DF92EF92FF92CF93BA
:101D2000DF93EC01688179818A819B81611571055E
:101D30008105910521F464E279ED8BE597E02DE1D1
:101D400033EF41E050E00E94480E49015A019B01E7
:101D5000AC01A7EAB1E40E946D0E6B017C01ACEE10
:101D6000B4EFA50194010E94390FC60ED71EE81EDC
:101D7000F91EF7FE06C081E0C81AD108E10880E824
:101D8000F80AC882D982EA82FB82C701B6019F772E
:101D9000DF91CF91FF90EF90DF90CF90BF90AF9009
:101DA0009F908F9008950E94870E089580E091E0A3
:101DB0000E94870E08956093000170930101809343
:101DC0000201909303010895FC0188279927E89464
:101DD00021912032E9F3293010F02E30C8F32B3254
:101DE00041F02D3239F4689404C00E942E0F820F06
:101DF000911D219120532A30C0F31EF490958195B6
:101E00009F4F089546E053E00E94070F0895FA019E
:101E1000A191B081009719F41097E1F0CD01DC0198
:101E2000CD010D90002011F4C00113C0FB012191E0
:101E3000222319F02015D9F7F3CFFB0121912015AA
:101E400019F41E92119606C02223C1F70D900020AE
:101E5000A1F7D001FA01A193B08308957AE0979F8A
:101E6000902D879F802D910D11240895B7FF0C941C
:101E70006D0E0E946D0E821B930B0895F894FFCF98
:101E8000010000000D6363636363630500000000ED
:101E90000000001F0000001F000000018000060479
:101EA00000002C00342C352C342C312C332C312CCC
:101EB000302C312C3100392C352C342C312C332C56
:101EC000312C302C312C3200342C352C342C312C4C
:101ED000332C312C302C322C3100392C352C342C35
:101EE000312C332C312C302C322C3200342C352C2C
:101EF000342C312C332C312C302C332C3100392C18
:101F0000352C342C312C332C312C302C332C32000A
:101F1000342C352C312C312C332C312C302C342CCE
:101F20003100392C352C322C312C332C312C302CE7
:101F3000342C3200312C352C312C312C332C312CDB
:101F4000302C302C300031302C352C322C312C33CD
:101F50002C312C302C302C3000322C352C312C31C3
:101F60002C332C312C302C302C3000382C352C32AA
:101F70002C312C332C312C302C302C3000332C35A0
:101F80002C312C312C332C312C302C302C30003790
:101F90002C352C322C312C332C312C302C302C3055
:101FA00000372C352C322C312C332C322C302C3069
:101FB0002C3000204D4F44453D00204143544956AC
:101FC00054593D002053544154453D005B005D2071
:101FD00000466F756E6420002064657669636573E2
:101FE0002E002E200059424F5420323031362047E7
:101FF000616D6520546573742050726F6772616DF6
:10200000004E6F64652049443A20002D2D2D2D2D62
:10201000496E707574732D2D2D2D0050696E23003F
:10202000203D2000202D204F4B00202D20505245D8
:1020300053534544002D2D2D2D2D312D576972659B
:102040002D2D2D2D00312D57697265205465737427
:102050003A20004E6F6E6520466F756E6400436FC8
:10206000756E7421210000000000730B4A0CF50A04
:102070000E0B000B510B0D0A006E616E00696E664F
:06208000006F766600000F
:00000001FF
