:100000000C9463000C948B000C948B000C948B006C
:100010000C948B000C948B000C948B000C948B0034
:100020000C948B000C948B000C948B000C948B0024
:100030000C948B000C948B000C948B000C948B0014
:100040000C94AD040C948B000C9465020C943F024C
:100050000C948B000C948B000C948B000C948B00F4
:100060000C948B000C948B000000000023002600F1
:10007000290000000000240027002A0000000008DA
:10008000000201000003040700000000000000005F
:10009000010204081020408001020408102001021F
:1000A0000408102000000000250028002B00040494
:1000B0000404040404040202020202020303030310
:1000C0000303AC0C9C0C11241FBECFEFD8E0DEBFA5
:1000D000CDBF11E0A0E0B1E0EEE8FEE102C0059086
:1000E0000D92AA3AB107D9F722E0AAEAB1E001C01D
:1000F0001D92A23DB207E1F710E0C2E6D0E004C0D5
:100100002197FE010E94B00DC136D107C9F70E94A8
:10011000C5060C943A0F0C940000FC01918D828D61
:10012000981761F0828DDF01A80FB11D5D968C914B
:10013000928D9F5F9F73928F90E008958FEF9FEF56
:100140000895FC01918D828D981731F0828DE80F12
:10015000F11D858D90E008958FEF9FEF0895FC01CC
:10016000918D228D892F90E0805C9F4F821B910999
:100170008F739927089583E092E00E94AF0021E0F9
:10018000892B09F420E0822F0895FC01848DDF0182
:10019000A80FB11DA35ABF4F2C91848D90E00196FA
:1001A0008F739927848FA689B7892C93A089B189E9
:1001B0008C9180648C93938D848D981306C00288F3
:1001C000F389E02D80818F7D80830895EF92FF92E7
:1001D0000F931F93CF93DF93EC0181E0888F9B8D6A
:1001E0008C8D981305C0E889F989808185FD24C02C
:1001F000F62E0B8D10E00F5F1F4F0F731127E02EAF
:100200008C8DE8120CC00FB607FCFACFE889F9898B
:10021000808185FFF5CFCE010E94C500F1CF8B8D87
:10022000FE01E80FF11DE35AFF4FF0820B8FEA89C0
:10023000FB898081806207C0EE89FF896083E8893D
:10024000F98980818064808381E090E0DF91CF91A3
:100250001F910F91FF90EF900895CF93DF93EC01E2
:10026000888D8823C9F0EA89FB89808185FD05C0D6
:10027000A889B9898C9186FD0FC00FB607FCF5CF10
:10028000808185FFF2CFA889B9898C9185FFEDCF58
:10029000CE010E94C500E7CFDF91CF91089580E0A5
:1002A00090E0892B29F00E94BB0081110C94000082
:1002B0000895833081F028F4813099F08230A1F0E4
:1002C00008958730A9F08830B9F08430D1F4809156
:1002D00080008F7D03C0809180008F7780938000A5
:1002E000089584B58F7702C084B58F7D84BD08954D
:1002F0008091B0008F7703C08091B0008F7D809394
:10030000B0000895FF920F931F93CF93DF93D82FE0
:10031000082F10E0F801E25FFE4F208130E0F90184
:10032000E458FF4F8491F901E057FF4FF490F90131
:10033000E255FF4FC491CC2379F081110E945901FD
:10034000EC2FF0E0EE0FFF1FE859FF4FA591B4919D
:10035000EC91EF2191E009F490E0F801E655FE4FB1
:1003600080818917F1F040910401913061F490830C
:1003700021E030E001C0220FDA95EAF7242B209328
:10038000040181E010C0108221E030E0C90101C009
:10039000880FDA95EAF7809584238093040180E042
:1003A00002C0892F8170DF91CF911F910F91FF9033
:1003B00008950F931F93CF930EE011E0C0E0F80172
:1003C00081918F01833619F08C2F0E948201CF5FBB
:1003D000C630A9F7CF911F910F9108950F931F93E6
:1003E0000091B4021091B5022091B6023091B7028B
:1003F0006017710782079307B1F10091B002109165
:10040000B1022091B2023091B302601771078207E6
:10041000930759F10091A4021091A5022091A60220
:100420003091A702601771078207930701F10091CD
:10043000AC021091AD022091AE023091AF02601774
:10044000710782079307A9F00091A8021091A902F1
:100450002091AA023091AB026017710782079307BF
:1004600051F080E009C081E007C082E005C083E070
:1004700003C084E001C085E01F910F9108951F9291
:100480000F920FB60F9211242F933F934F935F93C8
:100490006F937F938F939F93AF93BF93EF93FF934C
:1004A00083E092E00E94C500FF91EF91BF91AF9170
:1004B0009F918F917F916F915F914F913F912F917C
:1004C0000F900FBE0F901F9018951F920F920FB6AE
:1004D0000F9211242F938F939F93EF93FF93E091AB
:1004E0001302F09114028081E0911902F0911A0236
:1004F00082FD12C0908180911C028F5F8F732091CA
:100500001D02821751F0E0911C02F0E0ED5FFD4FFB
:10051000958F80931C0201C08081FF91EF919F9184
:100520008F912F910F900FBE0F901F9018951F93D2
:10053000CF93DF93282F30E0F901E458FF4F8491E7
:10054000F901E057FF4FD491F901E255FF4FC491F3
:10055000CC23C9F0162F81110E945901EC2FF0E035
:10056000EE0FFF1FEC55FF4FA591B4918FB7F89494
:10057000111105C09C91ED2FE095E92302C0EC918B
:10058000ED2BEC938FBFDF91CF911F910895CF9307
:10059000DF9390E0FC01E057FF4F2491FC01E2550E
:1005A000FF4F8491882361F190E0880F991FFC012F
:1005B000EE58FF4FC591D491FC01EC55FF4FA5912A
:1005C000B491611109C09FB7F89488812095822366
:1005D0008883EC912E230BC0623061F49FB7F894AE
:1005E0003881822F809583238883EC912E2B2C9346
:1005F0009FBF06C08FB7F894E8812E2B28838FBF4A
:10060000DF91CF9108953FB7F8948091B501909113
:10061000B601A091B701B091B80126B5A89B05C05D
:100620002F3F19F00196A11DB11D3FBFBA2FA92F71
:10063000982F8827820F911DA11DB11DBC01CD01EE
:1006400042E0660F771F881F991F4A95D1F70895DA
:100650008F929F92AF92BF92CF92DF92EF92FF92D2
:100660006B017C010E9403034B015C01C114D104A6
:10067000E104F104F1F00E940303DC01CB018819CD
:100680009909AA09BB09883E9340A105B10570F3F9
:1006900021E0C21AD108E108F10888EE880E83E053
:1006A000981EA11CB11CC114D104E104F10419F776
:1006B000DDCFFF90EF90DF90CF90BF90AF909F90F5
:1006C0008F900895CF93DF934AE00E94420687E21D
:1006D00091E00E944006C0E0D1E081E0C830D80738
:1006E00061F0699170E080E090E04AE00E9442068B
:1006F00087E291E00E944006F0CF0E943C066AE04B
:1007000070E080E090E0DF91CF910C9428038F920D
:100710009F92AF92BF92EF92FF920F931F93CF934E
:10072000DF934B015C01142FC22F0E94EE018093D6
:10073000010181E080930201111101C01AE0D0E0B3
:10074000E02EF12CCE15DF0570F48091B902909166
:10075000BA02C817D90728F4B501A401CE010E9436
:10076000F4052196EFCF0E943605612F70E080E0FE
:1007700090E0DF91CF911F910F91FF90EF90BF908C
:10078000AF909F908F900C9428035F926F927F920E
:100790008F929F92AF92BF92CF92DF92EF92FF9291
:1007A0000F931F93CF93DF931F92CDB7DEB74B010B
:1007B0005C01522E7E2C49830E94EE018093010140
:1007C00084E0809302014981411101C044E151104C
:1007D00002C05524539410E0C42ED12CE12CF12CEE
:1007E00081E08515F0F4602E1AC04091A00250916E
:1007F000A1026091A2027091A302862D90E0209147
:10080000B9023091BA028217930710F40E94F405DE
:100810000E943605C701B6010E942803639467143D
:1008200020F3602E14C0862D90E02091B902309103
:10083000BA028217930720F4B501A4010E94F405BF
:100840000E943605C701B6010E942803639467140D
:1008500050F31F5F1511C4CF0F90DF91CF911F91FF
:100860000F91FF90EF90DF90CF90BF90AF909F904F
:100870008F907F906F905F9008950F93E0E0F1E08C
:1008800086E0818385E082836091A8027091A9024D
:100890008091AA029091AB0200E220E044EF0E9416
:1008A000870364E670E080E090E00E942803609196
:1008B000B4027091B5028091B6029091B70220E027
:1008C00044EF0E94870364E670E080E090E00E94BD
:1008D00028036091B0027091B1028091B2029091B0
:1008E000B30220E044EF0E94870364E670E080E0FA
:1008F00090E00E9428036091A4027091A50280916B
:10090000A6029091A70220E044EF0E94870364E6CC
:1009100070E080E090E00E9428036091AC0270914A
:10092000AD028091AE029091AF0220E044EF0E94B0
:10093000870364E670E080E090E00E942803609105
:10094000A0027091A1028091A2029091A30220E0E6
:1009500044EF0E9487030F9108951F920F920FB6E4
:100960000F9211242F933F938F939F93AF93BF9335
:100970008091B1019091B201A091B301B091B40105
:100980003091B00123E0230F2D3720F40196A11DF3
:10099000B11D05C026E8230F0296A11DB11D2093AD
:1009A000B0018093B1019093B201A093B301B093D1
:1009B000B4018091B5019091B601A091B701B091B9
:1009C000B8010196A11DB11D8093B5019093B601A8
:1009D000A093B701B093B801BF91AF919F918F9150
:1009E0003F912F910F900FBE0F901F901895CF92AF
:1009F000DF92EF92FF920F931F93CF93DF936C01DF
:100A00007A018B01C0E0D0E0CE15DF0589F0D80176
:100A10006D918D01D601ED91FC910190F081E02D59
:100A2000C6010995892B11F47E0102C02196ECCFF5
:100A3000C701DF91CF911F910F91FF90EF90DF9051
:100A4000CF900895009769F0FC0101900020E9F72C
:100A50003197AF01481B590BBC0183E092E00C9425
:100A6000F70480E090E008950E94E30E0F931F9337
:100A7000CF93DF93CDB7DEB729970FB6F894DEBFDB
:100A80000FBECDBF8091C0029091C102892B09F4A5
:100A9000A0C00E9403030091C5021091C6022091DC
:100AA000C7023091C802DC01CB01801B910BA20B65
:100AB000B30BC297A105B10560F3F8948091BB0216
:100AC0009091BC029A838983E091C002F091C102A7
:100AD000DF011196808189879091BE02E091C90261
:100AE000F091CA028091CB0291FF2EC09081982B89
:100AF00098879081809589238F838F818C8388E06C
:100B00008B8358856F8149853B812C8189819A81AE
:100B1000508347FD252F3A952083262F39F0441F17
:100B200000C000006083000000C0F2CF38E04D91AB
:100B300060830000019761F7F093CA02E093C90255
:100B400049873B832C8338C09081982B988790816C
:100B5000809589238F838F818E8388E08D8358854C
:100B60006F8149853D812E8189819A81508347FD1E
:100B7000252F00C000C0208300C000C000C000C0FE
:100B800000C060830000262F3A9541F0441F00000A
:100B900000C000C000C000C000C0E8CF38E04D91E8
:100BA00000C0608300C0019709F7F093CA02E09388
:100BB000C90249873D832E839A83898378940E9452
:100BC00003036093C5027093C6028093C70290939B
:100BD000C80229960FB6F894DEBF0FBECDBFDF91D5
:100BE000CF911F910F9108958F929F92AF92BF92D4
:100BF000CF92DF92EF92FF924B01AA24BB24F82DF3
:100C0000C52ED62EE72EFF24EC2D342F2091BF02C7
:100C1000222361F0829E40011124F92DC29E6001C1
:100C20001124ED2D429FA0011124352FAC01440F5A
:100C3000551F840F951F4091C0025091C102840F2F
:100C4000951F2091C202DC01A20FB11DFC932091DF
:100C5000C302DC01A20FB11DEC932091C402FC0180
:100C6000E20FF11D3083FF90EF90DF90CF90BF90A7
:100C7000AF909F908F90089586EA91E00C942205A2
:100C80000C9422058F929F92AF92BF920F931F9365
:100C9000CF93DF93CDB7DEB7A1970FB6F894DEBF41
:100CA0000FBECDBF19A2423008F44AE08E010F5D9D
:100CB0001F4F842E912CA12CB12CA50194010E94D0
:100CC0008E0DE62FB901CA0101501109EA3014F462
:100CD000E05D01C0E95CD801EC93232B242B252B8C
:100CE00061F7C8010E942205A1960FB6F894DEBFF5
:100CF0000FBECDBFDF91CF911F910F91BF90AF90ED
:100D00009F908F900895CF92DF92EF92FF92CF93B2
:100D1000DF936C01990FEE08FF08F7FE1FC0E0910A
:100D20000302F09104020190F081E02D6DE283E076
:100D300092E00995EC0166277727CB016C197D09B4
:100D40008E099F094AE00E9442068C0F9D1FDF9189
:100D5000CF91FF90EF90DF90CF9008954AE0C701C8
:100D6000B601DF91CF91FF90EF90DF90CF900C9480
:100D70004206CF93DF930E942205EC010E943C06BD
:100D80008C0F9D1FDF91CF910895789484B5826078
:100D900084BD84B5816084BD85B5826085BD85B51F
:100DA000816085BD80916E00816080936E0010929D
:100DB0008100809181008260809381008091810018
:100DC00081608093810080918000816080938000A9
:100DD0008091B10084608093B1008091B000816007
:100DE0008093B00080917A00846080937A00809133
:100DF0007A00826080937A0080917A00816080938B
:100E00007A0080917A00806880937A001092C10005
:100E1000E0911302F091140282E08083E0910F02CE
:100E2000F09110021082E0911102F091120280E123
:100E3000808310921B02E0911702F091180286E065
:100E40008083E0911502F091160280818061808399
:100E5000E0911502F0911602808188608083E09114
:100E60001502F0911602808180688083E09115025E
:100E7000F091160280818F7D808389E291E00E944B
:100E800040064AE06FE170E080E090E00E94420698
:100E90000E943C0661E08DE00E94C70261E08DE0A7
:100EA0000E94970261E084E00E94C70260E084E053
:100EB0000E94970261E085E00E94C70260E085E041
:100EC0000E94970283E391E00E94B9068091BD02DF
:100ED00087FD08C061E00E94C70260E08091BD020A
:100EE0000E94970281E08093B8020E9436050E941A
:100EF0003D046091B4027091B5028091B602909168
:100F0000B70200E220E040E00E94870381E491E024
:100F10000E94B9068EE0C82E81E0D82EC0E0F6010E
:100F20008081833609F449C062E00E94C70281E5EE
:100F300091E00E944006F601608170E080E090E060
:100F40004AE00E94420686E591E00E9440068C2F0E
:100F50000E94820190E00E9483068C2F0E948201F1
:100F6000811112C06091B0027091B1028091B20201
:100F70009091B30208E0E02E00E020E040E00E9403
:100F8000C5038AE591E011C06091A4027091A502A9
:100F90008091A6029091A70218E0E12E00E020E0E7
:100FA00040E00E94C50380E691E00E94B9066AEF26
:100FB00070E080E090E00E942803FFEFCF1ADF0A84
:100FC000CF5FC63009F0ABCF8BE691E00E94B90647
:100FD0008FE891E00E94B90660ED77E080E090E054
:100FE0000E9428036091A0027091A1028091A20248
:100FF0009091A30200E220E040E00E9487038EE986
:1010000091E00E94B90686EF91E0A8E04A2E480ED2
:1010100088EC91E0B0E22B2E280EAA24A394B12CE8
:10102000D4E23D2E80910202882309F40CC1109273
:1010300002026091FE017091FF0180910002909187
:1010400001026F3171058105910509F0DAC1CEEE1B
:10105000D1E0DE01E6EFF1E081918D934E12FCCFFD
:101060008091EE01811105C06FE170E080E090E0B9
:1010700008C2813009F0E9C08091EF01813049F464
:10108000C091B402F090B5021091B602D091B702AF
:1010900034C0823049F4C091B002F090B102109196
:1010A000B202D091B30229C0833049F4C091A402A6
:1010B000F090A5021091A602D091A7021EC0843024
:1010C00049F4C091AC02F090AD021091AE02D09103
:1010D000AF0213C0853049F4C091A802F090A90274
:1010E0001091AA02D091AB0208C0C091A002F0906A
:1010F000A1021091A202D091A3028090F001C090B1
:10110000F2015090F301E090F101EE2049F08E2DB4
:10111000880F880F880FF8EF9F2E980EE82E03C0D7
:10112000E0E2EE2E912C811003C000E220E005C029
:1011300021E082120AC00E2D292D452D6C2F7F2D06
:10114000812F9D2F0E9487037AC082E0881231C0D0
:101150006C2F7F2D812F9D2F0E94EE018093010126
:1011600080920201511002C07EE5572EC11002C0CC
:10117000CC24C394612C712CD12C0E2D292D452DFE
:101180006C2F7F2D812F9D2F6C147D04DCF60E9427
:1011900087036091A0027091A1028091A2029091B8
:1011A000A302292D452D0E948703EFEF6E1A7E0AB8
:1011B000E4CFF3E08F1231C06C2F7F2D812F9D2F54
:1011C0000E94EE018093010180920201511002C041
:1011D0006EE5562EC11002C0CC24C394612C712C34
:1011E000D12C6C147D045CF50E2D292D452D6C2F12
:1011F0007F2D812F9D2F0E9487036091A002709107
:10120000A1028091A2029091A302292D452D0E9456
:1012100087032FEF621A720AE4CF84E088120AC0B3
:10122000092D2C2D452D6C2F7F2D812F9D2F0E9458
:10123000C50305C0E5E08E1202C00E943D04C093C4
:1012400001018092020111E03AC1823051F4809193
:10125000EF018093EB0191E09093EA011092C201BB
:101260001DC19DEF980F923070F38530F1F480919D
:10127000BA019091BB0101969093BB018093BA0192
:101280004AE060E070E0CB010E94420687E291E014
:101290000E944006F1E0C63FDF0709F474C069917F
:1012A00070E080E090E04AE0EFCF863071F480910A
:1012B000EF018093C4019091F0019093C3018930B4
:1012C00009F085E080930001BECF893009F05EC04F
:1012D0008091BA019091BB0101969093BB018093DC
:1012E000BA014AE060E070E0CB010E94420687E26A
:1012F00091E00E94400684EA91E00E94400687E265
:1013000091E00E9440068091C5019091C6010E9423
:10131000830687E291E00E9440068091BA01909195
:10132000BB010E94830687E291E00E944006809103
:10133000BE019091BF010E94830687E291E00E9466
:1013400040068091BC019091BD010E94830687E216
:1013500091E00E9440066091F40170E080E090E02E
:101360004AE00E94420687E291E00E9440066091B6
:10137000F50170E080E090E04AE00E94420687E2DA
:1013800091E00E9440060E943C065DCF843609F53C
:1013900061E084E00E94970264E670E080E090E003
:1013A0000E94280360E084E00E94970264E670E0F7
:1013B00080E090E00E94280361E084E00E949702B0
:1013C00064E670E080E090E00E94280360E084E042
:1013D0000FC0853609F037CF61E085E00E949702A3
:1013E00068EE73E080E090E00E94280360E085E012
:1013F0000E94970264E670E080E090E00E9428037B
:1014000022CF611571058105910561F5C12CD12CA3
:101410007601C394C1E08091FD01813021F4D09226
:10142000ED01C092EC018091F601811105C0C70168
:10143000B6010E9462030AC0823041F48091F70134
:101440008093EB01C093EA01809303012FEFC21A4E
:10145000D20AE20AF20A8AE0C816D104E104F104D1
:10146000D1F6F1CE3091F8012091F601323039F405
:10147000273029F47093ED016093EC01E4CE211143
:1014800003C00E946203DFCE223009F0DCCE8091DF
:10149000F7018093EB0191E09093EA0180930301BF
:1014A000D2CEB092E901A092E80183E092E00E94DE
:1014B0008D00843259F48093C8011093C70183E0F2
:1014C00092E00E94AF00892B61F759C03092C801A9
:1014D0008A3009F045C08091C5019091C6010196FE
:1014E0009093C6018093C50167E271E088EC91E0BA
:1014F0000E94060F67E271E080E090E00E94060F14
:101500000E94E80E092E000CAA0BBB0B8093FE0173
:101510009093FF01A0930002B093010267E271E093
:1015200080E090E00E94060FC6EFD1E0009751F0F6
:101530000E94E80E888367E271E080E090E00E94FC
:10154000060F01C0188221964C12F0CF1092C701ED
:10155000E8ECF1E011922E12FDCF10930202AFCF12
:10156000E091C701AE2FB0E0A853BE4F8C93EF5F60
:10157000E093C701F0E0E853FE4F1082A0CF8091C6
:10158000C401893009F0B7C08091C301853079F575
:101590008091EB019091EA018130D9F4992309F40B
:1015A000C8C16091B4027091B5028091B602909169
:1015B000B70240E2E42E00E021E040E00E94C503D3
:1015C0006091A8027091A9028091AA029091AB0249
:1015D00069C08230C1F4992309F4ABC11092EA01C9
:1015E0001092C2018091BC019091BD0172C0863001
:1015F00009F09FC18091EB019091EA018130C1F126
:10160000823009F458C08730C9F48091EA018823F8
:1016100009F48FC16FE170E080E090E00E94620306
:101620006091A0027091A1028091A2029091A30208
:1016300000E220E040E00E94870379C18091EA0146
:10164000882309F476C11092BF011092BE01109256
:10165000BD011092BC011092BB011092BA01109210
:10166000C6011092C50110920701109206014EC1E9
:10167000992309F45EC16091B4027091B502809122
:10168000B6029091B70230E2E32E00E021E040E0A4
:101690000E94C5036091A4027091A5028091A602E8
:1016A0009091A70221E040E00E94C5031092EA0158
:1016B0001092C2013EC1992321F01092EA011092CA
:1016C000C2018091BC019091BD018F3F91050CF04A
:1016D00030C101969093BD018093BC0180930701B6
:1016E0008091BE01809306016FE170E080E090E0A0
:1016F0000E9462031EC18091EB019FEF980F923010
:1017000008F417C1833009F051C08091EA018823A1
:1017100021F01092C2011092EB018091C20181115F
:1017200008C11092060188E08093070162E070E032
:1017300080E090E00E94620364E070E080E090E06E
:101740000E94620367E070E080E090E00E94620324
:1017500069E070E080E090E00E9462036AEF70E070
:1017600080E090E00E94280382E0809307016AEF06
:1017700070E080E090E00E94280362E070E080E08A
:1017800090E00E94620364E070E080E090E00E94DC
:10179000620367E070E080E090E00E94620369E02D
:1017A00070E080E090E00E9462035BC0843009F446
:1017B000C0C0853009F064C08091EA01882361F0DF
:1017C0001092C2011092ED011092EC011092C10131
:1017D0001092C0011092EA018091C2018111A9C04A
:1017E00082E0809307018091EC019091ED018230BD
:1017F000910529F462E070E080E090E016C084304A
:10180000910529F464E070E080E090E00EC087303C
:10181000910529F467E070E080E090E006C0099748
:1018200099F469E070E080E090E00E9462038091AA
:10183000C0019091C10101969093C1018093C001B4
:101840001092ED011092EC016AEF70E080E090E000
:101850000E9428038091C0019091C101049709F072
:1018600068C01092070183E08093060165E170E093
:1018700080E090E00E94620381E08093C20159C041
:101880009AEF980F923008F454C09091EA01883092
:1018900059F5992309F44DC06091AC027091AD02E5
:1018A0008091AE029091AF0220E2E22E00E021E0B2
:1018B00040E00E94C5036091A4027091A50280914E
:1018C000A6029091A70221E040E00E94C50360912A
:1018D000A0027091A1028091A2029091A30221E046
:1018E00040E00E94C50323C0992319F11092BF0163
:1018F0001092BE011092BD011092BC011092BB016A
:101900001092BA011092C6011092C5016091A00216
:101910007091A1028091A2029091A30200E220E0C6
:1019200040E00E9487031092B9010E94D9011092F1
:10193000EA010E944F0176CB8091C0029091C102D2
:10194000009711F00E944B0E8091BD0287FD03C0ED
:1019500060E00C94C70208951092060210920502EE
:1019600088EE93E0A0E0B0E0809307029093080235
:10197000A0930902B0930A0288E191E090930402D7
:101980008093030285EC90E09093100280930F0205
:1019900084EC90E0909312028093110280EC90E02E
:1019A000909314028093130281EC90E090931602BE
:1019B0008093150282EC90E09093180280931702B6
:1019C00086EC90E090931A028093190210921C0208
:1019D00010921D0210921E0210921F021092B80265
:1019E0001092BF021092C5021092C6021092C70256
:1019F0001092C80280E690E09093BC028093BB02F4
:101A00000E94B60D9093C1028093C002009761F0CE
:101A100020E6FC0111922A95E9F780E290E090938C
:101A2000BA028093B90208C01092BC021092BB02A5
:101A30001092BA021092B90288E08093BD028091A0
:101A4000B802882341F061E088E00E94C70260E0AC
:101A500088E00E949702E6EBF0E0E491F0E0EE0F00
:101A6000FF1FEC55FF4F859194919093CA0280938C
:101A7000C902E8E9F0E0E491E093CB0283E08093CF
:101A8000BE0281E08093C2021092C30282E0809382
:101A9000C40280E090E0A9E1B0E08093B4029093AA
:101AA000B502A093B602B093B70280E099E1A0E03E
:101AB000B0E08093B0029093B102A093B202B093D1
:101AC000B30289E190E0A0E0B0E08093AC02909393
:101AD000AD02A093AE02B093AF0289E199E1A9E112
:101AE000B0E08093A8029093A902A093AA02B093B9
:101AF000AB0280E099E1A9E1B0E08093A402909369
:101B0000A502A093A602B093A7021092A002109281
:101B1000A1021092A2021092A3020895A1E21A2E2D
:101B2000AA1BBB1BFD010DC0AA1FBB1FEE1FFF1F81
:101B3000A217B307E407F50720F0A21BB30BE40BD1
:101B4000F50B661F771F881F991F1A9469F7609518
:101B50007095809590959B01AC01BD01CF010895D2
:101B6000EE0FFF1F0590F491E02D0994CF93DF93C2
:101B70008230910510F482E090E0E091D002F09183
:101B8000D10220E030E0C0E0D0E0309711F1408198
:101B9000518148175907C0F04817590761F48281ED
:101BA0009381209719F09B838A832BC09093D10255
:101BB0008093D00226C02115310519F04217530732
:101BC00018F49A01BE01DF01EF010280F381E02DDC
:101BD000DCCF2115310509F1281B390B24303105E3
:101BE00090F412968D919C9113976115710521F0D7
:101BF000FB019383828304C09093D1028093D0022F
:101C0000FD01329644C0FD01E20FF31F81939193D1
:101C1000225031092D933C933AC02091CE0230914D
:101C2000CF02232B41F420910A0130910B01309314
:101C3000CF022093CE022091080130910901211595
:101C4000310541F42DB73EB740910C0150910D0183
:101C5000241B350BE091CE02F091CF02E217F3077F
:101C6000A0F42E1B3F0B2817390778F0AC014E5F0C
:101C70005F4F2417350748F04E0F5F1F5093CF0278
:101C80004093CE028193919302C0E0E0F0E0CF0157
:101C9000DF91CF9108950F931F93CF93DF93009718
:101CA00009F48CC0FC013297138212820091D00299
:101CB0001091D1020115110581F420813181820F2B
:101CC000931F2091CE023091CF022817390779F562
:101CD000F093CF02E093CE0271C0D80140E050E013
:101CE000AE17BF0750F412962D913C911397AD019A
:101CF0002115310509F1D901F3CF9D01DA013383B3
:101D0000228360817181860F971F8217930769F480
:101D1000EC0128813981260F371F2E5F3F4F318319
:101D200020838A819B8193838283452B29F4F093BE
:101D3000D102E093D00242C01396FC93EE93129727
:101D4000ED01499159919E01240F351FE217F307C8
:101D500071F480819181840F951F029611969C9356
:101D60008E938281938113969C938E931297E0E0D9
:101D7000F0E0D80112968D919C911397009719F07D
:101D8000F8018C01F6CF8D919C9198012E5F3F4F09
:101D9000820F931F2091CE023091CF02281739076E
:101DA00069F4309729F41092D1021092D00202C047
:101DB000138212821093CF020093CE02DF91CF9153
:101DC0001F910F91089581E090E0F8940C943A0FE0
:101DD000FC0188279927E89421912032E9F32930E2
:101DE00010F02E30C8F32B3241F02D3239F46894C4
:101DF00004C00E94320F820F911D219120532A307E
:101E0000C0F31EF4909581959F4F08954CEC52E0DD
:101E10000E940B0F0895FA01A191B081009719F467
:101E20001097E1F0CD01DC01CD010D90002011F4FF
:101E3000C00113C0FB012191222319F02015D9F70D
:101E4000F3CFFB012191201519F41E92119606C0C3
:101E50002223C1F70D900020A1F7D001FA01A19330
:101E6000B08308957AE0979F902D879F802D910DE4
:101E70001124089510E0C2E6D0E004C0FE010E94E3
:0E1E8000B00D2196C336D107C9F7F894FFCFF5
:101E8E0005000000000000000000D2028000636325
:101E9E006363636300000000E600F704AF008D008B
:101EAE00A1002D011920082C004E6F6465204944B5
:101EBE003A20004E656F706978656C2054657374B6
:101ECE00002D2D2D2D2D496E707574732D2D2D2DEC
:101EDE000050696E2300203D2000202D204F4B0026
:101EEE00202D20505245535345440043414E2D4220
:101EFE00555320436F6D6D756E69636174696F6EB6
:101F0E003A20436F6D6D616E64204E6F6465002DD7
:101F1E002D2D2D2D584265652D2D2D2D2D00526503
:0A1F2E006164790039000D0A00001B
:00000001FF
