:100000000C9463000C948B000C948B000C948B006C
:100010000C948B000C948B000C948B000C948B0034
:100020000C948B000C948B000C948B000C948B0024
:100030000C948B000C948B000C948B000C948B0014
:100040000C94A5020C948B000C94A8010C948201D2
:100050000C948B000C948B000C948B000C948B00F4
:100060000C948B000C948B000000000023002600F1
:10007000290000000000240027002A0000000008DA
:10008000000201000003040700000000000000005F
:10009000010204081020408001020408102001021F
:1000A0000408102000000000250028002B00040494
:1000B0000404040404040202020202020303030310
:1000C0000303780D680D11241FBECFEFD8E0DEBF0B
:1000D000CDBF11E0A0E0B1E0E6E2F0E202C00590A1
:1000E0000D92A43DB107D9F723E0A4EDB1E001C022
:1000F0001D92A133B207E1F710E0C2E6D0E004C0E0
:100100002197FE010E945A0EC136D107C9F70E94FD
:1001100041070C9406100C940000FC01918D828D17
:10012000981761F0828DDF01A80FB11D5D968C914B
:10013000928D9F5F9F73928F90E008958FEF9FEF56
:100140000895FC01918D828D981731F0828DE80F12
:10015000F11D858D90E008958FEF9FEF0895FC01CC
:10016000918D228D892F90E0805C9F4F821B910999
:100170008F739927089582E692E00E94AF0021E0F4
:10018000892B09F420E0822F0895FC01848DDF0182
:10019000A80FB11DA35ABF4F2C91848D90E00196FA
:1001A0008F739927848FA689B7892C93A089B189E9
:1001B0008C9180648C93938D848D981306C00288F3
:1001C000F389E02D80818F7D80830895EF92FF92E7
:1001D0000F931F93CF93DF93EC0181E0888F9B8D6A
:1001E0008C8D981305C0E889F989808185FD24C02C
:1001F000F62E0B8D10E00F5F1F4F0F731127E02EAF
:100200008C8DE8120CC00FB607FCFACFE889F9898B
:10021000808185FFF5CFCE010E94C500F1CF8B8D87
:10022000FE01E80FF11DE35AFF4FF0820B8FEA89C0
:10023000FB898081806207C0EE89FF896083E8893D
:10024000F98980818064808381E090E0DF91CF91A3
:100250001F910F91FF90EF900895CF93DF93EC01E2
:10026000888D8823C9F0EA89FB89808185FD05C0D6
:10027000A889B9898C9186FD0FC00FB607FCF5CF10
:10028000808185FFF2CFA889B9898C9185FFEDCF58
:10029000CE010E94C500E7CFDF91CF91089580E0A5
:1002A00090E0892B29F00E94BB0081110C94000082
:1002B0000895833081F028F4813099F08230A1F0E4
:1002C00008958730A9F08830B9F08430D1F4809156
:1002D00080008F7D03C0809180008F7780938000A5
:1002E000089584B58F7702C084B58F7D84BD08954D
:1002F0008091B0008F7703C08091B0008F7D809394
:10030000B00008951F920F920FB60F9211242F93F1
:100310003F934F935F936F937F938F939F93AF938D
:10032000BF93EF93FF9382E692E00E94C500FF9196
:10033000EF91BF91AF919F918F917F916F915F915D
:100340004F913F912F910F900FBE0F901F901895D6
:100350001F920F920FB60F9211242F938F939F939A
:10036000EF93FF93E0917202F09173028081E0912C
:100370007802F091790282FD12C0908180917B0217
:100380008F5F8F7320917C02821751F0E0917B0286
:10039000F0E0EE59FD4F958F80937B0201C0808184
:1003A000FF91EF919F918F912F910F900FBE0F9022
:1003B0001F9018951F93CF93DF93282F30E0F901FA
:1003C000E458FF4F8491F901E057FF4FD491F901B0
:1003D000E255FF4FC491CC23C9F0162F81110E9422
:1003E0005901EC2FF0E0EE0FFF1FEC55FF4FA591E8
:1003F000B4918FB7F894111105C09C91ED2FE09541
:10040000E92302C0EC91ED2BEC938FBFDF91CF91EC
:100410001F910895CF93DF9390E0FC01E057FF4FC9
:100420002491FC01E255FF4F8491882361F190E013
:10043000880F991FFC01EE58FF4FC591D491FC0124
:10044000EC55FF4FA591B491611109C09FB7F89485
:100450008881209582238883EC912E230BC0623003
:1004600061F49FB7F8943881822F80958323888325
:10047000EC912E2B2C939FBF06C08FB7F894E88188
:100480002E2B28838FBFDF91CF9108953FB7F8942B
:100490008091230290912402A0912502B09126021E
:1004A00026B5A89B05C02F3F19F00196A11DB11DCF
:1004B0003FBFBA2FA92F982F8827820F911DA11D0A
:1004C000B11DBC01CD0142E0660F771F881F991F47
:1004D0004A95D1F708958F929F92AF92BF92CF9293
:1004E000DF92EF92FF926B017C010E9446024B016A
:1004F0005C01C114D104E104F104F1F00E94460250
:10050000DC01CB0188199909AA09BB09883E9340EF
:10051000A105B10570F321E0C21AD108E108F10884
:1005200088EE880E83E0981EA11CB11CC114D10472
:10053000E104F10419F7DDCFFF90EF90DF90CF9049
:10054000BF90AF909F908F9008951F920F920FB61B
:100550000F9211242F933F938F939F93AF93BF9349
:100560008091270290912802A0912902B0912A023D
:100570003091220223E0230F2D3720F40196A11D94
:10058000B11D05C026E8230F0296A11DB11D2093C1
:1005900022028093270290932802A0932902B0930D
:1005A0002A028091230290912402A0912502B09109
:1005B00026020196A11DB11D80932302909324026F
:1005C000A0932502B0932602BF91AF919F918F9186
:1005D0003F912F910F900FBE0F901F901895FF9293
:1005E0000F931F93CF93DF93D82F082F10E0F801BC
:1005F000E25FFE4F208130E0F901E458FF4F849123
:10060000F901E057FF4FF490F901E255FF4FC49113
:10061000CC2379F081110E945901EC2FF0E0EE0F0C
:10062000FF1FE859FF4FA591B491EC91EF2191E0A4
:1006300009F490E0F801E45EFD4F80818917F1F044
:1006400040910401913061F4908321E030E001C0D9
:10065000220FDA95EAF7242B2093040181E010C0E1
:10066000108221E030E0C90101C0880FDA95EAF775
:10067000809584238093040180E002C0892F8170DB
:10068000DF91CF911F910F91FF9008950F931F93CA
:10069000CF930EE011E0C0E0F80181918F01833625
:1006A00019F08C2F0E94EF02CF5FC630A9F7CF91CF
:1006B0001F910F910895CF93DF93AB01BC012AE006
:1006C00082E692E00E94BC066EEA71E082E692E069
:1006D0000E943F07C0E0D1E081E0C830D80781F038
:1006E000499150E060E070E02AE082E692E00E94EA
:1006F000BC066EEA71E082E692E00E943F07ECCF12
:100700000E9471066AE070E080E090E0DF91CF9196
:100710000C946B020F931F93009113031091140319
:100720002091150330911603601771078207930714
:10073000B1F100910F03109110032091110330913A
:100740001203601771078207930759F100910303A1
:10075000109104032091050330910603601771077F
:100760008207930701F100910B0310910C03209174
:100770000D0330910E036017710782079307A9F0EC
:1007800000910703109108032091090330910A0397
:10079000601771078207930751F080E009C081E07C
:1007A00007C082E005C083E003C084E001C085E0AB
:1007B0001F910F9108958F929F92AF92BF92EF92E7
:1007C000FF920F931F93CF93DF934B015C01142F84
:1007D000C22F0E948A038093010181E0809302016D
:1007E000111101C01AE0D0E0E02EF12CCE15DF058A
:1007F00070F48091180390911903C817D90728F451
:10080000B501A401CE010E9429062196EFCF0E94D6
:100810006B05612F70E080E090E0DF91CF911F9138
:100820000F91FF90EF90BF90AF909F908F900C949E
:100830006B020F93E0E0F1E086E0818385E0828344
:1008400060910703709108038091090390910A0356
:1008500000E220E044EF0E94DB0364E670E080E009
:1008600090E00E946B0260911303709114038091D9
:1008700015039091160320E044EF0E94DB0364E629
:1008800070E080E090E00E946B0260910F03709135
:100890001003809111039091120320E044EF0E9415
:1008A000DB0364E670E080E090E00E946B02609100
:1008B000030370910403809105039091060320E0E7
:1008C00044EF0E94DB0364E670E080E090E00E9469
:1008D0006B0260910B0370910C0380910D0390915A
:1008E0000E0320E044EF0E94DB0364E670E080E04A
:1008F00090E00E946B026091FF0270910003809172
:1009000001039091020320E044EF0E94DB030F916A
:1009100008955F926F927F928F929F92AF92BF9253
:10092000CF92DF92EF92FF920F931F93CF93DF93BB
:100930001F92CDB7DEB74B015C01522E7E2C49834E
:100940000E948A038093010184E08093020149811F
:10095000411101C044E1511002C05524539410E0EC
:10096000C42ED12CE12CF12C81E08515F0F4602E01
:100970001AC04091FF0250910003609101037091F1
:100980000203862D90E020911803309119038217FD
:10099000930710F40E9429060E946B05C701B60157
:1009A0000E946B026394671420F3602E14C0862D9E
:1009B00090E020911803309119038217930720F4D7
:1009C000B501A4010E9429060E946B05C701B6016A
:1009D0000E946B026394671450F31F5F1511C4CF1C
:1009E0000F90DF91CF911F910F91FF90EF90DF90CB
:1009F000CF90BF90AF909F908F907F906F905F90BF
:100A00000895CF92DF92EF92FF920F931F93CF93AF
:100A1000DF936C017A018B01C0E0D0E0CE15DF05D9
:100A200089F0D8016D918D01D601ED91FC91019075
:100A3000F081E02DC6010995892B11F47E0102C0D9
:100A40002196ECCFC701DF91CF911F910F91FF90BD
:100A5000EF90DF90CF9008950E948D0F6115710582
:100A600079F0FB0101900020E9F73197AF01461BB7
:100A7000570BDC01ED91FC910280F381E02D09948C
:100A800080E090E00895E2E6F2E0A089B18982E09A
:100A90008C93A485B5851C92A685B78580E18C933F
:100AA000108EA489B58986E08C93A289B3898C9134
:100AB00080618C93A289B3898C9188608C93A28980
:100AC000B3898C9180688C930288F389E02D8081B2
:100AD0008F7D808308950F931F93CF93DF93CDB7BE
:100AE000DEB729970FB6F894DEBF0FBECDBF809159
:100AF0001F0390912003892B09F4A0C00E94460295
:100B0000009124031091250320912603309127039F
:100B1000DC01CB01801B910BA20BB30BC297A1058B
:100B2000B10560F3F89480911A0390911B039A83A6
:100B30008983E0911F03F0912003DF0111968081EA
:100B4000898790911D03E0912803F09129038091FA
:100B50002A0391FF2EC09081982B988790818095D1
:100B600089238F838F818C8388E08B8358856F8165
:100B700049853B812C8189819A81508347FD252FAE
:100B80003A952083262F39F0441F00C0000060836F
:100B9000000000C0F2CF38E04D9160830000019763
:100BA00061F7F0932903E093280349873B832C8363
:100BB00038C09081982B98879081809589238F8366
:100BC0008F818E8388E08D8358856F8149853D8133
:100BD0002E8189819A81508347FD252F00C000C056
:100BE000208300C000C000C000C000C060830000BF
:100BF000262F3A9541F0441F000000C000C000C0FD
:100C000000C000C0E8CF38E04D9100C0608300C054
:100C1000019709F7F0932903E093280349873D835F
:100C20002E839A83898378940E94460260932403DA
:100C300070932503809326039093270329960FB67C
:100C4000F894DEBF0FBECDBFDF91CF911F910F9102
:100C500008958F929F92AF92BF92CF92DF92EF92C0
:100C6000FF924B01AA24BB24F82DC52ED62EE72EC9
:100C7000FF24EC2D342F20911E03222361F0829E4D
:100C800040011124F92DC29E60011124ED2D429FD7
:100C9000A0011124352FAC01440F551F840F951F5F
:100CA00040911F0350912003840F951F2091210331
:100CB000DC01A20FB11DFC9320912203DC01A20FE5
:100CC000B11DEC9320912303FC01E20FF11D308351
:100CD000FF90EF90DF90CF90BF90AF909F908F905C
:100CE000089560ED71E082E692E00C942E05CF93BA
:100CF000DF93BC0182E692E00E942E05EC010E9487
:100D000071068C0F9D1FDF91CF9108952FB7F89436
:100D10008091270290912802A0912902B0912A0285
:100D20002FBF40912C0250912D0260912E027091A4
:100D30002F02841B950BA60BB70BC297A105B1051B
:100D400038F463E070E080E090E00E946B02DECF58
:100D50002FB7F8948091270290912802A091290240
:100D6000B0912A022FBF80932C0290932D02A09362
:100D70002E02B0932F0208954F925F926F927F924E
:100D8000EF92FF920F931F93CF93DF93CDB7DEB710
:100D9000A1970FB6F894DEBF0FBECDBF7C01FA015C
:100DA000CB0119A2223008F42AE08E010F5D1F4FFB
:100DB000422E512C612C712CBF01A30192010E9483
:100DC000E40FF901CA01015011096A3014F4605DA1
:100DD00001C0695CD8016C93232B242B252B61F770
:100DE000B801C7010E942E05A1960FB6F894DEBF88
:100DF0000FBECDBFDF91CF911F910F91FF90EF906C
:100E00007F906F905F904F900895CF92DF92EF9216
:100E1000FF92CF93DF936C01990FEE08FF08F7FE66
:100E200021C0E0916202F09163020190F081E02D17
:100E30006DE282E692E00995EC0144275527BA015C
:100E40004C195D096E097F092AE082E692E00E9452
:100E5000BC068C0F9D1FDF91CF91FF90EF90DF902C
:100E6000CF9008952AE0B701A60182E692E0DF91D3
:100E7000CF91FF90EF90DF90CF900C94BC060C9434
:100E80002E05789484B5826084BD84B5816084BD6C
:100E900085B5826085BD85B5816085BD80916E0018
:100EA000816080936E001092810080918100826049
:100EB0008093810080918100816080938100809186
:100EC00080008160809380008091B1008460809375
:100ED000B1008091B00081608093B00080917A0071
:100EE000846080937A0080917A00826080937A0097
:100EF00080917A00816080937A0080917A00806886
:100F000080937A001092C10010925E0210925F02EC
:100F1000109260021092610210922C0210922D0227
:100F200010922E0210922F0260ED77E080E090E0A8
:100F30000E946B0282E692E090935D0280935C02D5
:100F40000E9443050E94860667E271E080915C0280
:100F500090915D020E943F076AE070E080E090E0BF
:100F60000E946B0281E0809330020E94430569E396
:100F700071E082E692E00E943F072AE04FE150E0F4
:100F800060E070E082E692E00E94BC060E9471067A
:100F900061E08DE00E940A0261E08DE00E94DA01CA
:100FA00061E084E00E940A0260E084E00E94DA01CD
:100FB00061E085E00E940A0260E085E00E94DA01BB
:100FC00083E491E00E94770680911C0387FD08C0AE
:100FD00061E00E940A0260E080911C030E94DA0135
:100FE00081E0809317030E946B050E9419046091B1
:100FF000130370911403809115039091160300E27E
:1010000020E040E00E94DB0381E591E00E9477064A
:101010008EE0C82E81E0D82EC0E0D6018C918336B8
:1010200009F44FC062E00E940A0261E671E082E6C4
:1010300092E00E943F07F601408150E060E070E0DE
:101040002AE082E692E00E94BC0666E671E082E653
:1010500092E00E943F078C2F0E94EF0290E00E94D6
:1010600005078C2F0E94EF02811112C060910F03BF
:1010700070911003809111039091120308E0E02E0B
:1010800000E020E040E00E9489048AE691E011C07F
:10109000609103037091040380910503909106030E
:1010A00018E0E12E00E020E040E00E94890480E7A3
:1010B00091E00E9477066AEF70E080E090E00E9485
:1010C0006B02FFEFCF1ADF0ACF5FC63009F0A5CF62
:1010D0008BE791E00E9477068FE991E00E94770606
:1010E00060ED77E080E090E00E946B026091FF028B
:1010F00070910003809101039091020300E220E0CF
:1011000040E00E94DB038FE092E0A8E04A2E480E08
:1011100081EE91E0B0E22B2E280EAA24A394B12CEC
:10112000D4E23D2E80911B02882309F40EC1109257
:101130001B02609117027091180280911902909120
:101140001A026F3171058105910509F0F6C1C7E0FA
:10115000D2E0DE01EFE0F2E081918D934E12FCCF00
:1011600080910702811107C06FE170E080E090E09C
:101170000E945B03EAC0813009F0E9C08091080257
:10118000813049F4C0911303F090140310911503BA
:10119000D091160334C0823049F4C0910F03F0900F
:1011A000100310911103D091120329C0833049F428
:1011B000C0910303F090040310910503D09106033E
:1011C0001EC0843049F4C0910B03F0900C031091C1
:1011D0000D03D0910E0313C0853049F4C09107036D
:1011E000F090080310910903D0910A0308C0C09140
:1011F000FF02F090000310910103D0910203809050
:101200000902C0900B0250900C02E0900A02EE20FE
:1012100049F08E2D880F880F880FF8EF9F2E980EBB
:10122000E82E03C0E0E2EE2E912C811003C000E214
:1012300020E005C021E082120AC00E2D292D452D87
:101240006C2F7F2D812F9D2F0E94DB037AC082E0BF
:10125000881231C06C2F7F2D812F9D2F0E948A0311
:101260008093010180920201511002C07EE5572E49
:10127000C11002C0CC24C394612C712CD12C0E2D32
:10128000292D452D6C2F7F2D812F9D2F6C147D04D2
:10129000DCF60E94DB036091FF02709100038091F5
:1012A000010390910203292D452D0E94DB03AFEF2E
:1012B0006A1A7A0AE4CFB3E08B1231C06C2F7F2D0B
:1012C000812F9D2F0E948A03809301018092020149
:1012D000511002C06EE5562EC11002C0CC24C3943A
:1012E000612C712CD12C6C147D045CF50E2D292DF4
:1012F000452D6C2F7F2D812F9D2F0E94DB03609148
:10130000FF02709100038091010390910203292D47
:10131000452D0E94DB03EFEF6E1A7E0AE4CFF4E066
:101320008F120AC0092D2C2D452D6C2F7F2D812F5A
:101330009D2F0E94890405C025E0821202C00E94F0
:101340001904C09301018092020111E0CAC18230E8
:1013500051F4809108028093040291E0909303027B
:101360001092DB01ADC19DEF980F923070F3853084
:1013700011F58091D5019091D60101969093D601F7
:101380008093D5012AE040E050E0BA0182E692E085
:101390000E94BC066EEA71E082E692E00E943F077E
:1013A00082E0CF30D80709F48CC0499150E060E06A
:1013B00070E02AE0EBCF863071F4809108028093D0
:1013C000DD01909109029093DC01893009F085E0FC
:1013D00080930001BACF893009F076C08091D501A1
:1013E0009091D60101969093D6018093D5012AE081
:1013F00040E050E0BA0182E692E00E94BC066EEA4C
:1014000071E082E692E00E943F0760EB71E082E6C5
:1014100092E00E943F076EEA71E082E692E00E944D
:101420003F078091DE019091DF010E9405076EEA7F
:1014300071E082E692E00E943F078091D501909191
:10144000D6010E9405076EEA71E082E692E00E94F2
:101450003F078091D9019091DA010E9405076EEA59
:1014600071E082E692E00E943F078091D70190915F
:10147000D8010E9405076EEA71E082E692E00E94C0
:101480003F0740910D0250E060E070E02AE082E604
:1014900092E00E94BC066EEA71E082E692E00E9451
:1014A0003F0740910E0250E060E070E02AE082E6E3
:1014B00092E00E94BC066EEA71E082E692E00E9431
:1014C0003F070E94710641CF843609F561E084E050
:1014D0000E94DA0164E670E080E090E00E946B0216
:1014E00060E084E00E94DA0164E670E080E090E071
:1014F0000E946B0261E084E00E94DA0164E670E021
:1015000080E090E00E946B0260E084E00FC08536CE
:1015100009F01BCF61E085E00E94DA0168EE73E01C
:1015200080E090E00E946B0260E085E00E94DA01BA
:1015300064E670E080E090E0B6C061157105810559
:10154000910561F5C12CD12C7601C394C1E0809145
:101550000E02813021F4D0920602C09205028091E1
:101560000702811105C0C701B6010E945B030AC0D2
:10157000823041F48091080280930402C0930302F8
:1015800080930301AFEFCA1ADA0AEA0AFA0ABAE04C
:10159000CB16D104E104F104D1F6D7CE20910E028E
:1015A000213021F470930602609305022091070216
:1015B00021117CC00E945B030E94860662EB71E0F1
:1015C00080915C0290915D020E943F076AEB71E09E
:1015D00080915C0290915D020E943F0765E070E09F
:1015E00080E090E00E946B026AE070E080E090E0B2
:1015F0000E946B0280913002882309F4A6CE80916C
:101600005C0290915D02DC01ED91FC910480F5811A
:10161000E02D0995892B99F309C08637910509F4C6
:1016200094CE8835910511F41092300280915C02BD
:1016300090915D02DC01ED91FC910480F581E02D3B
:101640000995181619060CF080CE80915C029091D5
:101650005D02DC01ED91FC910680F781E02D09959A
:10166000992783369105C9F663EC71E080915C029D
:1016700090915D020E943F072AE041E050E060E067
:1016800070E080915C0290915D020E94BC066AEC61
:1016900071E080915C0290915D020E943F0762E3DD
:1016A00070E080E090E00E946B024FCE223009F0A3
:1016B0004CCE809108028093040291E09093030243
:1016C0008093030142CEB0920202A092010282E610
:1016D00092E00E948D00843259F48093E1011093CE
:1016E000E00182E692E00E94AF00892B61F759C0C9
:1016F0003092E1018A3009F045C08091DE0190917D
:10170000DF0101969093DF018093DE016EEA71E0C4
:1017100081EE91E00E94B00F6EEA71E080E090E00F
:101720000E94B00F0E94920F092E000CAA0BBB0B57
:101730008093170290931802A0931902B0931A0293
:101740006EEA71E080E090E00E94B00FCFE0D2E05E
:10175000009751F00E94920F88836EEA71E080E05A
:1017600090E00E94B00F01C0188221964C12F0CF79
:101770001092E001E1EEF1E011922E12FDCF1093F4
:101780001B02AFCFE091E001AE2FB0E0AF51BE4FF2
:101790008C93EF5FE093E001F0E0EF51FE4F108299
:1017A000A0CF8091DD01893009F0B7C08091DC01C4
:1017B000853079F580910402909103028130D9F44B
:1017C000992309F482C160911303709114038091ED
:1017D00015039091160340E2E42E00E021E040E082
:1017E0000E948904609107037091080380910903A6
:1017F00090910A0369C08230C1F4992309F465C14C
:10180000109203021092DB018091D7019091D801D0
:1018100072C0863009F059C1809104029091030290
:101820008130C1F1823009F458C08730C9F4809109
:101830000302882309F449C16FE170E080E090E081
:101840000E945B036091FF0270910003809101038D
:101850009091020300E220E040E00E94DB0333C1EC
:1018600080910302882309F430C11092DA011092AA
:10187000D9011092D8011092D7011092D60110927E
:10188000D5011092DF011092DE0110920701109233
:10189000060108C1992309F418C1609113037091DE
:1018A0001403809115039091160330E2E32E00E0BB
:1018B00021E040E00E9489046091030370910403D9
:1018C000809105039091060321E040E00E94890485
:1018D000109203021092DB01F8C0992321F01092BC
:1018E00003021092DB018091D7019091D8018F3FC4
:1018F00091050CF0EAC001969093D8018093D7012E
:10190000809307018091D901809306016FE170E017
:1019100080E090E00E945B03D8C0809104029FEFBA
:10192000980F923008F4D1C0833081F58091030282
:10193000882321F01092DB01109204028091DB01D8
:101940008111C3C01092060188E08093070162E014
:1019500070E080E090E00E945B0364E070E080E073
:1019600090E00E945B0367E070E080E090E00E94FE
:101970005B0369E070E080E090E00E945B0368EE4A
:1019800073E080E090E00E946B0216C0843009F49E
:101990009CC0853009F040C080910302882341F04B
:1019A0001092DB01109204021092060210920502BE
:1019B0008091DB01811189C082E08093070162E0A0
:1019C00070E080E090E00E945B0364E070E080E003
:1019D00090E00E945B0367E070E080E090E00E948E
:1019E0005B0369E070E080E090E00E945B0368EEDA
:1019F00073E080E090E00E946B021092070183E0A8
:101A0000809306016BE070E080E090E00E945B0351
:101A100081E08093DB0159C09AEF980F923008F46F
:101A200054C090910302883059F5992309F44DC0B0
:101A300060910B0370910C0380910D0390910E0344
:101A400020E2E22E00E021E040E00E948904609163
:101A5000030370910403809105039091060321E034
:101A600040E00E9489046091FF0270910003809120
:101A700001039091020321E040E00E94890423C009
:101A8000992319F11092DA011092D9011092D8011C
:101A90001092D7011092D6011092D5011092DF0159
:101AA0001092DE016091FF027091000380910103AA
:101AB0009091020300E220E040E00E94DB031092DC
:101AC000D4010E944603109203020E944F012ACBC8
:101AD00080911F0390912003009711F00E94F50E52
:101AE00080911C0387FD03C060E00C940A020895F6
:101AF000109265021092640288EE93E0A0E0B0E0DC
:101B00008093660290936702A0936802B093690283
:101B100088E191E0909363028093620285EC90E00B
:101B200090936F0280936E0284EC90E09093710228
:101B30008093700280EC90E0909373028093720225
:101B400081EC90E0909375028093740282EC90E0B7
:101B5000909377028093760286EC90E090937902DE
:101B60008093780210927B0210927C0210927D0288
:101B700010927E021092170310921E0310922403FB
:101B800010922503109226031092270380E690E01E
:101B900090931B0380931A030E94600E909320037E
:101BA00080931F03009761F020E6FC0111922A95B3
:101BB000E9F780E290E0909319038093180308C03E
:101BC00010921B0310921A0310921903109218031B
:101BD00088E080931C0380911703882341F061E023
:101BE00088E00E940A0260E088E00E94DA01E6EBE9
:101BF000F0E0E491F0E0EE0FFF1FEC55FF4F859110
:101C000094919093290380932803E8E9F0E0E4910C
:101C1000E0932A0383E080931D0381E080932103F6
:101C20001092220382E08093230380E090E0A9E1F8
:101C3000B0E08093130390931403A0931503B09323
:101C4000160380E099E1A0E0B0E080930F03909349
:101C50001003A0931103B093120389E190E0A0E078
:101C6000B0E080930B0390930C03A0930D03B0930B
:101C70000E0389E199E1A9E1B0E080930703909315
:101C80000803A0930903B0930A0380E099E1A9E156
:101C9000B0E08093030390930403A0930503B093F3
:101CA00006031092FF02109200031092010310929B
:101CB00002030895EE0FFF1F0590F491E02D0994A3
:101CC000CF93DF938230910510F482E090E0E091B1
:101CD0002F03F091300320E030E0C0E0D0E03097F7
:101CE00011F14081518148175907C0F04817590731
:101CF00061F482819381209719F09B838A832BC0A2
:101D00009093300380932F0326C02115310519F0DD
:101D10004217530718F49A01BE01DF01EF01028058
:101D2000F381E02DDCCF2115310509F1281B390B9A
:101D30002430310590F412968D919C911397611582
:101D4000710521F0FB019383828304C090933003DB
:101D500080932F03FD01329644C0FD01E20FF31F73
:101D600081939193225031092D933C933AC0209155
:101D70002D0330912E03232B41F420910A01309141
:101D80000B0130932E0320932D03209108013091F5
:101D900009012115310541F42DB73EB740910C01E1
:101DA00050910D01241B350BE0912D03F0912E0372
:101DB000E217F307A0F42E1B3F0B2817390778F022
:101DC000AC014E5F5F4F2417350748F04E0F5F1F81
:101DD00050932E0340932D038193919302C0E0E032
:101DE000F0E0CF01DF91CF9108950F931F93CF9330
:101DF000DF93009709F48CC0FC01329713821282A2
:101E000000912F03109130030115110581F42081F9
:101E10003181820F931F20912D0330912E032817BB
:101E2000390779F5F0932E03E0932D0371C0D801A3
:101E300040E050E0AE17BF0750F412962D913C9150
:101E40001397AD012115310509F1D901F3CF9D019A
:101E5000DA013383228360817181860F971F821795
:101E6000930769F4EC0128813981260F371F2E5F13
:101E70003F4F318320838A819B8193838283452BCB
:101E800029F4F0933003E0932F0342C01396FC93A0
:101E9000EE931297ED01499159919E01240F351F40
:101EA000E217F30771F480819181840F951F0296E8
:101EB00011969C938E938281938113969C938E931B
:101EC0001297E0E0F0E0D80112968D919C91139763
:101ED000009719F0F8018C01F6CF8D919C91980133
:101EE0002E5F3F4F820F931F20912D0330912E03C1
:101EF0002817390769F4309729F4109230031092AB
:101F00002F0302C01382128210932E0300932D031D
:101F1000DF91CF911F910F91089581E090E0F894A7
:101F20000C940610FC0188279927E894219120320F
:101F3000E9F3293010F02E30C8F32B3241F02D3266
:101F400039F4689404C00E94DC0F820F911D219126
:101F500020532A30C0F31EF4909581959F4F089529
:101F60004BE253E00E94B50F0895FA01A191B081B0
:101F7000009719F41097E1F0CD01DC01CD010D902F
:101F8000002011F4C00113C0FB012191222319F09C
:101F90002015D9F7F3CFFB012191201519F41E92DA
:101FA000119606C02223C1F70D900020A1F7D001A1
:101FB000FA01A193B08308957AE0979F902D879FAF
:101FC000802D910D11240895A1E21A2EAA1BBB1B8E
:101FD000FD010DC0AA1FBB1FEE1FFF1FA217B307F5
:101FE000E407F50720F0A21BB30BE40BF50B661F0B
:101FF000771F881F991F1A9469F7609570958095CF
:1020000090959B01AC01BD01CF01089510E0C2E69F
:10201000D0E004C0FE010E945A0E2196C336D107BB
:06202000C9F7F894FFCFA0
:10202600050000000000000000003103800063632B
:102036006363636300000000E6000105AF008D00E6
:10204600A1002D01192008564D4450565F317C31B0
:102056005F564D4450560D0A004E6F646520494444
:102066003A20004E656F706978656C20546573740C
:10207600002D2D2D2D2D496E707574732D2D2D2D42
:102086000050696E2300203D2000202D204F4B007C
:10209600202D20505245535345440043414E2D4276
:1020A600555320436F6D6D756E69636174696F6E0C
:1020B6003A20436F6D6D616E64204E6F6465002D2E
:1020C6002D2D2D2D584265652D2D2D2D2D002C00E5
:1020D6003900564D4450455F31005F564D445045DA
:1020E6000D0A00564D4450435F005F564D44504321
:0420F6000D0A0000CF
:00000001FF
